:020000040000FA
:100000000C9463000C94B1050C948A050C948B003D
:100010000C948B000C948B000C948B000C948B0034
:100020000C948B000C948B000C948B000C948B0024
:100030000C948B000C948B000C948B000C948B0014
:100040000C9440050C948B000C940E050C94E80461
:100050000C948B000C948B000C948B000C948B00F4
:100060000C948B000C948B000000000024002700EF
:100070002A000000000023002600290000000008DC
:10008000000201000003040700000000000000005F
:10009000010204081020408001020408102001021F
:1000A0000408102000000000250028002B00040494
:1000B0000404040404040202020202020303030310
:1000C00003033306EA0511241FBECFEFD8E0DEBFDD
:1000D000CDBF11E0A0E0B1E0E8E7F3E202C0059097
:1000E0000D92A23EB107D9F725E0A2EEB1E001C022
:1000F0001D92A537B207E1F710E0C2E6D0E004C0D8
:100100002197FE010E947D10C136D107C9F70E94D8
:1001100012080C94AF110C9400000895AF92BF9296
:10012000CF92DF92EF92FF920F931F93CF93DF93C3
:100130006C017B018B01040F151FEB015E01AE18F2
:10014000BF08C017D10759F06991D601ED91FC9114
:100150000190F081E02DC6010995892B79F7C50141
:10016000DF91CF911F910F91FF90EF90DF90CF9093
:10017000BF90AF900895FC01538D448D252F30E042
:10018000842F90E0821B930B541710F0CF960895A4
:1001900001970895FC01918D828D981761F0A28DD1
:1001A000AE0FBF2FB11D5D968C91928D9F5F9F7397
:1001B000928F90E008958FEF9FEF0895FC01918D4D
:1001C000828D981731F0828DE80FF11D858D90E0BA
:1001D00008958FEF9FEF0895FC01918D228D892F57
:1001E00090E0805C9F4F821B91098F73992708953F
:1001F0008BEF91E00E94EC0021E0892B09F420E0D4
:10020000822F089580E090E0892B29F00E94F80069
:1002100081110C9400000895FC01A48DA80FB92F42
:10022000B11DA35ABF4F2C91848D90E001968F731E
:100230009927848FA689B7892C93A089B1898C913D
:10024000837080648C93938D848D981306C002888C
:10025000F389E02D80818F7D80830895EF92FF9256
:100260000F931F93CF93DF93EC0181E0888F9B8DD9
:100270008C8D98131AC0E889F989808185FF15C093
:100280009FB7F894EE89FF896083E889F9898081B6
:100290008370806480839FBF81E090E0DF91CF9185
:1002A0001F910F91FF90EF900895F62E0B8D10E0A7
:1002B0000F5F1F4F0F731127E02E8C8D8E110CC016
:1002C0000FB607FCFACFE889F989808185FFF5CF61
:1002D000CE010E940C01F1CFEB8DEC0FFD2FF11D33
:1002E000E35AFF4FF0829FB7F8940B8FEA89FB899E
:1002F00080818062CFCFCF93DF93EC01888D8823FC
:10030000B9F0AA89BB89E889F9898C9185FD03C078
:10031000808186FD0DC00FB607FCF7CF8C9185FF5D
:10032000F2CF808185FFEDCFCE010E940C01E9CF95
:10033000DF91CF910895833081F028F4813099F0D6
:100340008230A9F008958730A9F08830C9F0843050
:10035000B1F4809180008F7D03C0809180008F7701
:1003600080938000089584B58F7784BD089584B507
:100370008F7DFBCF8091B0008F778093B000089580
:100380008091B0008F7DF9CFCF93DF93282F30E09D
:10039000F901E458FF4F8491F901E057FF4FD491E0
:1003A000F901E255FF4FC491CC23A1F081110E94C5
:1003B0009B01EC2FF0E0EE0FFF1FEE58FF4FA591D1
:1003C000B491EC91ED2381E090E009F480E0DF91BD
:1003D000CF91089580E090E0FACF1F93CF93DF9301
:1003E000282F30E0F901E458FF4F8491F901E057DC
:1003F000FF4FD491F901E255FF4FC491CC23A9F0EE
:10040000162F81110E949B01EC2FF0E0EE0FFF1FD1
:10041000EC55FF4FA591B4918FB7F894EC91111161
:1004200008C0D095DE23DC938FBFDF91CF911F9161
:100430000895DE2BF8CFCF93DF9390E0FC01E057D7
:10044000FF4F249182559F4FFC0184918823C9F06E
:1004500090E0880F991FFC01E859FF4FA591B491D6
:10046000FC01EC55FF4FC591D49161110DC09FB7B0
:10047000F8948C91209582238C938881282328835B
:100480009FBFDF91CF910895623051F49FB7F894E8
:100490003C91822F809583238C93E8812E2BEFCF84
:1004A0008FB7F894EC912E2B2C938FBFEACF1F932C
:1004B000CF93DF93EC01862F142F688379834A83CF
:1004C0005B8321E030E03D832C8362E00E941B02CD
:1004D00062E0812F0E941B0288810E94C401182FB4
:1004E0008A810E94C401880F991F812B8E831F82ED
:1004F000188619861A861B861C861D861E861F86F0
:10050000188A198A1A8ADF91CF911F9108953FB7EF
:10051000F8948091EB019091EC01A091ED01B091E4
:10052000EE0126B5A89B05C02F3F19F00196A11D2D
:10053000B11D3FBFBA2FA92F982F8827BC01CD012D
:10054000620F711D811D911D42E0660F771F881F8C
:10055000991F4A95D1F708952FB7F8946091E70154
:100560007091E8018091E9019091EA012FBF08950F
:1005700008950F931F93CF93DF93EC0188810E941E
:10058000C401182F8A810E94C401880F991F812BF2
:100590009E81981709F44DC0EE810F811885298539
:1005A0003A8594E0E902F0011124482F082E000C4E
:1005B000550BE42BF52BEE5EFE4F9081492F990FE2
:1005C000550B660B770B400F511F621F731F4F8334
:1005D000588769877A878E832C813D812230310547
:1005E00031F12330310551F12130310511F58330DE
:1005F00001F58F819885A985BA8532E0B595A795D3
:10060000979587953A95D1F78B879C87AD87BE875D
:100610008B899C89AD89BE898F8B988FA98FBA8F62
:100620000E94AC026B8B7C8B8D8B9E8B02C08823CF
:1006300001F3DF91CF911F910F910895882311F05D
:100640008330B9F78F819885A985BA85B595A79527
:1006500097958795D9CF8091F1019091F2010C94F3
:10066000B9028091F5019091F6010C94B902809144
:10067000F9019091FA010C94B902CF92DF92EF92B6
:10068000FF920F931F93CF93DF93FC01218132815F
:10069000232BC1F5EC010E94AC020C811D812E813F
:1006A0003F816B017C01C01AD10AE20AF30A288556
:1006B000022F10E030E020E0C016D106E206F3067B
:1006C00008F16C837D838E839F8388810E94C4019F
:1006D0004B812B893C893A8B298B48171906D9F411
:1006E00081E090E09C8B8B8B0E94AC026B017C01C3
:1006F00089899A89892B91F48B899C89019771F456
:1007000081E08E8FDF91CF911F910F91FF90EF903D
:10071000DF90CF9008951C8A1B8AE6CF8D898823AD
:10072000A1F189A19AA1892B99F08E899F89A88D21
:10073000B98DB701A601481B590B6A0B7B0B898544
:100740009A85AB85BC8584179507A607B707E8F49B
:100750008BA19CA1892B61F08A8D9B8DAC8DBD8D69
:10076000892B8A2B8B2B21F08B899C89019769F02F
:10077000EF8DF8A1309721F070E060E0CE0109958F
:100780001D8A1E8A1F8A188E198E89899A89019757
:1007900009F0B8CF8B899C898130910509F06CC034
:1007A0008E8D8823E1F08D898F5F8D8B8E899F8957
:1007B000A88DB98D892B8A2B8B2B21F4CE8ADF8AC9
:1007C000E88EF98E8A8D9B8DAC8DBD8D892B8A2B01
:1007D0008B2B21F4CA8EDB8EEC8EFD8E1E8EEBA150
:1007E000FCA1309721F18D89882309F18A8D9B8D99
:1007F000AC8DBD8DB701A601481B590B6A0B7B0B55
:100800008D859E85AF85B889481759076A077B078C
:1008100070F062E070E0CE0109951D8A1E8A1F8A81
:10082000188E198E1A8E1B8E1C8E1D8E6BCFE9A111
:10083000FAA1309709F466CF8D89823008F462CF2F
:100840008E899F89A88DB98DC81AD90AEA0AFB0A30
:1008500089859A85AB85BC858C159D05AE05BF0540
:1008600008F450CF61E070E0CE0109951D8A1E8A20
:100870001F8A188E198E46CF892BA1F243CF672B82
:1008800081F4809108019091090125E0289FF001F1
:10089000299FF00D1124E856FD4F808191E08927B2
:1008A000808308958091E2019091E30101969093F5
:1008B000E3018093E2012091040130910501821748
:1008C00093079CF01092E3011092E2018091E40101
:1008D000882359F080910A0190910B01019797FDAF
:1008E00006C090930B0180930A0181E008958FE088
:1008F00090E0F7CFFC0101900020E9F73197AF01BC
:10090000481B590BBC018BEF91E00C948E008F9229
:100910009F92AF92BF920F931F93CF93DF93CDB768
:10092000DEB7A1970FB6F894DEBF0FBECDBF19A2F8
:10093000423008F44AE08E010F5D1F4F842E912C47
:10094000B12CA12CA50194010E944510E62FB901FC
:10095000CA01EA30F4F4E05DD801EE938D01232B57
:10096000242B252B79F790E080E0109719F0CD012A
:100970000E947A04A1960FB6F894DEBF0FBECDBFD9
:10098000DF91CF911F910F91BF90AF909F908F906B
:100990000895E95CE1CF672BD1F48091E40191E007
:1009A00089278093E40184EC91E00E947A048DEC25
:1009B00091E00E947A046091E40170E090E080E0B0
:1009C0004AE00E9487048DEC91E00C947A0408952B
:1009D0001F920F920FB60F9211242F933F934F93B4
:1009E0005F936F937F938F939F93AF93BF93EF9397
:1009F000FF938BEF91E00E940C01FF91EF91BF916B
:100A0000AF919F918F917F916F915F914F913F91A6
:100A10002F910F900FBE0F901F9018951F920F925D
:100A20000FB60F9211242F938F939F93EF93FF9301
:100A3000E0910B02F0910C028081E0911102F091A3
:100A4000120282FD1BC09081809114028F5F8F7310
:100A500020911502821741F0E0911402F0E0E55078
:100A6000FE4F958F80931402FF91EF919F918F918C
:100A70002F910F900FBE0F901F9018958081F4CF8B
:100A80001F920F920FB60F9211242F933F938F93C3
:100A90009F93AF93BF938091E7019091E801A0915C
:100AA000E901B091EA013091E60123E0230F2D37EF
:100AB00058F50196A11DB11D2093E6018093E70131
:100AC0009093E801A093E901B093EA018091EB01D2
:100AD0009091EC01A091ED01B091EE010196A11D64
:100AE000B11D8093EB019093EC01A093ED01B093C5
:100AF000EE01BF91AF919F918F913F912F910F90F8
:100B00000FBE0F901F90189526E8230F0296A11D87
:100B1000B11DD2CF1F920F920FB60F9211242F93B7
:100B20003F934F935F936F937F938F939F93AF9375
:100B3000BF93EF93FF93E0910201F09103010995B8
:100B4000FF91EF91BF91AF919F918F917F916F91A5
:100B50005F914F913F912F910F900FBE0F901F907B
:100B600018951F920F920FB60F9211242F933F9357
:100B70004F935F936F937F938F939F93AF93BF93A5
:100B8000EF93FF93E0910001F09101010995FF912E
:100B9000EF91BF91AF919F918F917F916F915F91F5
:100BA0004F913F912F910F900FBE0F901F9018956E
:100BB0009FB7F8948091E501882319F081508093C4
:100BC000E5018091E501811103C08CB58F7B8CBD5F
:100BD0009FBF08958091E7049091E8040E941F113F
:100BE0008091E4049091E50497FD03C060E00E94C9
:100BF0001B020E94D8050C94D805CF93CFB7F89468
:100C00008091E501811127C0E8EBF0E08491EAE9E9
:100C1000F0E09491E82FF0E0EE0FFF1FE859FF4F4E
:100C2000A591B491EC91E92321F461E08AE00E945E
:100C3000ED0161E08AE00E941B028CB580618CBDF1
:100C40008CB580648CBD61E08DE00E941B0261E088
:100C50008BE00E941B028091E5018F5F8093E5018C
:100C6000CFBFCF9108958F929F92AF92BF92CF92B4
:100C7000DF92EF92FF920F931F93CF93DF93109227
:100C8000FE011092FD0188EE93E0A0E0B0E08093B9
:100C9000FF0190930002A0930102B093020286EB41
:100CA00091E09093FC018093FB0185EC90E09093A0
:100CB00008028093070284EC90E090930A028093EC
:100CC000090280EC90E090930C0280930B0281EC7F
:100CD00090E090930E0280930D0282EC90E090934E
:100CE000100280930F0286EC90E0909312028093A2
:100CF0001102109214021092150210921602109214
:100D0000170210924F051092500510925105109243
:100D1000520510925305D4E1D09354059CE2892EDC
:100D200099249394A12CB12C80925505909256054C
:100D3000A0925705B092580528EBC22E2BE0D22E78
:100D4000E12CF12CC0925905D0925A05E0925B0536
:100D5000F0925C0510925E0510925D0510926005A0
:100D600010925F0510926105109262051092630562
:100D70001092640510926505109266051092670541
:100D8000109268051092690510926A0585E08093BB
:100D90004C0510924E0510924D0560E00E941B021A
:100DA000C1E0C0934F0510922A0510922B051092B6
:100DB0002C0510922D0510922E05D0932F058092B0
:100DC000300590923105A0923205B0923305C09261
:100DD0003405D0923505E0923605F0923705109231
:100DE00039051092380510923B0510923A05109281
:100DF0003C0510923D0510923E0510923F05109261
:100E00004005109241051092420510924305109240
:100E100044051092450588E0809327051092290526
:100E20001092280560E00E941B02C0932A051092D0
:100E300005051092060510920705109208051092FC
:100E40000905D0930A0580920B0590920C05A0929B
:100E50000D05B0920E05C0920F05D0921005E092DC
:100E60001105F092120510921405109213051092BC
:100E7000160510921505109217051092180510927C
:100E8000190510921A0510921B0510921C0510925C
:100E90001D0510921E0510921F05109220058BE073
:100EA00080930205109204051092030560E00E94F1
:100EB0001B02C09305051092FB041092FD041092D2
:100EC000FC04109200051092010500E010E8109358
:100ED000FF040093FE040E94FD05C093F4041092E9
:100EE000F6041092F5041092F9041092FA0410938B
:100EF000F8040093F7040E94FD051092DF0410929D
:100F0000E6041092ED041092EE041092EF04109299
:100F1000F004C093EC04C093E9041092EA0482E068
:100F20008093EB04C093DE0480E390E09093E304AD
:100F30008093E2040E9483109093E8048093E70476
:100F4000009709F466C020E3DC011D922A95E9F7B9
:100F500080E190E09093E1048093E00484E090E0ED
:100F60009093E5048093E4048091DF04882341F0AA
:100F700061E084E00E941B0260E084E00E94ED01D9
:100F8000E2EBF0E0E491F0E0EE0FFF1FEC55FF4FD5
:100F9000859194919093F2048093F104E4E9F0E058
:100FA000E491E093F3041092DD031092DC03EEED84
:100FB000F3E080E091E0DF019C011D922150304080
:100FC000E1F788E992E02CED33E045E450E060E59C
:100FD00070E0DC01A05BBF4FFC01108252834183B3
:100FE000748363833596AE17BF07B9F71C928F5A87
:100FF0009F4F2817390769F7DF91CF911F910F9104
:10100000FF90EF90DF90CF90BF90AF909F908F9028
:1010100008951092E3041092E2041092E1041092F9
:10102000E0049CCFCF93DF93CDB7DEB72D970FB6FB
:10103000F894DEBF0FBECDBF789484B5826084BDC6
:1010400084B5816084BD85B5826085BD85B58160CC
:1010500085BD80916E00816080936E00109281004A
:101060008091810082608093810080918100816005
:1010700080938100809180008160809380008091C6
:10108000B10084608093B1008091B0008160809352
:10109000B00080917A00846080937A0080917A0019
:1010A000826080937A0080917A00816080937A00D8
:1010B00080917A00806880937A001092C100E0915C
:1010C0000B02F0910C0282E08083E0910702F09124
:1010D00008021082E0910902F0910A028FEC8083ED
:1010E00010921302E0910F02F091100286E08083CB
:1010F000E0910D02F0910E02808180618083E09189
:101100000D02F0910E02808188608083E0910D02D3
:10111000F0910E02808180688083E0910D02F09151
:101120000E0280818F7D808360910601709107019E
:10113000072E000C880B990B0E94240F9B01AC0119
:1011400060E070E080E792E40E947A0E20E030E0F8
:101150004AEF53E40E94B00F0E94EC0E7093050119
:10116000609304018091E4049091E50497FD08C028
:1011700061E00E941B0260E08091E4040E94ED01A6
:1011800081E08093DF046091E6046A3129F12091C7
:10119000E7043091E8046150C9F070E08FEF99E105
:1011A0000E941D10F9014091E2045091E304CF0127
:1011B000821B930B8417950760F44081469FC00102
:1011C000479F900D112490833196EDCF70E060E041
:1011D000E9CF8AE18093E6048BE190E00E948310DE
:1011E0008C0143E050E062E070E00E9457021093EF
:1011F000F2010093F1018BE190E00E9483108C01D9
:101200004AE050E069E070E00E9457021093F60156
:101210000093F5018BE190E00E9483108C0147E080
:1012200050E066E070E00E9457021093FA010093CC
:10123000F9012BE233E0309301012093000180910A
:1012400069008C7F816080936900E89A3093030184
:101250002093020180916900837F846080936900FC
:10126000E99A0E94AC02EEEDF3E020813181232B5C
:1012700009F4EBC3709624E0EE3DF207B0F38FE380
:1012800094E090936C0580936B0590936E0580932A
:101290006D054CE251E060E070E0409355055093DD
:1012A0005605609357057093580590937005809389
:1012B0006F0588EE93E0A0E0B0E08093590590932D
:1012C0005A05A0935B05B0935C052BEC34E030939A
:1012D00047052093460530934905209348054093E0
:1012E0003005509331056093320570933305309388
:1012F0004B0520934A058093340590933505A093C0
:101300003605B09337052DE830E030932205209361
:101310002105309324052093230540930B0550931A
:101320000C0560930D0570930E05309326052093F0
:10133000250580930F0590931005A0931105B09398
:10134000120561E08091FB040E941B0261E0809124
:10135000FB040E94ED0161E08091F4040E941B02F5
:1013600061E08091F4040E94ED018091FC04909171
:10137000FD0490619093FD048093FC0481E08093D0
:1013800000052091FE043091FF0430613093FF048A
:101390002093FE04809301052091F5043091F6041A
:1013A00030613093F6042093F5048093F904209182
:1013B000F7043091F80430613093F8042093F70477
:1013C0008093FA040EED13E0D8018D919C91892B46
:1013D00009F443C00E94AC026B017C01F8018481D6
:1013E0009581A681B781B701A601481B590B6A0BED
:1013F0007B0B80859185A285B385481759076A07BD
:101400007B0758F10190F081E02DD80112968D9163
:101410009C910995882331F0F80184859585892B65
:1014200009F040C3D80111961C921E9213961C928B
:101430001E921297F801148215821682178218964E
:101440001D921D921D921C921B971D961C921E921E
:101450001C971F961C921E921E97005F1F4FB4E0B0
:101460000E3D1B0708F4B0CF0E94AC020EED13E056
:10147000F80180819181892B09F01DC3005F1F4F06
:10148000F4E00E3D1F07A0F30E94AC028CE495E04F
:101490000E943D0387E295E00E943D0382E095E0D3
:1014A0000E943D030091F1011091F201C8010E94D8
:1014B000B902F80103851485258536858091EF01F1
:1014C0009091F00180179107B1F0801B910B409132
:1014D000080150910901840F951F97FD409660E126
:1014E00070E00E94311090930901809308011093DD
:1014F000F0010093EF010091F5011091F601C80190
:101500000E94B902D8011B96CD90DD90ED90FC9021
:101510001E978091F3019091F4018C159D0581F146
:10152000F601E81BF90BBF01660F771F6E0F7F1FD7
:101530008091060190910701680F791F7093070150
:1015400060930601072E000C880B990B0E94240F54
:101550009B01AC0160E070E080E792E40E947A0EAB
:1015600020E030E04AEF53E40E94B00F0E94EC0EFE
:101570007093050160930401D092F401C092F301CD
:101580000091F9011091FA01C8010E94B902D80135
:101590001B96CD90DD90ED90FC901E970091F70189
:1015A0001091F8010C151D0509F455C08091080132
:1015B0009091090125E0289FF001299FF00D112449
:1015C000E856FD4F818192810C191D09080F191FE2
:1015D00080179107E1F180ED91E00E947A048DEC93
:1015E00091E00E947A044801012E000CAA08BB0871
:1015F0004AE0C501B401B7FE0DC06DE28BEF91E08A
:101600000E942E0166277727CB01681979098A097C
:101610009B094AE00E9487048DEC91E00E947A04C5
:101620000038110514F00FE710E080910801909147
:10163000090125E0289FF001299FF00D1124E856AB
:10164000FD4F17FF02C010E000E012830183D0922B
:10165000F801C092F7014091E2045091E30470E078
:1016600060E08091E7049091E8040E94A811E09165
:101670000A01F0910B01FB87EA8720910801309164
:1016800009013D872C87A8E92A2EA2E03A2E10E016
:1016900000E0D10111968D919C916CE070E00E9468
:1016A0003110BCE0B89FF001B99FF00D1124EE5D40
:1016B000FE4F408051806280738084809580A68038
:1016C000B780C084D184E284F384F10180812C85C9
:1016D0003D850217130709F412C2AA85BB850A17B4
:1016E0001B0709F002C2882309F410C2A30192016A
:1016F00060E070E085EA93E40E940D0E20E030E0A7
:1017000040E05FE30E94B00F9B01AC01C301B20156
:101710000E940E0E2B013C01A501940160E070E0D7
:1017200080E89FE30E940D0E20E030E040E05FE3A0
:101730000E94B00F9B01AC01C501B4010E940E0EC6
:101740004B015C01A70196016AE979E989E19FE310
:101750000E940D0E20E030E040E05FE30E94B00FF9
:101760009B01AC01C701B6010E940E0E6B017C010A
:1017700020E030E044EB53E4C301B2010E947A0E52
:1017800020E03FEF4FE757E40E94B00F0E94F30EB6
:101790009B01AAEFB5E00E946710DC01CB019058D5
:1017A000AF4FBF4FCD01BB2797FDB095AB2F9C012D
:1017B0008E3FE1E09E0708F0BEC1582E8F3F910595
:1017C00008F4DFC14EEF742E781A612C55245A9418
:1017D0008091E0049091E1040817190708F09CC07B
:1017E00020E030E04FE753E4C501B4010E94B00FA0
:1017F0000E94F30EB62E20E030E04FE753E4C7011D
:10180000B6010E94B00F0E94F30EE62FF0E0319671
:10181000EB2CF12C2FEFE21AF20AB0944B2D50E092
:101820005E9C90015F9C300D1124232F3327240FE1
:10183000351FDF010E9476104B015C018824AA2429
:10184000BB246E9C90016F9C300D1124232F3327F5
:10185000240F351F0E947610672F782F892F992724
:10186000862A972AA82AB92A7E9C90017F9C300D4F
:101870001124232F3327240F351F0E947610982F11
:10188000872F762F6627662777279927862A972A14
:10189000A82AB92AA50166277727FF24EB2CDA2C82
:1018A000C92C9C2D882DE091E604EE2391F02E2F7B
:1018B00030E0249FC001259F900D349F900D11248E
:1018C000492FEC9D600111249D2DE89D40011124BC
:1018D000892DE091EC046091E7047091E804209177
:1018E000E904E21355C19801220F331F200F311F65
:1018F000260F371FE091E904E20FF32FF11D40831B
:10190000E091EA04E20FF32FF11D90839091EB0434
:10191000290F311DD9018C930F5F1F4FB5E02B0E9E
:10192000311C0031110509F0B4CE8091E70490918B
:10193000E804892B09F47CC00E9487020091ED0421
:101940001091EE042091EF043091F00460177107BC
:101950008207930740F46093ED047093EE04809344
:10196000EF049093F0040091ED041091EE042091A7
:10197000EF043091F004601B710B820B930B6C32FF
:10198000714081059105C0F2F8948091E204909134
:10199000E3049A838983A091E704B091E804FD01F0
:1019A00031968C9189879091DE04A091F104B091D9
:1019B000F2048091F304992309F4F6C09C91982BCA
:1019C00098879C91809589238F838F818C8388E071
:1019D0008B8358856F8149853B812C8189819A81D0
:1019E0005C9347FD252F3A952C93262F39F0441F01
:1019F00000C000006C93000000C0F2CF38E04191BD
:101A00006C930000019761F7B093F204A093F10486
:101A100049873B832C839A83898378940E94870229
:101A20006093ED047093EE048093EF049093F004C0
:101A300080E090E0892B09F4C5CC0E94F80088234F
:101A400009F4C0CC0E940000BDCC2091DC03309191
:101A5000DD032F5F3F4F3093DD032093DC03232B07
:101A600031F421E030E03093DD032093DC0320915A
:101A7000DC033091DD033787268722E534E03183AC
:101A8000208313821282648375838683978381E027
:101A900090E0A0E0B0E080879187A287B387958728
:101AA0008487EDCB21E030E035872487C482D5825E
:101AB000E682F782D2CC0E94AC02D8011496CD9077
:101AC000DD90ED90FC9017976C197D098E099F09A8
:101AD0001896CD90DD90ED90FC901B976C157D05D0
:101AE0008E059F0508F4CACCCFCC811141CEC12C04
:101AF000D12C7601460157012601370139CEC12C80
:101B0000D12CF0E8EF2EFFE3FF2E32CE6AE9C62E8D
:101B100069E9D62E69E1E62E6FE3F62E812C912C31
:101B200070E8A72E7FE3B72E412C512CE5EA6E2EEC
:101B3000E3E47E2E1DCE8C3FF3E09F0788F48D3FBB
:101B400042E0940738F432E0632E680E55245A942C
:101B5000712C3ECE2CEF522E581A66246A94F8CF80
:101B60008A3FE5E09E0789F0BAEF6B2E681A2B3F9B
:101B7000344060F494E0792E780E66246A94512CF7
:101B800027CE612C77247A9423CE612C512CFACF66
:101B90009801220F331F220F331F260F371FE20F2A
:101BA000F32FF11D1082A6CE9C91982B98879C91C3
:101BB000809589238F838F818E8388E08D835885DC
:101BC0006F8149853D812E8189819A815C9347FD92
:101BD000252F00C000C02C9300C000C000C000C072
:101BE00000C06C930000262F3A9541F0441F00007E
:101BF00000C000C000C000C000C0E8CF38E0419184
:101C000000C06C9300C0019709F7B093F204A09351
:101C1000F10449873D832E83FECE5058BB27AA2767
:101C20000E94250E0C94760F0E94680F38F00E94D7
:101C30006F0F20F039F49F3F19F426F40C94650FD0
:101C40000EF4E095E7FB0C945F0FE92F0E94870FDD
:101C500058F3BA17620773078407950720F079F4E1
:101C6000A6F50C94A90F0EF4E0950B2EBA2FA02D1B
:101C70000B01B90190010C01CA01A0011124FF2739
:101C8000591B99F0593F50F4503E68F11A16F04034
:101C9000A22F232F342F4427585FF3CF4695379533
:101CA0002795A795F0405395C9F77EF41F16BA0BF8
:101CB000620B730B840BBAF09150A1F0FF0FBB1FA6
:101CC000661F771F881FC2F70EC0BA0F621F731FEF
:101CD000841F48F4879577956795B795F7959E3F4C
:101CE00008F0B0CF9395880F08F09927EE0F9795DD
:101CF000879508950E948E0E0C94760F0E946F0FA8
:101D000058F00E94680F40F029F45F3F29F00C94CE
:101D10005F0F51110C94AA0F0C94650F0E94870F4E
:101D200068F39923B1F3552391F3951B550BBB270A
:101D3000AA2762177307840738F09F5F5F4F220F4F
:101D4000331F441FAA1FA9F335D00E2E3AF0E0E846
:101D500032D091505040E695001CCAF72BD0FE2F90
:101D600029D0660F771F881FBB1F26173707480724
:101D7000AB07B0E809F0BB0B802DBF01FF279358DC
:101D80005F4F3AF09E3F510578F00C945F0F0C9432
:101D9000AA0F5F3FE4F3983ED4F386957795679555
:101DA000B795F7959F5FC9F7880F911D9695879511
:101DB00097F90895E1E0660F771F881FBB1F621730
:101DC00073078407BA0720F0621B730B840BBA0BEE
:101DD000EE1F88F7E09508950E94F30E6894B11104
:101DE0000C94AA0F08950E948F0F88F09F5798F0C7
:101DF000B92F9927B751B0F0E1F0660F771F881F10
:101E0000991F1AF0BA95C9F714C0B13091F00E9429
:101E1000A90FB1E008950C94A90F672F782F882798
:101E2000B85F39F0B93FCCF3869577956795B39550
:101E3000D9F73EF490958095709561957F4F8F4FBF
:101E40009F4F0895E89409C097FB3EF490958095C4
:101E5000709561957F4F8F4F9F4F9923A9F0F92F70
:101E600096E9BB279395F695879577956795B795EE
:101E7000F111F8CFFAF4BB0F11F460FF1BC06F5FD4
:101E80007F4F8F4F9F4F16C0882311F096E911C0E6
:101E9000772321F09EE8872F762F05C0662371F007
:101EA00096E8862F70E060E02AF09A95660F771F1B
:101EB000881FDAF7880F9695879597F9089597F90F
:101EC0009F6780E870E060E008959FEF80EC0895E0
:101ED00000240A9416161706180609060895002409
:101EE0000A9412161306140605060895092E039483
:101EF000000C11F4882352F0BB0F40F4BF2B11F4F7
:101F000060FF04C06F5F7F4F8F4F9F4F089557FD55
:101F10009058440F551F59F05F3F71F04795880F57
:101F200097FB991F61F09F3F79F0879508951216EE
:101F300013061406551FF2CF4695F1DF08C016169A
:101F400017061806991FF1CF86957105610508944B
:101F50000895E894BB2766277727CB0197F9089562
:101F60000E94C30F0C94760F0E94680F38F00E94F5
:101F70006F0F20F0952311F00C945F0F0C94650FF8
:101F800011240C94AA0F0E94870F70F3959FC1F340
:101F9000950F50E0551F629FF001729FBB27F00D17
:101FA000B11D639FAA27F00DB11DAA1F649F66276C
:101FB000B00DA11D661F829F2227B00DA11D621FBB
:101FC000739FB00DA11D621F839FA00D611D221F75
:101FD000749F3327A00D611D231F849F600D211D59
:101FE000822F762F6A2F11249F5750409AF0F1F0DC
:101FF00088234AF0EE0FFF1FBB1F661F771F881F45
:1020000091505040A9F79E3F510580F00C945F0F0E
:102010000C94AA0F5F3FE4F3983ED4F3869577952E
:102020006795B795F795E7959F5FC1F7FE2B880FEA
:10203000911D9695879597F90895AA1BBB1B51E1B1
:1020400007C0AA1FBB1FA617B70710F0A61BB70B28
:10205000881F991F5A95A9F780959095BC01CD01CD
:10206000089597FB072E16F4009407D077FD09D04A
:102070000E941D1007FC05D03EF4909581959F4F5E
:102080000895709561957F4F0895A1E21A2EAA1BBD
:10209000BB1BFD010DC0AA1FBB1FEE1FFF1FA21718
:1020A000B307E407F50720F0A21BB30BE40BF50B15
:1020B000661F771F881F991F1A9469F7609570959E
:1020C000809590959B01AC01BD01CF010895A29F21
:1020D000B001B39FC001A39F700D811D1124911DFC
:1020E000B29F700D811D1124911D08950E946710EB
:1020F000B7FF0895821B930B0895EE0FFF1F059005
:10210000F491E02D09940F931F93CF93DF938230C6
:10211000910510F482E090E0E0917305F091740570
:1021200030E020E0B0E0A0E0309799F421153105CF
:1021300009F44AC0281B390B24303105D8F58A81AF
:102140009B816115710589F1FB0193838283FE01F7
:1021500011C0408151810281138148175907E0F075
:102160004817590799F4109761F012960C9312973B
:1021700013961C933296CF01DF91CF911F910F914F
:1021800008950093730510937405F4CF211531055C
:1021900051F04217530738F0A901DB019A01BD0144
:1021A000DF01F801C1CFEF01F9CF9093740580935F
:1021B0007305CDCFFE01E20FF31F8193919322505F
:1021C000310939832883D7CF209171053091720569
:1021D000232B41F420910E0130910F0130937205B1
:1021E0002093710520910C0130910D0121153105CD
:1021F00041F42DB73EB74091100150911101241BBD
:10220000350BE0917105F0917205E217F307A0F428
:102210002E1B3F0B2817390778F0AC014E5F5F4F3C
:102220002417350748F04E0F5F1F509372054093F7
:102230007105819391939FCFF0E0E0E09CCFCF9325
:10224000DF930097E9F0FC01329713821282A0918C
:102250007305B0917405ED0130E020E01097A1F412
:1022600020813181820F931F209171053091720579
:102270002817390709F061C0F0937205E0937105E2
:10228000DF91CF910895EA01CE17DF07E8F54A8183
:102290005B819E0141155105B1F7E901FB83EA839A
:1022A00049915991C40FD51FEC17FD0761F4808146
:1022B00091810296840F951FE90199838883828119
:1022C00093819B838A83F0E0E0E012968D919C914C
:1022D00013970097B9F52D913C911197CD01029676
:1022E000820F931F209171053091720528173907CD
:1022F00039F6309751F51092740510927305B0932A
:102300007205A0937105BCCFD383C28340815181F4
:10231000840F951FC817D90761F44E5F5F4F8881FE
:102320009981480F591F518340838A819B819383F0
:1023300082832115310509F0B0CFF0937405E09345
:1023400073059ECFFD01DC01C0CF13821282D7CF6F
:10235000DC0101C06D9341505040E0F7089510E05A
:10236000C2E6D0E004C0FE010E947D102196C33673
:10237000D107C9F7F894FFCFB802B802FA00780085
:102380000100010000007505800000FF0100010050
:1023900000FFFF0000010001FF000000000000003E
:1023A000803F9A99193F0000F0410000803F9A99C0
:1023B000193F000070420000803F9A99193F0000C9
:1023C000B4420000803F9A99193F0000F04200009B
:1023D000803F9A99193F000016430000803F9A9968
:1023E000193F000034430000803F9A99193F0000D4
:1023F00052430000803F9A99193F0000704300004B
:10240000803F9A99193F000087430000803F9A99C6
:10241000193F000096430000803F9A99193F000041
:10242000A5430000803F9A99193F000000002E014B
:102430008E00BB007B01EC00CA00DE00506C6179AD
:10244000696E673A000D0A004E6F7465206368611B
:0A2450006E67656420746F3A0000A7
:107E0000112484B714BE81FFF0D085E080938100F7
:107E100082E08093C00088E18093C10086E0809377
:107E2000C20080E18093C4008EE0C9D0259A86E02C
:107E300020E33CEF91E0309385002093840096BBD3
:107E4000B09BFECF1D9AA8958150A9F7CC24DD24C4
:107E500088248394B5E0AB2EA1E19A2EF3E0BF2EE7
:107E6000A2D0813461F49FD0082FAFD0023811F036
:107E7000013811F484E001C083E08DD089C08234E0
:107E800011F484E103C0853419F485E0A6D080C0E4
:107E9000853579F488D0E82EFF2485D0082F10E0AE
:107EA000102F00270E291F29000F111F8ED06801E7
:107EB0006FC0863521F484E090D080E0DECF843638
:107EC00009F040C070D06FD0082F6DD080E0C81688
:107ED00080E7D80618F4F601B7BEE895C0E0D1E017
:107EE00062D089930C17E1F7F0E0CF16F0E7DF06D8
:107EF00018F0F601B7BEE89568D007B600FCFDCFD4
:107F0000A601A0E0B1E02C9130E011968C91119780
:107F100090E0982F8827822B932B1296FA010C0160
:107F200087BEE89511244E5F5F4FF1E0A038BF0790
:107F300051F7F601A7BEE89507B600FCFDCF97BE46
:107F4000E89526C08437B1F42ED02DD0F82E2BD052
:107F50003CD0F601EF2C8F010F5F1F4F84911BD097
:107F6000EA94F801C1F70894C11CD11CFA94CF0C13
:107F7000D11C0EC0853739F428D08EE10CD085E9AC
:107F80000AD08FE07ACF813511F488E018D01DD067
:107F900080E101D065CF982F8091C00085FFFCCF94
:107FA0009093C60008958091C00087FFFCCF809118
:107FB000C00084FD01C0A8958091C6000895E0E648
:107FC000F0E098E1908380830895EDDF803219F02E
:107FD00088E0F5DFFFCF84E1DECF1F93182FE3DFCA
:107FE0001150E9F7F2DF1F91089580E0E8DFEE27F6
:047FF000FF270994CA
:027FFE00040479
:00000001FF
