:100000000C9458000C9480000C9480000C94800098
:100010000C9480000C9480000C9480000C94800060
:100020000C9480000C9480000C9480000C94800050
:100030000C9480000C9480000C9480000C94800040
:100040000C94DC030C9480000C94AA030C9484039D
:100050000C9480000C9480000C9480000C94800020
:100060000C9426040C948000000000002500280059
:100070002B00040404040404040402020202020229
:10008000030303030303010204081020408001025C
:1000900004081020010204081020000000080002DB
:1000A00001000003040700000000000000004505F7
:1000B00011241FBECFEFD8E0DEBFCDBF11E0A0E01E
:1000C000B1E0E4E9FCE002C005900D92A035B10773
:1000D000D9F722E0A0E5B1E001C01D92AC39B2072A
:1000E000E1F710E0C8E5D0E004C02197FE010E94CE
:1000F0004206C735D107C9F70E947E050C94480611
:100100000C9400000895CF93DF93AC01E091F101CE
:10011000F091F2013097F1F09091F0018091EF01B0
:100120009817C0F090E0292F30E02617370754F4D5
:10013000D901A05BBE4F240F351FE90128812C9304
:100140009F5FF1CF1092F0016093EF01CB01DF913F
:10015000CF910994DF91CF910895AF92BF92CF9242
:10016000DF92EF92FF920F931F93CF93DF936C0177
:100170007B018B01040F151FEB015E01AE18BF0858
:10018000C017D10759F06991D601ED91FC9101900A
:10019000F081E02DC6010995892B79F7C501DF9122
:1001A000CF911F910F91FF90EF90DF90CF90BF9074
:1001B000AF900895FC01538D448D252F30E0842F9E
:1001C00090E0821B930B541710F0CF96089501977F
:1001D0000895FC01918D828D981761F0A28DAE0F6C
:1001E000BF2FB11D5D968C91928D9F5F9F73928FF3
:1001F00090E008958FEF9FEF0895FC01918D828D1F
:10020000981731F0828DE80FF11D858D90E00895EB
:100210008FEF9FEF0895FC01918D228D892F90E043
:10022000805C9F4F821B91098F739927089583EFFC
:1002300091E00E940B0121E0892B09F420E0822F3C
:10024000089580E090E0892B29F00E941701811128
:100250000C9400000895FC01A48DA80FB92FB11DC6
:10026000A35ABF4F2C91848D90E001968F739927EC
:10027000848FA689B7892C93A089B1898C918370CA
:1002800080648C93938D848D981306C00288F389C3
:10029000E02D80818F7D80830895EF92FF920F93F0
:1002A0001F93CF93DF93EC0181E0888F9B8D8C8D22
:1002B00098131AC0E889F989808185FF15C09FB716
:1002C000F894EE89FF896083E889F98980818370D9
:1002D000806480839FBF81E090E0DF91CF911F9188
:1002E0000F91FF90EF900895F62E0B8D10E00F5FA9
:1002F0001F4F0F731127E02E8C8D8E110CC00FB67F
:1003000007FCFACFE889F989808185FFF5CFCE0116
:100310000E942B01F1CFEB8DEC0FFD2FF11DE35A65
:10032000FF4FF0829FB7F8940B8FEA89FB89808199
:100330008062CFCFCF93DF93EC01888D8823B9F013
:10034000AA89BB89E889F9898C9185FD03C08081E0
:1003500086FD0DC00FB607FCF7CF8C9185FFF2CF5D
:10036000808185FFEDCFCE010E942B01E9CFDF9187
:10037000CF91089590E0FC01E656FF4F2491FC01D7
:10038000EA57FF4F3491FC01EE58FF4FE491EE2302
:10039000C9F0222339F0233001F1A8F4213019F1FA
:1003A000223029F1F0E0EE0FFF1FE859FF4FA59131
:1003B000B4918FB7F894EC91611126C030953E232B
:1003C0003C938FBF08952730A9F02830C9F024301E
:1003D00049F7809180008F7D03C0809180008F77E6
:1003E00080938000DFCF84B58F7784BDDBCF84B569
:1003F0008F7DFBCF8091B0008F778093B000D2CFFC
:100400008091B0008F7DF9CF3E2BDACF20919601FD
:10041000260F3327331F21323105ECF42091BA0126
:10042000FC0190E080E0243069F082E00895A09122
:1004300096012191AC014A585E4FA40FB52FB11D12
:100440002C930196861798F380919601680F60931C
:10045000960180E0089581E008951092BA0181E04C
:100460008093BC011092BB0161E082E10E94BA015D
:1004700061E083E10E94BA01E9EBF0E080818E7FC8
:10048000808380818D7F808388E48093B80085E4B9
:100490008093BC0008950895E091F0018091EF01F0
:1004A000E81730F4F0E0E05BFE4F808190E00895C3
:1004B0008FEF9FEF08959091F0018091EF012FEF62
:1004C0003FEF981748F4E92FF0E0E05BFE4F208102
:1004D00030E09F5F9093F001C90108958091EF0192
:1004E0009091F001891B990B0895CF93DF93CB0175
:1004F000EA01642F0E940602CE01DF91CF91089598
:10050000CF93DF931F92CDB7DEB7698361E0CE0151
:1005100001960E94060281E090E00F90DF91CF915A
:10052000089590E080E00895FC0101900020E9F733
:100530003197AF01481B590BBC0183EF91E00C943C
:10054000AD00CF93DF9385ED8093BC008091720165
:1005500090917301A0917401B09175010796A11D4E
:10056000B11D23E0B695A795979587952A95D1F764
:100570002091BC0024FD03C01092BA0136C0409106
:100580007201509173016091740170917501452B56
:10059000462B472B69F30097A105B10541F025E3F0
:1005A0002A95F1F700000197A109B109E1CF8091E7
:1005B000710191E0909370018823B9F0C091B80067
:1005C000D091BA008091BC008A7B8093BC0060E02F
:1005D00082E10E94BA0160E083E10E94BA010E94B8
:1005E0002D02D093BA00C093B800DF91CF91089547
:1005F0008F929F92AF92BF92CF92DF92EF92FF9233
:10060000CF93DF93CDB7DEB7A1970FB6F894DEBFD7
:100610000FBECDBF85E391E00E94940280E992E095
:100620000E945B02019709F46CC084E291E00E9491
:10063000940280E992E00E945B026C01990FEE083F
:10064000FF08F7FE43C06DE283EF91E00E944D0189
:1006500022273327A9012C193D094E095F0919A248
:10066000CE0181967C019AE0892E912CA12CB12C8F
:10067000CA01B901A50194010E942006605DF7013D
:1006800062937F01211531054105510589F7E11478
:10069000F10419F0C7010E9494028CE491E00E94D9
:1006A000940280E992E00E945B02A1960FB6F89452
:1006B000DEBF0FBECDBFDF91CF91FF90EF90DF90F7
:1006C000CF90BF90AF909F908F900895A701960113
:1006D00019A2CE0181967C018AE0882E912CA12C52
:1006E000B12CCA01B901A50194010E942006605DE8
:1006F000F70162937F01211531054105510589F705
:10070000C6CF8CE291E093CF1F920F920FB60F925B
:1007100011242F933F934F935F936F937F938F9306
:100720009F93AF93BF93EF93FF9383EF91E00E946A
:100730002B01FF91EF91BF91AF919F918F917F918D
:100740006F915F914F913F912F910F900FBE0F903E
:100750001F9018951F920F920FB60F9211242F938E
:100760008F939F93EF93FF93E0910302F091040224
:100770008081E0910902F0910A0282FD1BC0908104
:1007800080910C028F5F8F7320910D02821741F0D0
:10079000E0910C02F0E0ED50FE4F958F80930C023B
:1007A000FF91EF919F918F912F910F900FBE0F901E
:1007B0001F9018958081F4CF1F920F920FB60F9261
:1007C00011242F933F938F939F93AF93BF93809167
:1007D000E5019091E601A091E701B091E801309127
:1007E000E40123E0230F2D3758F50196A11DB11D1B
:1007F0002093E4018093E5019093E601A093E70143
:10080000B093E8018091E0019091E101A091E201B3
:10081000B091E3010196A11DB11D8093E001909379
:10082000E101A093E201B093E301BF91AF919F91E9
:100830008F913F912F910F900FBE0F901F901895A1
:1008400026E8230F0296A11DB11DD2CF1F920F9251
:100850000FB60F9211242F933F934F935F936F9393
:100860007F938F939F93AF93BF93EF93FF93809169
:10087000B900887F803609F44AC0F0F5883209F45F
:10088000A7C018F5803109F49BC0B8F4882309F497
:10089000F9C0883009F494C0FF91EF91BF91AF91F6
:1008A0009F918F917F916F915F914F913F912F9188
:1008B0000F900FBE0F901F901895883109F488C0D3
:1008C000803251F78093B90114C0803409F49DC07F
:1008D00040F48033B9F38833F9F68093B90185EC9D
:1008E000B0C0803509F485C0883509F496C08834D5
:1008F00099F60E94A102D0CF883909F48CC038F54E
:10090000883729F050F4883611F0803729F683E0D3
:100910008093BA011092B80157C0883809F47BC09F
:10092000803919F0803809F0B7CF8091B801803252
:1009300008F071C0E091B80181E08E0F8093B8019A
:100940008091BB00F0E0E856FE4F80833DC0803BC5
:1009500039F0E0F4803A09F479C0883A09F09CCF84
:1009600084E08093BA011092970110929601E09171
:10097000EB01F091EC0109958091960181110FC076
:1009800081E0809396011092760109C0803C09F4C1
:10099000A6CF883C09F4A3CF883B09F07DCFE09136
:1009A000970181E08E0F80939701F0E0EA58FE4FA7
:1009B00080818093BB00909197018091960129C01E
:1009C0008091DF018093BB0085EC8093BC0064CFF5
:1009D0009091DE018091DD01981758F5E091DE01DC
:1009E00081E08E0F8093DE01F0E0E354FE4F8081C2
:1009F000E9CFE091DE0181E08E0F8093DE018091EE
:100A0000BB00F0E0E354FE4F80839091DE018091C3
:100A1000DD019817C8F285E8D8CFE091DE0181E0CA
:100A20008E0F8093DE018091BB00F0E0E354FE4F17
:100A300080838091BC0181115CCF81E08093BB01F8
:100A400084EA8093BC001092BA0126CF85EC809393
:100A5000BC001092BA018091B801803230F4E0916C
:100A6000B801F0E0E856FE4F10826091B80170E0E6
:100A7000E091E901F091EA0188E991E0099510928D
:100A8000B8010ACF1092B90134CFE3EFF1E013823D
:100A9000128288EE93E0A0E0B0E084839583A68381
:100AA000B78324E031E03183208325EC30E03587C3
:100AB000248724EC30E03787268720EC30E0318B28
:100AC000208B21EC30E0338B228B22EC30E0358B15
:100AD000248B26EC30E0378B268B118E128E138EF2
:100AE000148EE0E9F2E01382128284839583A68358
:100AF000B78386E191E0918380830895789484B5EB
:100B0000826084BD84B5816084BD85B5826085BD09
:100B100085B5816085BD80916E00816080936E0097
:100B20001092810080918100826080938100809189
:100B3000810081608093810080918000816080933A
:100B400080008091B10084608093B1008091B000FA
:100B500081608093B00080917A00846080937A00F5
:100B600080917A00826080937A0080917A0081601F
:100B700080937A0080917A00806880937A00109246
:100B8000C100E0910302F091040282E08083E091D1
:100B9000FF01F09100021082E0910102F091020247
:100BA0008FEC808310920B02E0910702F091080213
:100BB00086E08083E0910502F091060280818061E9
:100BC0008083E0910502F091060280818860808335
:100BD000E0910502F0910602808180688083E091B7
:100BE0000502F091060280818F7D80831092F001D2
:100BF0001092EF011092EE011092ED010E942D0271
:100C000082E890E09093EC018093EB0183E890E020
:100C10009093EA018093E90180E18093BA0088EF24
:100C200092E09093F2018093F101C0E0D0E0209730
:100C3000F1F30E9417018823D1F30E940000F7CF3F
:100C4000A1E21A2EAA1BBB1BFD010DC0AA1FBB1FD0
:100C5000EE1FFF1FA217B307E407F50720F0A21B42
:100C6000B30BE40BF50B661F771F881F991F1A94AF
:100C700069F760957095809590959B01AC01BD01D9
:100C8000CF010895EE0FFF1F0590F491E02D099418
:040C9000F894FFCF06
:100C9400000000004D01AD00DA009A010B01E900EB
:100CA400FD00000000008002750291024B026E02FA
:100CB4005B024C02627574746F6E2000656E636F24
:100CC40064657220007265636965766564206D658C
:100CD40073736167652066726F6D20000D0A0000F2
:00000001FF
