:100000000C9463000C943D0B0C94160B0C948B0019
:100010000C948B000C948B000C948B000C948B0034
:100020000C948B000C948B000C948B000C948B0024
:100030000C948B000C948B000C948B000C948B0014
:100040000C94CC0A0C948B000C949A0A0C94740AAD
:100050000C948B000C948B000C948B000C948B00F4
:100060000C948B000C948B000000000024002700EF
:100070002A000000000023002600290000000008DC
:10008000000201000003040700000000000000005F
:10009000010204081020408001020408102001021F
:1000A0000408102000000000250028002B00040494
:1000B0000404040404040202020202020303030310
:1000C00003032D0C780B11241FBECFEFD8E0DEBF49
:1000D000CDBF12E0A0E0B1E0ECE9FAE202C0059089
:1000E0000D92A034B107D9F725E0A0E4B2E001C039
:1000F0001D92A83FB207E1F710E0C2E6D0E004C0CD
:100100002197FE010E940414C136D107C9F70E944D
:10011000BC0D0C9441150C940000CF93DF93EC01BF
:1001200068856A3101F129853A856150B9F070E03E
:100130008FEF99E10E949C13F9014C815D81CF0101
:10014000821B930B8417950760F44081469FC00182
:10015000479F900D112490833196EFCF70E060E0BF
:10016000EBCF8AE18887DF91CF910895AF92BF925C
:10017000CF92DF92EF92FF920F931F93CF93DF9373
:100180006C017B018B01040F151FEB015E01AE18A2
:10019000BF08C017D10759F06991D601ED91FC91C4
:1001A0000190F081E02DC6010995892B79F7C501F1
:1001B000DF91CF911F910F91FF90EF90DF90CF9043
:1001C000BF90AF900895FC01538D448D252F30E0F2
:1001D000842F90E0821B930B541710F0CF96089554
:1001E00001970895FC01918D828D981761F0A28D81
:1001F000AE0FBF2FB11D5D968C91928D9F5F9F7347
:10020000928F90E008958FEF9FEF0895FC01918DFC
:10021000828D981731F0828DE80FF11D858D90E069
:1002200008958FEF9FEF0895FC01918D228D892F06
:1002300090E0805C9F4F821B91098F7399270895EE
:1002400088E692E00E94140121E0892B09F420E065
:10025000822F089580E090E0892B29F00E942001F0
:1002600081110C9400000895FC01A48DA80FB92FF2
:10027000B11DA35ABF4F2C91848D90E001968F73CE
:100280009927848FA689B7892C93A089B1898C91ED
:10029000837080648C93938D848D981306C002883C
:1002A000F389E02D80818F7D80830895EF92FF9206
:1002B0000F931F93CF93DF93EC0181E0888F9B8D89
:1002C0008C8D98131AC0E889F989808185FF15C043
:1002D0009FB7F894EE89FF896083E889F989808166
:1002E0008370806480839FBF81E090E0DF91CF9135
:1002F0001F910F91FF90EF900895F62E0B8D10E057
:100300000F5F1F4F0F731127E02E8C8D8E110CC0C5
:100310000FB607FCFACFE889F989808185FFF5CF10
:10032000CE010E943401F1CFEB8DEC0FFD2FF11DBA
:10033000E35AFF4FF0829FB7F8940B8FEA89FB894D
:1003400080818062CFCFCF93DF93EC01888D8823AB
:10035000B9F0AA89BB89E889F9898C9185FD03C028
:10036000808186FD0DC00FB607FCF7CF8C9185FF0D
:10037000F2CF808185FFEDCFCE010E943401E9CF1D
:10038000DF91CF910895833081F028F4813099F086
:100390008230A9F008958730A9F08830C9F0843000
:1003A000B1F4809180008F7D03C0809180008F77B1
:1003B00080938000089584B58F7784BD089584B5B7
:1003C0008F7DFBCF8091B0008F778093B000089530
:1003D0008091B0008F7DF9CFCF93DF93282F30E04D
:1003E000F901E458FF4F8491F901E057FF4FD49190
:1003F000F901E255FF4FC491CC23A1F081110E9475
:10040000C301EC2FF0E0EE0FFF1FEE58FF4FA59158
:10041000B491EC91ED2381E090E009F480E0DF916C
:10042000CF91089580E090E0FACF1F93CF93DF93B0
:10043000282F30E0F901E458FF4F8491F901E0578B
:10044000FF4FD491F901E255FF4FC491CC23A9F09D
:10045000162F81110E94C301EC2FF0E0EE0FFF1F59
:10046000EC55FF4FA591B4918FB7F894EC91111111
:1004700008C0D095DE23DC938FBFDF91CF911F9111
:100480000895DE2BF8CFCF93DF9390E0FC01E05787
:10049000FF4F249182559F4FFC0184918823C9F01E
:1004A00090E0880F991FFC01E859FF4FA591B49186
:1004B000FC01EC55FF4FC591D49161110DC09FB760
:1004C000F8948C91209582238C938881282328830B
:1004D0009FBFDF91CF910895623051F49FB7F89498
:1004E0003C91822F809583238C93E8812E2BEFCF34
:1004F0008FB7F894EC912E2B2C938FBFEACF1F93DC
:10050000CF93DF93EC01862F142F688379834A837E
:100510005B8321E030E03D832C8362E00E94430254
:1005200062E0812F0E94430288810E94EC01182F13
:100530008A810E94EC01880F991F812B8E831F8274
:10054000188619861A861B861C861D861E861F869F
:10055000188A198A1A8ADF91CF911F9108953FB79F
:10056000F8948091490290914A02A0914B02B09177
:100570004C0226B5A89B05C02F3F19F00196A11D7E
:10058000B11D3FBFBA2FA92F982F8827BC01CD01DD
:10059000620F711D811D911D42E0660F771F881F3C
:1005A000991F4A95D1F708952FB7F89460914502A5
:1005B0007091460280914702909148022FBF0895A2
:1005C00008950F931F93CF93DF93EC0188810E94CE
:1005D000EC01182F8A810E94EC01880F991F812B52
:1005E0009E81981709F44DC0EE810F8118852985E9
:1005F0003A8594E0E902F0011124482F082E000CFE
:10060000550BE42BF52BEC52FE4F9081492F990F9F
:10061000550B660B770B400F511F621F731F4F83E3
:10062000588769877A878E832C813D8122303105F6
:1006300031F12330310551F12130310511F583308D
:1006400001F58F819885A985BA8532E0B595A79582
:10065000979587953A95D1F78B879C87AD87BE870D
:100660008B899C89AD89BE898F8B988FA98FBA8F12
:100670000E94D4026B8B7C8B8D8B9E8B02C0882357
:1006800001F3DF91CF911F910F910895882311F00D
:100690008330B9F78F819885A985BA85B595A795D7
:1006A00097958795D9CF80915802909159020C94D3
:1006B000E10280915C0290915D020C94E1028091D4
:1006C0006002909161020C94E1020C945F03CF925E
:1006D000DF92EF92FF920F931F93CF93DF93FC0172
:1006E00021813281232BC1F5EC010E94D4020C81BF
:1006F0001D812E813F816B017C01C01AD10AE20A63
:10070000F30A2885022F10E030E020E0C016D10661
:10071000E206F30608F16C837D838E839F838881D4
:100720000E94EC014B812B893C893A8B298B48171D
:100730001906D9F481E090E09C8B8B8B0E94D40247
:100740006B017C0189899A89892B91F48B899C8919
:10075000019771F481E08E8FDF91CF911F910F91FE
:10076000FF90EF90DF90CF9008951C8A1B8AE6CF10
:100770008D898823A1F189A19AA1892B99F08E896D
:100780009F89A88DB98DB701A601481B590B6A0B2B
:100790007B0B89859A85AB85BC8584179507A60751
:1007A000B707E8F48BA19CA1892B61F08A8D9B8D02
:1007B000AC8DBD8D892B8A2B8B2B21F08B899C894D
:1007C000019769F0EF8DF8A1309721F070E060E0BB
:1007D000CE0109951D8A1E8A1F8A188E198E898955
:1007E0009A89019709F0B8CF8B899C89813091054E
:1007F00009F06CC08E8D8823E1F08D898F5F8D8B21
:100800008E899F89A88DB98D892B8A2B8B2B21F4FA
:10081000CE8ADF8AE88EF98E8A8D9B8DAC8DBD8D58
:10082000892B8A2B8B2B21F4CA8EDB8EEC8EFD8ECE
:100830001E8EEBA1FCA1309721F18D89882309F14F
:100840008A8D9B8DAC8DBD8DB701A601481B590BC0
:100850006A0B7B0B8D859E85AF85B8894817590734
:100860006A077B0770F062E070E0CE0109951D8A8F
:100870001E8A1F8A188E198E1A8E1B8E1C8E1D8E34
:100880006BCFE9A1FAA1309709F466CF8D89823048
:1008900008F462CF8E899F89A88DB98DC81AD90AAC
:1008A000EA0AFB0A89859A85AB85BC858C159D056E
:1008B000AE05BF0508F450CF61E070E0CE010995A8
:1008C0001D8A1E8A1F8A188E198E46CF892BA1F287
:1008D00043CF8F929F92AF92BF92CF92DF92EF92CF
:1008E000FF921F93CF93DF93FC014A01AA24BB24FC
:1008F000C82DC32ED42EE52EFF241C2DD22F80858B
:10090000882361F0889E40011124C92D8C9D6001CF
:1009100011241D2D829FD0011124DB2FA685E18497
:10092000F2849385A91322C0CB01880F991F680F09
:10093000791F6E0D7F1DA385A60FB72FB11DCC9318
:10094000A485A60FB72FB11D1C938585680F711D57
:10095000FB01D083DF91CF911F91FF90EF90DF904B
:10096000CF90BF90AF909F908F900895660F771FA4
:10097000660F771F6E0D7F1D252F332744275527C0
:10098000882349F090E0829F7001839FF00C929F32
:10099000F00C11242F2DA60FB72FB11D2C93CBCF08
:1009A000CF92DF92EF92FF920F931F93CF93DF933B
:1009B000CDB7DEB729970FB6F894DEBF0FBECDBF17
:1009C0008C010E94AF02D8011F96CD90DD90ED9072
:1009D000FC9052976C157D058E059F0528F4F80153
:1009E0006787708B818B928BD8011F96CD90DD909D
:1009F000ED90FC9052976C197D098E099F096C321D
:100A0000714081059105E8F2F894F801848195819F
:100A10009A8389830184F285E02D7F012FEFE21A0A
:100A2000F20A80818F83D8019C915396ED91FC91BD
:100A3000549755968C91992309F448C09081982B2E
:100A40009887908180958923898789858B8388E021
:100A50008C83588569854F813C812B8189819A815E
:100A6000D701508347FD252F3A952083262F39F053
:100A7000441F00C000006083000000C0F2CF38E0D7
:100A80004D9160830000019761F7D8015496FC9363
:100A9000EE9353974F833C832B839A838983789477
:100AA0000E94AF02F8016787708B818B928B299629
:100AB0000FB6F894DEBF0FBECDBFDF91CF911F916F
:100AC0000F91FF90EF90DF90CF9008959081982B39
:100AD0009887908180958923898789858D8388E08F
:100AE0008E83588569854F813E812D8189819A81C8
:100AF000D701508347FD252F00C000C0208300C0D0
:100B000000C000C000C000C060830000262F3A95DE
:100B100041F0441F000000C000C000C000C000C081
:100B2000E8CF38E04D9100C0608300C0019709F71D
:100B3000D8015496FC93EE9353974F833E832D83B5
:100B4000ACCF8F929F92AF92BF92EF92FF920F9392
:100B50001F93CF93DF93C62F9C01AAEFB5E00E94AD
:100B6000E613DC01CB019058AF4FBF4FCD01BB273F
:100B700097FDB095AB2F8E3F21E0920708F059C04A
:100B8000382F8F3F910508F473C05EEF581BE0E0EB
:100B90003FEF042F10E00F5F1F4FEC2EF12C8FEF73
:100BA000E81AF80AC095D0E03E9DC0013F9D900D27
:100BB0001124292F33272C0F3D1FD8010E94F51334
:100BC0004B015C018824AA24BB24EE9D9001EF9D7B
:100BD000300D1124232F33272C0F3D1F0E94F513B6
:100BE000672F782F892F9927862A972AA82AB92A2A
:100BF0005E9D90015F9D300D1124232F33272C0F14
:100C00003D1F0E94F513982F872F762F66276627A2
:100C100077279927682979298A299B29DF91CF91FC
:100C20001F910F91FF90EF90BF90AF909F908F908A
:100C300008958C3F23E0920760F4E2E0E80F3FEF75
:100C40008D3F22E0920718F03CEF381BEFEF50E0A9
:100C5000A0CF8A3F25E0920771F0EAEFE81B8B3FB7
:100C600024E0920748F454E0580FEFEF30E091CFC2
:100C7000E0E05FEF8ECFE0E030E0FBCFCF93DF939B
:100C8000EC018E819F8197FD07C061E00E944302C5
:100C900060E08E810E94150281E08983DF91CF910F
:100CA0000895672B31F48091400291E08927809369
:100CB00040020895672BE1F42091620230916302B3
:100CC00080910C0190910D0145E0489FF001499FF2
:100CD000F00D112441E5429FC001439F900D112466
:100CE000E80FF91FEB5FFC4F808191E0892780833B
:100CF00008950CB405FC0DC09EBD00000DB407FEA8
:100D0000FDCF9EB58EBD00000DB407FEFDCF8EB5A4
:100D100008958EBD00000DB407FEFDCF8EB59EBDBB
:100D200000000DB407FEFDCF9EB50895CF93DF936D
:100D3000EC0180914202882361F08FB7F894909182
:100D400042029130C9F59DB3909341029DB39DBB82
:100D50008FBF80E58CBD81E08DBD8D81882361F0E2
:100D600060E088810E94150289819A810E9479063B
:100D700061E088810E9415028E81882361F060E025
:100D800088810E9415028B819C810E94790661E016
:100D900088810E94150280914202882351F09FB7FA
:100DA000F8942091420280914102213041F48DBBA0
:100DB0009FBFDF91CF91089580934102CACF8FBF2B
:100DC000F8CFFC0101900020E9F73197AF01481BF3
:100DD000590BBC0188E692E00C94B6008F929F926A
:100DE000AF92BF920F931F93CF93DF93CDB7DEB730
:100DF000A1970FB6F894DEBF0FBECDBF19A2423047
:100E000008F44AE08E010F5D1F4F842E912CB12C07
:100E1000A12CA50194010E94C413E62FB901CA01B7
:100E2000EA30F4F4E05DD801EE938D01232B242BFE
:100E3000252B79F790E080E0109719F0CD010E9402
:100E4000E106A1960FB6F894DEBF0FBECDBFDF91CD
:100E5000CF911F910F91BF90AF909F908F90089569
:100E6000E95CE1CFCF92DF92EF92FF92CF93DF93D5
:100E700097FF1BC06B017C016DE288E692E00E9447
:100E80005601EC0166277727CB016C197D098E0985
:100E90009F094AE00E94EE068C0F9D1FDF91CF91C3
:100EA000FF90EF90DF90CF9008954AE0DF91CF91CF
:100EB000FF90EF90DF90CF900C94EE06672BC9F473
:100EC00080914D0291E0892780934D028AEF91E055
:100ED0000E94E10683E092E00E94E10660914D02EB
:100EE00070E090E080E00E94320783E092E00C9492
:100EF000E10608952F923F924F925F926F927F92F8
:100F00008F929F92AF92BF92CF92DF92EF92FF9219
:100F10000F931F93CF93DF93CDB7DEB72E970FB606
:100F2000F894DEBF0FBECDBF55E5C52E53E0D52EDC
:100F300064EEA62E61E0B62E212C312C2101912CDD
:100F4000812C10E000E075E0E72E609004017090C5
:100F50000501E69CF001E79CF00D1124E80DF91D58
:100F6000EB5FFC4FF080FF2009F18381948160E505
:100F700070E00E94B013209106013091070140916A
:100F8000080150910901DB010E94FC13FF24F39436
:100F900020914E0230914F024091500250915102E7
:100FA000261737074807590708F0F12CF60180810A
:100FB0008F1509F470C0F5018081FF2009F431C25A
:100FC00061E00E941502E69CF001E79CF00D1124FF
:100FD00021E5209FC001219F900D1124E80FF91FEA
:100FE000EB5FFC4F61817281072E000C880B990B1F
:100FF0000E94A31226E031E84AE252E40E942F1335
:1010000020E030E040E05FE30E9494110E94721201
:101010000230110509F4DFC10330110509F4EEC1F6
:101020000130110509F4C4C120917F05309180057C
:101030002227307F611580E1780710F06FEF7FE0A5
:10104000622B732B7093800560937F0586E092E09E
:101050000E94E106C201B1010E94320787E192E0DD
:101060000E94E106609152027091530280915402F5
:10107000909155024AE00E94EE0683E092E00E94C1
:10108000E1068EE795E00E94960687E795E00E94CC
:101090009606F601F0820F5F1F4FF1E58F0E911C4F
:1010A00021E5C20ED11C3FEF231A330A430A530A2B
:1010B0008FEFA81AB80A0430110509F046CF409105
:1010C00065055091660570E060E080916A05909139
:1010D0006B050E943A1510E000E02090620230900B
:1010E000630225E0209FF001219FF00D112431E5DE
:1010F000329DC001339D900D1124E80FF91FEB5F65
:10110000FC4F818192816CE070E00E94B0132CE072
:10111000289FD001299FB00D1124AC5EBE4F8D9049
:101120009D90AD90BC90139714964D905D906D90EE
:101130007C9017971896CD90DD90ED90FC901B97C2
:101140008081E0910401F0910501FE87ED872091F7
:101150000C0130910D012017310709F48BC1E01704
:10116000F10709F07DC1882309F48BC1A501940121
:1011700060E070E085EA93E40E94931120E030E0A3
:1011800040E05FE30E942F139B01AC01C501B40155
:101190000E9494114B015C01A301920160E070E098
:1011A00080E89FE30E94931120E030E040E05FE39D
:1011B0000E942F139B01AC01C301B2010E94941144
:1011C0002B013C01A70196016AE979E989E19FE3D6
:1011D0000E94931120E030E040E05FE30E942F1373
:1011E0009B01AC01C701B6010E9494116B017C0107
:1011F00020E030E04FE753E4C701B6010E942F130F
:101200000E947212F62E20E030E04FE753E4C30153
:10121000B2010E942F130E947212E62E20E030E0ED
:1012200044EB53E4C501B4010E94001220E03FEFFB
:101230004FE757E40E942F130E947212CB014F2DEB
:101240006E2D0E94A1059B01AC01809163059091D8
:1012500064050817190728F4B80181E695E00E9493
:1012600069040F5F1F4F0031110509F036CF8091DF
:101270006A0590916B05892B21F081E695E00E942B
:10128000D00440914F055091500570E060E080918E
:101290005405909155050E943A1584EAE82E81E0A4
:1012A000F82E85E02D853E85829F6001839FD00CBE
:1012B000112410E000E08CE0F701DE0111960190AE
:1012C0000D928A95E1F7F70144805580668077801A
:1012D0000215130509F0EAC089809A80AB80BC80B2
:1012E00069857A858B859C8520E030E04FE753E463
:1012F0000E942F130E9472126D8720E030E04FE7AA
:1013000053E4C301B2010E942F130E947212762E81
:1013100020E030E044EB53E4C501B4010E94001228
:1013200020E03FEF4FE757E40E942F130E94721214
:10133000CB014D85672D0E94A1059B01AC018091D9
:101340004D0590914E050817190728F4B8018BE454
:1013500095E00E9469040F5F1F4F3CE0E30EF11C13
:101360000430110509F0A7CF8091540590915505DF
:10137000892B21F08BE495E00E94D00481E02E9629
:101380000FB6F894DEBF0FBECDBFDF91CF911F9196
:101390000F91FF90EF90DF90CF90BF90AF909F9014
:1013A0008F907F906F905F904F903F902F90089517
:1013B00020918105309182052227307F6115E0E17F
:1013C0007E0710F06FEF7FE0622B732B7093820526
:1013D000609381053BCE20917805309179052227D5
:1013E000307F6115F0E17F0710F06FEF7FE0622B37
:1013F000732B709379056093780528CE20917A0538
:1014000030917B052227307F611580E1780710F04D
:101410006FEF7FE0622B732B70937B0560937A05EF
:1014200015CE60E00E9415028CE192E00E94E10678
:10143000C201B1010E94320787E192E00E94E106F9
:101440006091520270915302809154029091550222
:101450004AE00E94EE0683E092E00E94E10619CE87
:101460008111C6CEC12CD12C76012601370157013E
:101470004601BECEC12CD12C40E8E42E4FE3F42E21
:10148000B7CE9AE9C92E99E9D92E99E1E92E9FE3C1
:10149000F92E412C512C20E8622E2FE3722E812C44
:1014A000912C35EAA32E33E4B32EA2CE8080918016
:1014B000A280B38021E5209FF001219FF00D11242F
:1014C000EC0DFD1DEB5FFC4F8081882329F066E663
:1014D00076E686EE9EE308CF60E070E0CB012B015C
:1014E0003C015C014B0100CF1F920F920FB60F928F
:1014F00011242F933F934F935F936F937F938F9319
:101500009F93AF93BF93EF93FF9388E692E00E947F
:101510003401FF91EF91BF91AF919F918F917F9196
:101520006F915F914F913F912F910F900FBE0F9050
:101530001F9018951F920F920FB60F9211242F93A0
:101540008F939F93EF93FF93E0917802F09179024C
:101550008081E0917E02F0917F0282FD1BC090812C
:10156000809181028F5F8F7320918202821741F0F8
:10157000E0918102F0E0E859FD4F958F8093810260
:10158000FF91EF919F918F912F910F900FBE0F9030
:101590001F9018958081F4CF1F920F920FB60F9273
:1015A00011242F933F938F939F93AF93BF93809179
:1015B000450290914602A0914702B09148023091B5
:1015C000440223E0230F2D3758F50196A11DB11DCC
:1015D000209344028093450290934602A0934702D1
:1015E000B09348028091490290914A02A0914B0227
:1015F000B0914C020196A11DB11D809349029093B8
:101600004A02A0934B02B0934C02BF91AF919F91BD
:101610008F913F912F910F900FBE0F901F901895B3
:1016200026E8230F0296A11DB11DD2CF1F920F9263
:101630000FB60F9211242F933F934F935F936F93A5
:101640007F938F939F93AF93BF93EF93FF93E0911B
:101650000201F09103010995FF91EF91BF91AF91C4
:101660009F918F917F916F915F914F913F912F91BA
:101670000F900FBE0F901F9018951F920F920FB6EC
:101680000F9211242F933F934F935F936F937F9308
:101690008F939F93AF93BF93EF93FF93E0910001DC
:1016A000F09101010995FF91EF91BF91AF919F9149
:1016B0008F917F916F915F914F913F912F910F90FB
:1016C0000FBE0F901F9018959FB7F894809143021A
:1016D000882319F081508093430280914302811145
:1016E00005C08CB58F7B8CBD109242029FBF0895C0
:1016F00080915405909155050E94B1148091510537
:101700009091520597FD03C060E00E9443028091D2
:101710006A0590916B050E94B114809167059091C4
:10172000680597FD03C060E00E9443020E94640BBD
:101730000C94640BCF93CFB7F8948091430281113E
:1017400027C0E8EBF0E08491EAE9F0E09491E82F1B
:10175000F0E0EE0FFF1FE859FF4FA591B491EC9117
:10176000E92321F461E08AE00E94150261E08AE049
:101770000E9443028CB580618CBD8CB580648CBDA9
:1017800061E08DE00E94430261E08BE00E94430231
:10179000809143028F5F80934302CFBFCF91089522
:1017A000CF92DF92EF92FF920F931F93CF93DF932D
:1017B000EC016B01F42EE52E198218861F86188A1B
:1017C000198A1A8A81E08E878B871C8692E09D8712
:1017D00088838B01000F111F060F171F1D830C83B9
:1017E000C8010E9415149A878987009789F1A8017A
:1017F00070E060E00E943A15DB82CA82FE82EF82CE
:101800008981882341F061E08F2D0E94430260E0CE
:101810008F2D0E9415028F2D9E2DFC01E255FF4F4A
:10182000E491F0E0EE0FFF1FEC55FF4F259134914E
:101830003C8B2B8BFC01E057FF4FE491ED8BDF914C
:10184000CF911F910F91FF90EF90DF90CF9008956F
:101850001D821C821B821A82D1CF8F929F92AF92DF
:10186000BF92CF92DF92EF92FF920F931F93CF938D
:10187000DF9310926B0210926A0288EE93E0A0E070
:10188000B0E080936C0290936D02A0936E02B093CF
:101890006F028CEE91E0909369028093680285EC70
:1018A00090E0909375028093740284EC90E09093A2
:1018B00077028093760280EC90E090937902809397
:1018C000780281EC90E090937B0280937A0282EC24
:1018D00090E090937D0280937C0286EC90E0909360
:1018E0007F0280937E0210928102109282021092F7
:1018F0008302109284021092D2051092D3051092A6
:10190000D4051092D5051092D605D4E1D093D70511
:101910008CE2882E99249394A12CB12C8092D80526
:101920009092D905A092DA05B092DB0598EBC92E0A
:101930009BE0D92EE12CF12CC092DC05D092DD0584
:10194000E092DE05F092DF051092E1051092E005CD
:101950001092E3051092E2051092E4051092E5055D
:101960001092E6051092E7051092E8051092E9053D
:101970001092EA051092EB051092EC051092ED051D
:1019800085E08093CF051092D1051092D00560E0DC
:101990000E944302C1E0C093D2051092AD0510929F
:1019A000AE051092AF051092B0051092B105D0931C
:1019B000B2058092B3059092B405A092B505B0929D
:1019C000B605C092B705D092B805E092B905F0927D
:1019D000BA051092BC051092BB051092BE0510927C
:1019E000BD051092BF051092C0051092C10510925E
:1019F000C2051092C3051092C4051092C50510923D
:101A0000C6051092C7051092C80588E08093AA0504
:101A10001092AC051092AB0560E00E944302C093A7
:101A2000AD05109288051092890510928A051092D2
:101A30008B0510928C05D0938D0580928E05909227
:101A40008F05A0929005B0929105C0929205D09218
:101A50009305E0929405F0929505109297051092E7
:101A60009605109299051092980510929A05109279
:101A70009B0510929C0510929D0510929E05109258
:101A80009F051092A0051092A1051092A205109238
:101A9000A3058BE08093850510928705109286053B
:101AA00060E00E944302C093880510927E05109268
:101AB000800510927F05109283051092840500E046
:101AC00010E810938205009381050E949A0BC09341
:101AD0007705109279051092780510927C05109286
:101AE0007D0510937B0500937A050E949A0B44E0D4
:101AF00050E060E170E081E695E00E94D00B42E1A9
:101B000050E064E070E08BE495E00E94D00B10920E
:101B10004A0410924904EBE4F4E080E091E0DF0134
:101B20009C011D9221503040E1F785E093E025E4CF
:101B300030E040E550E0BC01605B7F4FFC0110826B
:101B400032832183548343833596E617F707B9F729
:101B500010828F5A9F4F64E08934960761F7DF91B6
:101B6000CF911F910F91FF90EF90DF90CF90BF909A
:101B7000AF909F908F900895789484B5826084BDD3
:101B800084B5816084BD85B5826085BD85B5816081
:101B900085BD80916E00816080936E0010928100FF
:101BA00080918100826080938100809181008160BA
:101BB000809381008091800081608093800080917B
:101BC000B10084608093B1008091B0008160809307
:101BD000B00080917A00846080937A0080917A00CE
:101BE000826080937A0080917A00816080937A008D
:101BF00080917A00806880937A001092C100E09111
:101C00007802F091790282E08083E0917402F09191
:101C100075021082E0917602F09177028FEC80835A
:101C200010928002E0917C02F0917D0286E0808338
:101C3000E0917A02F0917B02808180618083E09163
:101C40007A02F0917B02808188608083E0917A0241
:101C5000F0917B02808180688083E0917A02F0912C
:101C60007B0280818F7D808360910A0170910B01DE
:101C7000072E000C880B990B0E94A3129B01AC014C
:101C800060E070E080E792E40E94001220E034E21D
:101C900044EF58E40E942F130E94721260930601D1
:101CA00070930701809308019093090181E695E004
:101CB0000E943E0681E695E00E948D008BE495E04F
:101CC0000E943E068BE495E00E948D008BE190E03F
:101CD0000E941514EC0143E050E062E070E00E94C5
:101CE0007F02D0935902C09358028BE190E00E948A
:101CF0001514EC014AE050E069E070E00E947F02B8
:101D0000D0935D02C0935C028BE190E00E941514B9
:101D1000EC0147E050E066E070E00E947F02D09363
:101D20006102C09360028BE190E00E941514EC0107
:101D30004FE050E06EE070E00E947F02D0936702B7
:101D4000C093660223E533E0309301012093000144
:101D5000809169008C7F816080936900E89A30935C
:101D600003012093020180916900837F8460809346
:101D70006900E99A0E94D402EBE4F4E02081318109
:101D8000232B09F482C2709625E0EB34F207B0F3FE
:101D90008AE596E09093EF058093EE059093F10528
:101DA0008093F0054CE251E060E070E04093D8058C
:101DB0005093D9056093DA057093DB059093F30592
:101DC0008093F20588EE93E0A0E0B0E08093DC051C
:101DD0009093DD05A093DE05B093DF052EE537E097
:101DE0003093CA052093C9053093CC052093CB05C9
:101DF0004093B3055093B4056093B5057093B60551
:101E00003093CE052093CD058093B7059093B80508
:101E1000A093B905B093BA0521E536E03093A50546
:101E20002093A4053093A7052093A60540938E0523
:101E300050938F0560939005709391053093A90599
:101E40002093A8058093920590939305A093940501
:101E5000B093950561E080917E050E94430261E0A8
:101E600080917E050E94150261E0809177050E94B5
:101E7000430261E0809177050E94150280917F0501
:101E80009091800590619093800580937F0581E01B
:101E900080938305209181053091820530613093D4
:101EA00082052093810580938405209178053091E7
:101EB00079053061309379052093780580937C050E
:101EC00020917A0530917B05306130937B0520931A
:101ED0007A0580937D05C4EED1E0199161E0812FF0
:101EE0000E94430260E0812F0E94150231E0C83E4B
:101EF000D30799F744244394512C60E1662E712C4A
:101F000075E0272E04E010E0EFE0EE2EF12C40E02B
:101F1000C42E40E0D42E31E5332E0E94AF02AB0137
:101F2000BC0180914E0290914F02A0915002B0915D
:101F300051028090520290905302A0905402B090AF
:101F4000550288199909AA09BB09840F951FA61F74
:101F5000B71F80934E0290934F02A0935002B0930C
:101F60005102409352025093530260935402709373
:101F7000550240910601509107016091080170914E
:101F8000090184179507A607B707B8F010924E020B
:101F900010924F02109250021092510280914D0205
:101FA000882359F08091040190910501019797FDD4
:101FB00099C19093050180930401CBE4D4E088811A
:101FC0009981892B99F10E94D4024B015C018C818B
:101FD0009D81AE81BF81B501A401481B590B6A0BDD
:101FE0007B0B88859985AA85BB85481759076A07A1
:101FF0007B07E0F0E881F9818A819B81099588233C
:1020000029F08C859D85892B09F071C11982188270
:102010001B821A821C821D821E821F8218861986CC
:102020001A861B861D861C861F861E86609685E086
:10203000CB34D80720F20E94D402CBE4D4E08881CC
:102040009981892B09F05AC1609625E0CB34D207DB
:10205000B0F30E94D4028FEC95E00E9467038AEAF5
:1020600095E00E94670385E895E00E946703C091B0
:102070005802D0915902CE010E94E1028B849C84C7
:10208000AD84BE84809156029091570288159905BF
:10209000A9F08819990920910C0130910D01820F46
:1020A000931F97FD4096B3010E94B01390930D01CA
:1020B00080930C019092570280925602C0915C026C
:1020C000D0915D02CE010E94E1028B849C84AD849C
:1020D000BE8480915A0290915B0288159905A1F106
:1020E000B401681B790BCB01880F991F680F791F0A
:1020F00080910A0190910B01680F791F70930B0179
:1021000060930A01072E000C880B990B0E94A31202
:102110009B01AC0160E070E080E792E40E94001255
:1021200020E034E244EF58E40E942F130E94721220
:102130006093060170930701809308019093090151
:1021400090925B0280925A02C0916002D09161022B
:10215000CE010E94E1028B849C84AD84BE84C09138
:102160005E02D0915F02C815D90509F459C02091CB
:102170000C0130910D014091620250916302229E48
:10218000C001239E900D1124349E9001359E300D88
:102190001124820F931FFC01EB5FFC4F8181928120
:1021A000C819D909C80FD91F8C179D07A9F18FE24B
:1021B00092E00E94E10683E092E00E94E106BE0107
:1021C0000D2E000C880B990B0E94320783E092E0E1
:1021D0000E94E106C038D10514F0CFE7D0E020918D
:1021E0000C0130910D014091620250916302229ED8
:1021F000C001239E900D1124349E9001359E300D18
:102200001124820F931FFC01EB5FFC4FD7FF02C02C
:10221000D0E0C0E0D283C18390925F0280925E02E0
:10222000C0916602D0916702CE010E94E1028B84C8
:102230009C84AD84BE84809164029091650288156F
:102240009905B9F09401281B390BC901209162024C
:1022500030916302820F931FB8010E94B01397FD63
:10226000049690936302809362029092650280923A
:102270006402C114D10409F450CE0E9420018823C5
:1022800009F449CE0E94000042CE209149043091C9
:102290004A042F5F3F4F30934A0420934904232B75
:1022A00031F421E030E030934A0420934904209136
:1022B000490430914A04378726872AE737E031837B
:1022C000208313821282648375838683978381E0DF
:1022D00090E0A0E0B0E080879187A287B3879587E0
:1022E000848756CDF0920501E092040166CE5D86AA
:1022F0004C868C829D82AE82BF8298CE0E94D40290
:102300008C809D80AE80BF80681979098A099B09FD
:1023100088849984AA84BB84681579058A059B05FD
:1023200008F492CE96CE5058BB27AA270E94AB1134
:102330000C94F5120E94E71238F00E94EE1220F081
:1023400039F49F3F19F426F40C94E4120EF4E0954E
:10235000E7FB0C94DE12E92F0E94061358F3BA171C
:10236000620773078407950720F079F4A6F50C94AB
:1023700028130EF4E0950B2EBA2FA02D0B01B901F6
:1023800090010C01CA01A0011124FF27591B99F0EB
:10239000593F50F4503E68F11A16F040A22F232FF7
:1023A000342F4427585FF3CF469537952795A79547
:1023B000F0405395C9F77EF41F16BA0B620B730BEE
:1023C000840BBAF09150A1F0FF0FBB1F661F771F5F
:1023D000881FC2F70EC0BA0F621F731F841F48F414
:1023E000879577956795B795F7959E3F08F0B0CF9D
:1023F0009395880F08F09927EE0F97958795089584
:102400000E9414120C94F5120E94EE1258F00E94D1
:10241000E71240F029F45F3F29F00C94DE125111CD
:102420000C9429130C94E4120E94061368F3992368
:10243000B1F3552391F3951B550BBB27AA276217C0
:102440007307840738F09F5F5F4F220F331F441FCD
:10245000AA1FA9F335D00E2E3AF0E0E832D0915001
:102460005040E695001CCAF72BD0FE2F29D0660FEE
:10247000771F881FBB1F261737074807AB07B0E831
:1024800009F0BB0B802DBF01FF2793585F4F3AF037
:102490009E3F510578F00C94DE120C9429135F3F97
:1024A000E4F3983ED4F3869577956795B795F795BD
:1024B0009F5FC9F7880F911D9695879597F90895A5
:1024C000E1E0660F771F881FBB1F62177307840741
:1024D000BA0720F0621B730B840BBA0BEE1F88F750
:1024E000E09508950E940E1388F09F5798F0B92F39
:1024F0009927B751B0F0E1F0660F771F881F991F39
:102500001AF0BA95C9F714C0B13091F00E9428139F
:10251000B1E008950C942813672F782F8827B85FAF
:1025200039F0B93FCCF3869577956795B395D9F790
:102530003EF490958095709561957F4F8F4F9F4F9A
:102540000895E89409C097FB3EF4909580957095A6
:1025500061957F4F8F4F9F4F9923A9F0F92F96E9EF
:10256000BB279395F695879577956795B795F11164
:10257000F8CFFAF4BB0F11F460FF1BC06F5F7F4F01
:102580008F4F9F4F16C0882311F096E911C0772313
:1025900021F09EE8872F762F05C0662371F096E81C
:1025A000862F70E060E02AF09A95660F771F881FEB
:1025B000DAF7880F9695879597F9089597F99F67A9
:1025C00080E870E060E008959FEF80EC08950024BB
:1025D0000A941616170618060906089500240A9488
:1025E00012161306140605060895092E0394000C0E
:1025F00011F4882352F0BB0F40F4BF2B11F460FF9D
:1026000004C06F5F7F4F8F4F9F4F089557FD9058C5
:10261000440F551F59F05F3F71F04795880F97FBA6
:10262000991F61F09F3F79F0879508951216130660
:102630001406551FF2CF4695F1DF08C0161617068F
:102640001806991FF1CF86957105610508940895C4
:10265000E894BB2766277727CB0197F908950E9456
:1026600042130C94F5120E94E71238F00E94EE1209
:1026700020F0952311F00C94DE120C94E412112436
:102680000C9429130E94061370F3959FC1F3950FC4
:1026900050E0551F629FF001729FBB27F00DB11DE6
:1026A000639FAA27F00DB11DAA1F649F6627B00D76
:1026B000A11D661F829F2227B00DA11D621F739F5F
:1026C000B00DA11D621F839FA00D611D221F749F6D
:1026D0003327A00D611D231F849F600D211D822FB4
:1026E000762F6A2F11249F5750409AF0F1F08823DB
:1026F0004AF0EE0FFF1FBB1F661F771F881F915008
:102700005040A9F79E3F510580F00C94DE120C94C6
:1027100029135F3FE4F3983ED4F386957795679548
:10272000B795F795E7959F5FC1F7FE2B880F911D31
:102730009695879597F90895AA1BBB1B51E107C091
:10274000AA1FBB1FA617B70710F0A61BB70B881F41
:10275000991F5A95A9F780959095BC01CD010895D0
:1027600097FB072E16F4009407D077FD09D00E943E
:102770009C1307FC05D03EF4909581959F4F0895DA
:10278000709561957F4F0895A1E21A2EAA1BBB1B7D
:10279000FD010DC0AA1FBB1FEE1FFF1FA217B3072D
:1027A000E407F50720F0A21BB30BE40BF50B661F43
:1027B000771F881F991F1A9469F760957095809507
:1027C00090959B01AC01BD01CF010895A29FB0017E
:1027D000B39FC001A39F700D811D1124911DB29F55
:1027E000700D811D1124911D08950E94E613B7FFFD
:1027F0000895821B930B0895B7FF0C940A140E944E
:102800000A14821B930B0895EE0FFF1F0590F4919D
:10281000E02D09940E94E613A59F900DB49F900DA2
:10282000A49F800D911D112408950F931F93CF93A2
:10283000DF938230910510F482E090E0E091F6059C
:10284000F091F70530E020E0B0E0A0E0309799F497
:102850002115310509F44AC0281B390B24303105F4
:10286000D8F58A819B816115710589F1FB019383FC
:102870008283FE0111C0408151810281138148177A
:102880005907E0F04817590799F4109761F012962C
:102890000C93129713961C933296CF01DF91CF9130
:1028A0001F910F9108950093F6051093F705F4CF4B
:1028B0002115310551F04217530738F0A901DB010A
:1028C0009A01BD01DF01F801C1CFEF01F9CF90936B
:1028D000F7058093F605CDCFFE01E20FF31F81933C
:1028E00091932250310939832883D7CF2091F40561
:1028F0003091F505232B41F4209110013091110105
:102900003093F5052093F40520910E0130910F01CD
:102910002115310541F42DB73EB740911201509178
:102920001301241B350BE091F405F091F505E21736
:10293000F307A0F42E1B3F0B2817390778F0AC01E2
:102940004E5F5F4F2417350748F04E0F5F1F5093BF
:10295000F5054093F405819391939FCFF0E0E0E07B
:102960009CCFCF93DF930097E9F0FC01329713825D
:102970001282A091F605B091F705ED0130E020E05C
:102980001097A1F420813181820F931F2091F405CB
:102990003091F5052817390709F061C0F093F50566
:1029A000E093F405DF91CF910895EA01CE17DF0798
:1029B000E8F54A815B819E0141155105B1F7E901B6
:1029C000FB83EA8349915991C40FD51FEC17FD078A
:1029D00061F4808191810296840F951FE9019983AA
:1029E0008883828193819B838A83F0E0E0E0129662
:1029F0008D919C9113970097B9F52D913C9111976A
:102A0000CD010296820F931F2091F4053091F505B8
:102A10002817390739F6309751F51092F7051092BB
:102A2000F605B093F505A093F405BCCFD383C2831C
:102A300040815181840F951FC817D90761F44E5FFB
:102A40005F4F88819981480F591F518340838A8144
:102A50009B81938382832115310509F0B0CFF093D8
:102A6000F705E093F6059ECFFD01DC01C0CF138290
:102A70001282D7CFDC0101C06D9341505040E0F786
:102A8000089510E0C2E6D0E004C0FE010E940414E4
:0C2A90002196C336D107C9F7F894FFCF98
:102A9C00E002E0020100FA000000780001000000F2
:102AAC00F8058000000000000000803F9A99193F53
:102ABC000000F0410000803F9A99193F00007042DD
:102ACC000000803F9A99193F0000B4420000803FFB
:102ADC009A99193F0000F0420000803F9A99193FE3
:102AEC00000016430000803F9A99193F00003443C0
:102AFC000000803F9A99193F000052430000803F2C
:102B0C009A99193F000070430000803F9A99193F31
:102B1C00000087430000803F9A99193F00009643BC
:102B2C000000803F9A99193F0000A5430000803FA8
:102B3C009A99193F0000F0428FC2353FAE47613F72
:102B4C00000052438FC2353FAE47613F00009643B1
:102B5C008FC2353FAE47613F0000F0418FC2353F19
:102B6C00AE47613F00FF0100010000FFFF000001C4
:102B7C000001FF000D0C1011000000005601B60002
:102B8C00E300A3011401F2000601506C6179696E37
:102B9C00673A000D0A004E6F7465206F6E206F6EE1
:102BAC0020747261636B0020617420004E6F746539
:102BBC00206F6666206F6E20747261636B20004E0E
:102BCC006F7465206368616E67656420746F3A008A
:00000001FF
