:020000040000FA
:100000000C9463000C94B8050C9491050C948B002F
:100010000C948B000C948B000C948B000C948B0034
:100020000C948B000C948B000C948B000C948B0024
:100030000C948B000C948B000C948B000C948B0014
:100040000C9447050C948B000C9415050C94EF044C
:100050000C948B000C948B000C948B000C948B00F4
:100060000C948B000C948B000000000024002700EF
:100070002A000000000023002600290000000008DC
:10008000000201000003040700000000000000005F
:10009000010204081020408001020408102001021F
:1000A0000408102000000000250028002B00040494
:1000B0000404040404040202020202020303030310
:1000C0000303DF05F20C11241FBECFEFD8E0DEBF23
:1000D000CDBF11E0A0E0B1E0E2E6F1E202C00590A0
:1000E0000D92A23EB107D9F725E0A2EEB1E001C022
:1000F0001D92AF33B207E1F710E0C2E6D0E004C0D2
:100100002197FE010E94720FC136D107C9F70E94E4
:100110004F070C94A4100C940000AF92BF92CF92A2
:10012000DF92EF92FF920F931F93CF93DF936C01B7
:100130007B018B01040F151FEB015E01AE18BF0898
:10014000C017D10759F06991D601ED91FC9101904A
:10015000F081E02DC6010995892B79F7C501DF9162
:10016000CF911F910F91FF90EF90DF90CF90BF90B4
:10017000AF900895FC01538D448D252F30E0842FDE
:1001800090E0821B930B541710F0CF9608950197BF
:100190000895FC01918D828D981761F0A28DAE0FAC
:1001A000BF2FB11D5D968C91928D9F5F9F73928F33
:1001B00090E008958FEF9FEF0895FC01918D828D5F
:1001C000981731F0828DE80FF11D858D90E008952C
:1001D0008FEF9FEF0895FC01918D228D892F90E084
:1001E000805C9F4F821B91098F73992708958CEF34
:1001F00091E00E94EB0021E0892B09F420E0822F9E
:10020000089580E090E0892B29F00E94F700811189
:100210000C9400000895FC01A48DA80FB92FB11D06
:10022000A35ABF4F2C91848D90E001968F7399272C
:10023000848FA689B7892C93A089B1898C9183700A
:1002400080648C93938D848D981306C00288F38903
:10025000E02D80818F7D80830895EF92FF920F9330
:100260001F93CF93DF93EC0181E0888F9B8D8C8D62
:1002700098131AC0E889F989808185FF15C09FB756
:10028000F894EE89FF896083E889F9898081837019
:10029000806480839FBF81E090E0DF91CF911F91C8
:1002A0000F91FF90EF900895F62E0B8D10E00F5FE9
:1002B0001F4F0F731127E02E8C8D8E110CC00FB6BF
:1002C00007FCFACFE889F989808185FFF5CFCE0157
:1002D0000E940B01F1CFEB8DEC0FFD2FF11DE35AC6
:1002E000FF4FF0829FB7F8940B8FEA89FB898081DA
:1002F0008062CFCFCF93DF93EC01888D8823B9F054
:10030000AA89BB89E889F9898C9185FD03C0808120
:1003100086FD0DC00FB607FCF7CF8C9185FFF2CF9D
:10032000808185FFEDCFCE010E940B01E9CFDF91E7
:10033000CF910895833081F028F4813099F0823094
:10034000A9F008958730A9F08830C9F08430B1F45D
:10035000809180008F7D03C0809180008F77809393
:100360008000089584B58F7784BD089584B58F7D0E
:10037000FBCF8091B0008F778093B000089580917B
:10038000B0008F7DF9CFCF93DF93282F30E0F901B4
:10039000E458FF4F8491F901E057FF4FD491F901E0
:1003A000E255FF4FC491CC2391F081110E949A0134
:1003B000EC2FF0E0EE0FFF1FEC55FF4FA591B4912D
:1003C0008FB7F894EC91D095DE23DC938FBFDF914B
:1003D000CF910895CF93DF93282F30E0F901E458AF
:1003E000FF4F8491F901E057FF4FD491F901E25595
:1003F000FF4FC491CC23A1F081110E949A01EC2FF0
:10040000F0E0EE0FFF1FEE58FF4FA591B491EC9175
:10041000ED2381E090E009F480E0DF91CF91089531
:1004200080E090E0FACFCF93DF9390E0FC01E057BB
:10043000FF4F249182559F4FFC0184918823C9F07E
:1004400090E0880F991FFC01E859FF4FA591B491E6
:10045000FC01EC55FF4FC591D49161110DC09FB7C0
:10046000F8948C91209582238C938881282328836B
:100470009FBFDF91CF910895623051F49FB7F894F8
:100480003C91822F809583238C93E8812E2BEFCF94
:100490008FB7F894EC912E2B2C938FBFEACF1F933C
:1004A000CF93DF93EC01862F142F688379834A83DF
:1004B0005B8321E030E03D832C8362E00E941302E5
:1004C00062E0812F0E94130288810E94EA01182FA6
:1004D0008A810E94EA01880F991F812B8E831F82D7
:1004E000188619861A861B861C861D861E861F8600
:1004F000188A198A1A8ADF91CF911F9108953FB700
:10050000F8948091EC019091ED01A091EE01B091F1
:10051000EF0126B5A89B05C02F3F19F00196A11D3C
:10052000B11D3FBFBA2FA92F982F8827BC01CD013D
:10053000620F711D811D911D42E0660F771F881F9C
:10054000991F4A95D1F708952FB7F8946091E80163
:100550007091E9018091EA019091EB012FBF08951C
:1005600008950F931F93CF93DF93EC0188810E942E
:10057000EA01182F8A810E94EA01880F991F812BB6
:100580009E81981709F44DC0EE810F811885298549
:100590003A8594E0E902F0011124482F082E000C5E
:1005A000550BE42BF52BEE5EFE4F9081492F990FF2
:1005B000550B660B770B400F511F621F731F4F8344
:1005C000588769877A878E832C813D812230310557
:1005D00031F12330310551F12130310511F58330EE
:1005E00001F58F819885A985BA8532E0B595A795E3
:1005F000979587953A95D1F78B879C87AD87BE876E
:100600008B899C89AD89BE898F8B988FA98FBA8F72
:100610000E94A4026B8B7C8B8D8B9E8B02C08823E7
:1006200001F3DF91CF911F910F910895882311F06D
:100630008330B9F78F819885A985BA85B595A79537
:1006400097958795D9CF8091F2019091F3010C9401
:10065000B1028091F6019091F7010C94B102809162
:10066000FA019091FB010C94B102CF92DF92EF92CC
:10067000FF920F931F93CF93DF93EC010E94A4028C
:100680000C811D812E813F816B017C01C01AD10A32
:10069000E20AF30A2885022F10E030E020E0C016BD
:1006A000D106E206F30608F16C837D838E839F8377
:1006B00088810E94EA014B812B893C893A8B298BE6
:1006C00048171906D9F481E090E09C8B8B8B0E942F
:1006D000A4026B017C0189899A89892B91F48B8909
:1006E0009C89019771F481E08E8FDF91CF911F91EA
:1006F0000F91FF90EF90DF90CF9008951C8A1B8A96
:10070000E6CF8D898823A1F189A19AA1892B99F03F
:100710008E899F89A88DB98DB701A601481B590BF9
:100720006A0B7B0B89859A85AB85BC8584179507F9
:10073000A607B707E8F48BA19CA1892B61F08A8DED
:100740009B8DAC8DBD8D892B8A2B8B2B21F08B89BA
:100750009C89019769F0EF8DF8A1309721F070E046
:1007600060E0CE0109951D8A1E8A1F8A188E198E97
:1007700089899A89019709F0B8CF8B899C89813042
:10078000910509F06CC08E8D8823E1F08D898F5F13
:100790008D8B8E899F89A88DB98D892B8A2B8B2B68
:1007A00021F4CE8ADF8AE88EF98E8A8D9B8DAC8DFE
:1007B000BD8D892B8A2B8B2B21F4CA8EDB8EEC8E80
:1007C000FD8E1E8EEBA1FCA1309721F18D8988232F
:1007D00009F18A8D9B8DAC8DBD8DB701A601481B9B
:1007E000590B6A0B7B0B8D859E85AF85B8894817A1
:1007F00059076A077B0770F062E070E0CE01099547
:100800001D8A1E8A1F8A188E198E1A8E1B8E1C8EA8
:100810001D8E6BCFE9A1FAA1309709F466CF8D89BF
:10082000823008F462CF8E899F89A88DB98DC81A4D
:10083000D90AEA0AFB0A89859A85AB85BC858C159D
:100840009D05AE05BF0508F450CF61E070E0CE0114
:1008500009951D8A1E8A1F8A188E198E46CF892BEC
:10086000A1F243CF672B81F4809108019091090197
:1008700025E0289FF001299FF00D1124E756FD4F38
:10088000808191E08927808308958091E201909191
:10089000E301A091E401B091E5010196A11DB11D14
:1008A0008093E2019093E301A093E401B093E5010A
:1008B0004091040150910501052E000C660B770B49
:1008C00084179507A607B707BCF01092E2011092B3
:1008D000E3011092E4011092E5018091E601882382
:1008E00059F080910A0190910B01019797FD06C084
:1008F00090930B0180930A0181E008958FE090E0CE
:10090000F7CFFC0101900020E9F73197AF01481BB8
:10091000590BBC018CEF91E00C948D008F929F924B
:10092000AF92BF920F931F93CF93DF93CDB7DEB7F4
:10093000A1970FB6F894DEBF0FBECDBF19A242300B
:1009400008F44AE08E010F5D1F4F842E912CB12CCC
:10095000A12CA50194010E943A0FE62FB901CA010A
:10096000EA30F4F4E05DD801EE938D01232B242BC3
:10097000252B79F790E080E0109719F0CD010E94C7
:100980008104A1960FB6F894DEBF0FBECDBFDF91F4
:10099000CF911F910F91BF90AF909F908F9008952E
:1009A000E95CE1CF672BD1F48091E60191E08927E2
:1009B0008093E60184EC91E00E9481048DEC91E04B
:1009C0000E9481046091E60170E090E080E04AE0DE
:1009D0000E948E048DEC91E00C94810408951F9286
:1009E0000F920FB60F9211242F933F934F935F9363
:1009F0006F937F938F939F93AF93BF93EF93FF93E7
:100A00008CEF91E00E940B01FF91EF91BF91AF91AC
:100A10009F918F917F916F915F914F913F912F9116
:100A20000F900FBE0F901F9018951F920F920FB648
:100A30000F9211242F938F939F93EF93FF93E09145
:100A40000C02F0910D028081E0911202F0911302EC
:100A500082FD1BC09081809115028F5F8F73209162
:100A60001602821741F0E0911502F0E0E450FE4FCB
:100A7000958F80931502FF91EF919F918F912F9108
:100A80000F900FBE0F901F9018958081F4CF1F928A
:100A90000F920FB60F9211242F933F938F939F9332
:100AA000AF93BF938091E8019091E901A091EA0191
:100AB000B091EB013091E70123E0230F2D3758F57A
:100AC0000196A11DB11D2093E7018093E801909349
:100AD000E901A093EA01B093EB018091EC019091C0
:100AE000ED01A091EE01B091EF010196A11DB11DA4
:100AF0008093EC019093ED01A093EE01B093EF0190
:100B0000BF91AF919F918F913F912F910F900FBE09
:100B10000F901F90189526E8230F0296A11DB11D76
:100B2000D2CF1F920F920FB60F9211242F933F93A3
:100B30004F935F936F937F938F939F93AF93BF93E5
:100B4000EF93FF93E0910201F09103010995FF916A
:100B5000EF91BF91AF919F918F917F916F915F9135
:100B60004F913F912F910F900FBE0F901F901895AE
:100B70001F920F920FB60F9211242F933F934F9312
:100B80005F936F937F938F939F93AF93BF93EF93F5
:100B9000FF93E0910001F09101010995FF91EF9120
:100BA000BF91AF919F918F917F916F915F914F9185
:100BB0003F912F910F900FBE0F901F9018958F921D
:100BC0009F92AF92BF92CF92DF92EF92FF92CF931C
:100BD000DF931092FF011092FE0188EE93E0A0E0F7
:100BE000B0E08093000290930102A0930202B093C0
:100BF000030286EB91E09093FD018093FC0185EC6C
:100C000090E0909309028093080284EC90E0909326
:100C10000B0280930A0280EC90E090930D02809387
:100C20000C0281EC90E090930F0280930E0282EC14
:100C300090E0909311028093100286EC90E09093E4
:100C40001302809312021092150210921602109253
:100C50001702109218021092190510921A0510929C
:100C60001B0510921C0510921D05D4E1D0931E05A2
:100C70009CE2892E99249394A12CB12C80921F057B
:100C800090922005A0922105B092220528EBC22E59
:100C90002BE0D22EE12CF12CC0922305D09224051A
:100CA000E0922505F092260510922805109227055E
:100CB00010922A051092290510922B0510922C05EE
:100CC00010922D0510922E0510922F0510923005CE
:100CD00010923105109232051092330510923405AE
:100CE00085E080931605109218051092170560E0B4
:100CF0000E941302C1E0C09319051092F4041092EF
:100D0000F5041092F6041092F7041092F804D093B0
:100D1000F9048092FA049092FB04A092FC04B09231
:100D2000FD04C092FE04D092FF04E0920005F09210
:100D3000010510920305109202051092050510920C
:100D400004051092060510920705109208051092EE
:100D5000090510920A0510920B0510920C051092CD
:100D60000D0510920E0510920F0588E08093F10496
:100D70001092F3041092F20460E00E941302C093F8
:100D8000F4041092DC041092E3041092EA0410922E
:100D9000EB041092EC041092ED04C093E904C093AC
:100DA000E6041092E70482E08093E804C093DB0439
:100DB00080E390E09093E0048093DF040E94780F3A
:100DC0009093E5048093E404009709F45FC020E366
:100DD000DC011D922A95E9F780E190E09093DE0412
:100DE0008093DD0484E090E09093E2048093E1043A
:100DF0008091DC04882339F061E084E00E941302D2
:100E000084E00E94C301E2EBF0E0E491F0E0EE0F39
:100E1000FF1FEC55FF4F859194919093EF048093C1
:100E2000EE04E4E9F0E0E491E093F0041092DA03D8
:100E30001092D903EBEDF3E080E091E0DF019C013B
:100E40001D9221503040E1F7E9E9F2E025E430E07D
:100E500040E550E0CF01805B9F4F108232832183B9
:100E60005483438335968E179F07B9F7FC0183E0BF
:100E7000E93DF80779F7DF91CF91FF90EF90DF9090
:100E8000CF90BF90AF909F908F9008951092E00404
:100E90001092DF041092DE041092DD04A3CFCF93F2
:100EA000DF93CDB7DEB72D970FB6F894DEBF0FBE38
:100EB000CDBF789484B5826084BD84B5816084BDE3
:100EC00085B5826085BD85B5816085BD80916E00E8
:100ED000816080936E001092810080918100826019
:100EE0008093810080918100816080938100809156
:100EF00080008160809380008091B1008460809345
:100F0000B1008091B00081608093B00080917A0040
:100F1000846080937A0080917A00826080937A0066
:100F200080917A00816080937A0080917A00806855
:100F300080937A001092C100E0910C02F0910D02B2
:100F400082E08083E0910802F09109021082E09132
:100F50000A02F0910B028FEC808310921402E09150
:100F60001002F091110286E08083E0910E02F09170
:100F70000F02808180618083E0910E02F0910F0268
:100F8000808188608083E0910E02F0910F02808161
:100F900080688083E0910E02F0910F0280818F7D46
:100FA00080836091060170910701072E000C880B69
:100FB000990B0E94190E9B01AC0160E070E080E784
:100FC00092E40E946F0D20E030E04AEF53E40E946B
:100FD000A50E0E94E10D70930501609304018091BC
:100FE000E1049091E20497FD07C061E00E941302C2
:100FF0008091E1040E94C30181E08093DC04609150
:10100000E3046A3129F12091E4043091E504615050
:10101000C9F070E08FEF99E10E94120FF901409141
:10102000DF045091E004CF01821B930B84179507D6
:1010300060F44081469FC001479F900D112490832A
:101040003196EDCF70E060E0E9CF8AE18093E30470
:101050008BE190E00E94780F8C0143E050E062E069
:1010600070E00E944F021093F3010093F2018BE1B4
:1010700090E00E94780F8C014AE050E069E070E057
:101080000E944F021093F7010093F6018BE190E06C
:101090000E94780F8C0147E050E066E070E00E940B
:1010A0004F021093FB010093FA0123E233E03093E7
:1010B000010120930001809169008C7F8160809301
:1010C0006900E89A3093030120930201809169003E
:1010D000837F846080936900E99A0E94A402EBED0B
:1010E000F3E020813181232B09F494C3709624E02E
:1010F000EB3DF207B0F382E394E0909336058093E2
:10110000350590933805809337050CE211E020E017
:1011100030E000931F0510932005209321053093A4
:10112000220590933A058093390548EE53E060E03C
:1011300070E0409323055093240560932505709338
:10114000260582ED94E0909311058093100590930D
:101150001305809312050093FA041093FB04209367
:10116000FC043093FD04909315058093140540937F
:10117000FE045093FF046093000570930105809175
:10118000170590911805892B21F486E195E00E94BE
:1011900035038091F2049091F304892B21F481EFBF
:1011A00094E00E9435030BED13E0D8018D919C91E2
:1011B000892B09F443C00E94A4026B017C01F80151
:1011C00084819581A681B781B701A601481B590B7F
:1011D0006A0B7B0B80859185A285B38548175907DB
:1011E0006A077B0758F10190F081E02DD801129633
:1011F0008D919C910995882331F0F801848595851E
:10120000892B09F034C3D80111961C921E921396B3
:101210001C921E921297F801148215821682178270
:1012200018961D921D921D921C921B971D961C9242
:101230001E921C971F961C921E921E97005F1F4FB6
:10124000B4E00B3D1B0708F4B0CF0E94A4020BEDE5
:1012500013E0F80180819181892B09F011C3005FAF
:101260001F4FF4E00B3D1F07A0F30E94A402009162
:10127000F2011091F301C8010E94B102F801038547
:101280001485258536858091F0019091F1018017B4
:101290009107B1F0801B910B409108015091090119
:1012A000840F951F97FD409660E170E00E94260F25
:1012B00090930901809308011093F1010093F001CC
:1012C0000091F6011091F701C8010E94B102D80106
:1012D0001B96CD90DD90ED90FC901E978091F401CF
:1012E0009091F5018C159D0581F1F601E81BF90B34
:1012F000BF01660F771F6E0F7F1F809106019091CF
:101300000701680F791F7093070160930601072E8C
:10131000000C880B990B0E94190E9B01AC0160E038
:1013200070E080E792E40E946F0D20E030E04AEF29
:1013300053E40E94A50E0E94E10D70930501609395
:101340000401D092F501C092F4010091FA011091CC
:10135000FB01C8010E94B102D8011B96CD90DD901F
:10136000ED90FC901E970091F8011091F9010C1579
:101370001D0509F455C0809108019091090125E0EF
:10138000289FF001299FF00D1124E756FD4F818120
:1013900092810C191D09080F191F80179107E1F19F
:1013A00080ED91E00E9481048DEC91E00E94810427
:1013B0004801012E000CAA08BB084AE0C501B4018F
:1013C000B7FE0DC06DE28CEF91E00E942D01662703
:1013D0007727CB01681979098A099B094AE00E949D
:1013E0008E048DEC91E00E9481040038110514F008
:1013F0000FE710E0809108019091090125E0289FF6
:10140000F001299FF00D1124E756FD4F17FF02C090
:1014100010E000E012830183D092F901C092F8013C
:101420004091DF045091E00470E060E08091E404BA
:101430009091E5040E949D10E0910A01F0910B014A
:10144000FB87EA8720910801309109013D872C87AD
:10145000A9E92A2EA2E03A2E10E000E0D10111966F
:101460008D919C916CE070E00E94260FBCE0B89FCB
:10147000F001B99FF00D1124EE5DFE4F40805180C8
:101480006280738084809580A680B780C084D18478
:10149000E284F384F10180812C853D85201731079A
:1014A00009F412C2AA85BB85A017B10709F002C2D0
:1014B000882309F410C2A301920160E070E085EA7C
:1014C00093E40E94020D20E030E040E05FE30E94E0
:1014D000A50E9B01AC01C301B2010E94030D2B01BB
:1014E0003C01A501940160E070E080E89FE30E9468
:1014F000020D20E030E040E05FE30E94A50E9B017A
:10150000AC01C501B4010E94030D4B015C01A701B0
:1015100096016AE979E989E19FE30E94020D20E0E2
:1015200030E040E05FE30E94A50E9B01AC01C701E3
:10153000B6010E94030D6B017C0120E030E044EB1A
:1015400053E4C301B2010E946F0D20E03FEF4FE76B
:1015500057E40E94A50E0E94E80D9B01AAEFB5E09A
:101560000E945C0FDC01CB019058AF4FBF4FCD0103
:10157000BB2797FDB095AB2F9C018E3FE1E09E0706
:1015800008F0BEC1582E8F3F910508F4DFC14EEF21
:10159000742E781A612C55245A948091DD04909110
:1015A000DE040817190708F09CC020E030E04FE780
:1015B00053E4C501B4010E94A50E0E94E80DB62EA9
:1015C00020E030E04FE753E4C701B6010E94A50ECA
:1015D0000E94E80DE62FF0E03196EB2CF12C2FEF76
:1015E000E21AF20AB0944B2D50E05E9C90015F9C91
:1015F000300D1124232F3327240F351FDF010E94C4
:101600006B0F4B015C018824AA24BB246E9C9001C3
:101610006F9C300D1124232F3327240F351F0E9478
:101620006B0F672F782F892F9927862A972AA82A48
:10163000B92A7E9C90017F9C300D1124232F3327E3
:10164000240F351F0E946B0F982F872F762F662748
:10165000662777279927862A972AA82AB92AA501D3
:1016600066277727FF24EB2CDA2CC92C9C2D882D9C
:10167000E091E304EE2391F02E2F30E0249FC0018F
:10168000259F900D349F900D1124492FEC9D6001F2
:1016900011249D2DE89D40011124892DE091E9043C
:1016A0006091E4047091E5042091E604E21355C1D1
:1016B0009801220F331F200F311F260F371FE09193
:1016C000E604E20FF32FF11D4083E091E704E20FFF
:1016D000F32FF11D90839091E804290F311DD9015A
:1016E0008C930F5F1F4FB5E02B0E311C003111059D
:1016F00009F0B4CE8091E4049091E504892B09F4BB
:101700007CC00E947F020091EA041091EB042091BA
:10171000EC043091ED04601771078207930740F4E1
:101720006093EA047093EB048093EC049093ED04CF
:101730000091EA041091EB042091EC043091ED0447
:10174000601B710B820B930B6C327140810591050C
:10175000C0F2F8948091DF049091E0049A83898329
:10176000A091E404B091E504FD0131968C91898744
:101770009091DB04A091EE04B091EF048091F0040D
:10178000992309F4F6C09C91982B98879C91809599
:1017900089238F838F818C8388E08B8358856F8129
:1017A00049853B812C8189819A815C9347FD252F56
:1017B0003A952C93262F39F0441F00C000006C93FB
:1017C000000000C0F2CF38E041916C930000019717
:1017D00061F7B093EF04A093EE0449873B832C8319
:1017E0009A83898378940E947F026093EA047093BD
:1017F000EB048093EC049093ED0480E090E0892B5F
:1018000009F4BDCC0E94F700882309F4B8CC0E94EB
:101810000000B5CC2091D9033091DA032F5F3F4F00
:101820003093DA032093D903232B31F421E030E005
:101830003093DA032093D9032091D9033091DA034E
:101840003787268725E434E0318320831382128290
:10185000648375838683978381E090E0A0E0B0E0A5
:1018600080879187A287B3879587848744CC21E0BE
:1018700030E035872487C482D582E682F782DECCC9
:101880000E94A402D8011496CD90DD90ED90FC90BA
:1018900017976C197D098E099F091896CD90DD90D8
:1018A000ED90FC901B976C157D058E059F0508F447
:1018B000D6CCDBCC811141CEC12CD12C7601460196
:1018C00057012601370139CEC12CD12CF0E8EF2E7B
:1018D000FFE3FF2E32CE6AE9C62E69E9D62E69E112
:1018E000E62E6FE3F62E812C912C70E8A72E7FE375
:1018F000B72E412C512CE5EA6E2EE3E47E2E1DCE50
:101900008C3FF3E09F0788F48D3F42E0940738F462
:1019100032E0632E680E55245A94712C3ECE2CEF83
:10192000522E581A66246A94F8CF8A3FE5E09E0743
:1019300089F0BAEF6B2E681A2B3F344060F494E0C4
:10194000792E780E66246A94512C27CE612C772448
:101950007A9423CE612C512CFACF9801220F331F99
:10196000220F331F260F371FE20FF32FF11D1082B6
:10197000A6CE9C91982B98879C91809589238F83E4
:101980008F818E8388E08D8358856F8149853D8165
:101990002E8189819A815C9347FD252F00C000C06C
:1019A0002C9300C000C000C000C000C06C930000B9
:1019B000262F3A9541F0441F000000C000C000C02F
:1019C00000C000C0E8CF38E0419100C06C9300C077
:1019D000019709F7B093EF04A093EE0449873D8384
:1019E0002E83FECE8091E4049091E5040E941410B1
:1019F0008091E1049091E20497FD03C060E00C94B3
:101A0000130208955058BB27AA270E941A0D0C9460
:101A10006B0E0E945D0E38F00E94640E20F039F4C7
:101A20009F3F19F426F40C945A0E0EF4E095E7FB50
:101A30000C94540EE92F0E947C0E58F3BA176207DB
:101A400073078407950720F079F4A6F50C949E0E91
:101A50000EF4E0950B2EBA2FA02D0B01B9019001C9
:101A60000C01CA01A0011124FF27591B99F0593F0D
:101A700050F4503E68F11A16F040A22F232F342F55
:101A80004427585FF3CF469537952795A795F040A3
:101A90005395C9F77EF41F16BA0B620B730B840BB8
:101AA000BAF09150A1F0FF0FBB1F661F771F881F70
:101AB000C2F70EC0BA0F621F731F841F48F48795C8
:101AC00077956795B795F7959E3F08F0B0CF9395BA
:101AD000880F08F09927EE0F9795879508950E9433
:101AE000830D0C946B0E0E94640E58F00E945D0EE4
:101AF00040F029F45F3F29F00C94540E51110C94DE
:101B00009F0E0C945A0E0E947C0E68F39923B1F339
:101B1000552391F3951B550BBB27AA276217730713
:101B2000840738F09F5F5F4F220F331F441FAA1FA7
:101B3000A9F335D00E2E3AF0E0E832D09150504063
:101B4000E695001CCAF72BD0FE2F29D0660F771F11
:101B5000881FBB1F261737074807AB07B0E809F0F7
:101B6000BB0B802DBF01FF2793585F4F3AF09E3F7C
:101B7000510578F00C94540E0C949F0E5F3FE4F3E3
:101B8000983ED4F3869577956795B795F7959F5FBF
:101B9000C9F7880F911D9695879597F90895E1E00B
:101BA000660F771F881FBB1F621773078407BA076A
:101BB00020F0621B730B840BBA0BEE1F88F7E095C5
:101BC00008950E94E80D6894B1110C949F0E089539
:101BD0000E94840E88F09F5798F0B92F9927B7512B
:101BE000B0F0E1F0660F771F881F991F1AF0BA95C1
:101BF000C9F714C0B13091F00E949E0EB1E0089573
:101C00000C949E0E672F782F8827B85F39F0B93F64
:101C1000CCF3869577956795B395D9F73EF4909573
:101C20008095709561957F4F8F4F9F4F0895E894F1
:101C300009C097FB3EF490958095709561957F4F14
:101C40008F4F9F4F9923A9F0F92F96E9BB279395C2
:101C5000F695879577956795B795F111F8CFFAF4D2
:101C6000BB0F11F460FF1BC06F5F7F4F8F4F9F4F03
:101C700016C0882311F096E911C0772321F09EE861
:101C8000872F762F05C0662371F096E8862F70E0C7
:101C900060E02AF09A95660F771F881FDAF7880FA1
:101CA0009695879597F9089597F99F6780E870E072
:101CB00060E008959FEF80EC089500240A941616C2
:101CC000170618060906089500240A94121613062A
:101CD000140605060895092E0394000C11F48823B8
:101CE00052F0BB0F40F4BF2B11F460FF04C06F5FD4
:101CF0007F4F8F4F9F4F089557FD9058440F551FAA
:101D000059F05F3F71F04795880F97FB991F61F07D
:101D10009F3F79F087950895121613061406551FF4
:101D2000F2CF4695F1DF08C0161617061806991F60
:101D3000F1CF86957105610508940895E894BB2755
:101D400066277727CB0197F908950E94B80E0C9467
:101D50006B0E0E945D0E38F00E94640E20F09523F9
:101D600011F00C94540E0C945A0E11240C949F0EE6
:101D70000E947C0E70F3959FC1F3950F50E0551FA4
:101D8000629FF001729FBB27F00DB11D639FAA27D0
:101D9000F00DB11DAA1F649F6627B00DA11D661F1F
:101DA000829F2227B00DA11D621F739FB00DA11D40
:101DB000621F839FA00D611D221F749F3327A00DFA
:101DC000611D231F849F600D211D822F762F6A2F96
:101DD00011249F5750409AF0F1F088234AF0EE0FFB
:101DE000FF1FBB1F661F771F881F91505040A9F728
:101DF0009E3F510580F00C94540E0C949F0E5F3F53
:101E0000E4F3983ED4F3869577956795B795F79563
:101E1000E7959F5FC1F7FE2B880F911D96958795DB
:101E200097F90895AA1BBB1B51E107C0AA1FBB1F4E
:101E3000A617B70710F0A61BB70B881F991F5A9556
:101E4000A9F780959095BC01CD01089597FB072EC9
:101E500016F4009407D077FD09D00E94120F07FCFA
:101E600005D03EF4909581959F4F089570956195AA
:101E70007F4F0895A1E21A2EAA1BBB1BFD010DC0C6
:101E8000AA1FBB1FEE1FFF1FA217B307E407F5072A
:101E900020F0A21BB30BE40BF50B661F771F881F06
:101EA000991F1A9469F760957095809590959B019C
:101EB000AC01BD01CF010895A29FB001B39FC00145
:101EC000A39F700D811D1124911DB29F700D811D66
:101ED0001124911D08950E945C0FB7FF0895821B85
:101EE000930B0895EE0FFF1F0590F491E02D0994D8
:101EF0000F931F93CF93DF938230910510F482E00C
:101F000090E0E0913D05F0913E0530E020E0B0E04A
:101F1000A0E0309799F42115310509F44AC0281B37
:101F2000390B24303105D8F58A819B816115710503
:101F300089F1FB0193838283FE0111C040815181AD
:101F40000281138148175907E0F04817590799F49F
:101F5000109761F012960C93129713961C93329679
:101F6000CF01DF91CF911F910F91089500933D050F
:101F700010933E05F4CF2115310551F04217530758
:101F800038F0A901DB019A01BD01DF01F801C1CFE1
:101F9000EF01F9CF90933E0580933D05CDCFFE0133
:101FA000E20FF31F819391932250310939832883E3
:101FB000D7CF20913B0530913C05232B41F4209154
:101FC0000E0130910F0130933C0520933B05209189
:101FD0000C0130910D012115310541F42DB73EB7AB
:101FE0004091100150911101241B350BE0913B05EC
:101FF000F0913C05E217F307A0F42E1B3F0B2817C6
:10200000390778F0AC014E5F5F4F2417350748F071
:102010004E0F5F1F50933C0540933B058193919376
:102020009FCFF0E0E0E09CCFCF93DF930097E9F003
:10203000FC01329713821282A0913D05B0913E05BA
:10204000ED0130E020E01097A1F420813181820F72
:10205000931F20913B0530913C052817390709F063
:1020600061C0F0933C05E0933B05DF91CF9108956B
:10207000EA01CE17DF07E8F54A815B819E01411531
:102080005105B1F7E901FB83EA8349915991C40FE6
:10209000D51FEC17FD0761F4808191810296840FB2
:1020A000951FE90199838883828193819B838A8329
:1020B000F0E0E0E012968D919C9113970097B9F5AE
:1020C0002D913C911197CD010296820F931F209183
:1020D0003B0530913C052817390739F6309751F503
:1020E00010923E0510923D05B0933C05A0933B0530
:1020F000BCCFD383C28340815181840F951FC81701
:10210000D90761F44E5F5F4F88819981480F591F4D
:10211000518340838A819B8193838283211531057A
:1021200009F0B0CFF0933E05E0933D059ECFFD0151
:10213000DC01C0CF13821282D7CFDC0101C06D93C6
:1021400041505040E0F7089510E0C2E6D0E004C0EE
:10215000FE010E94720F2196C336D107C9F7F89489
:10216000FFCFB002B002FA007800010001000000C9
:102170003F05800000FF0100010000FFFF0000019B
:102180000001FF00000000000000803F9A99193F05
:102190000000F0410000803F9A99193F0000704212
:1021A0000000803F9A99193F0000B4420000803F30
:1021B0009A99193F0000F0420000803F9A99193F18
:1021C000000016430000803F9A99193F00003443F5
:1021D0000000803F9A99193F000052430000803F61
:1021E0009A99193F000070430000803F9A99193F67
:1021F000000087430000803F9A99193F00009643F2
:102200000000803F9A99193F0000A5430000803FDD
:102210009A99193F000000002D018D00BA007A0143
:10222000EB00C900DD00506C6179696E673A000D02
:102230000A004E6F7465206368616E676564207480
:042240006F3A0000F1
:107E0000112484B714BE81FFF0D085E080938100F7
:107E100082E08093C00088E18093C10086E0809377
:107E2000C20080E18093C4008EE0C9D0259A86E02C
:107E300020E33CEF91E0309385002093840096BBD3
:107E4000B09BFECF1D9AA8958150A9F7CC24DD24C4
:107E500088248394B5E0AB2EA1E19A2EF3E0BF2EE7
:107E6000A2D0813461F49FD0082FAFD0023811F036
:107E7000013811F484E001C083E08DD089C08234E0
:107E800011F484E103C0853419F485E0A6D080C0E4
:107E9000853579F488D0E82EFF2485D0082F10E0AE
:107EA000102F00270E291F29000F111F8ED06801E7
:107EB0006FC0863521F484E090D080E0DECF843638
:107EC00009F040C070D06FD0082F6DD080E0C81688
:107ED00080E7D80618F4F601B7BEE895C0E0D1E017
:107EE00062D089930C17E1F7F0E0CF16F0E7DF06D8
:107EF00018F0F601B7BEE89568D007B600FCFDCFD4
:107F0000A601A0E0B1E02C9130E011968C91119780
:107F100090E0982F8827822B932B1296FA010C0160
:107F200087BEE89511244E5F5F4FF1E0A038BF0790
:107F300051F7F601A7BEE89507B600FCFDCF97BE46
:107F4000E89526C08437B1F42ED02DD0F82E2BD052
:107F50003CD0F601EF2C8F010F5F1F4F84911BD097
:107F6000EA94F801C1F70894C11CD11CFA94CF0C13
:107F7000D11C0EC0853739F428D08EE10CD085E9AC
:107F80000AD08FE07ACF813511F488E018D01DD067
:107F900080E101D065CF982F8091C00085FFFCCF94
:107FA0009093C60008958091C00087FFFCCF809118
:107FB000C00084FD01C0A8958091C6000895E0E648
:107FC000F0E098E1908380830895EDDF803219F02E
:107FD00088E0F5DFFFCF84E1DECF1F93182FE3DFCA
:107FE0001150E9F7F2DF1F91089580E0E8DFEE27F6
:047FF000FF270994CA
:027FFE00040479
:00000001FF
