:100000000C9463000C94300C0C94090C0C948B0031
:100010000C948B000C948B000C948B000C948B0034
:100020000C948B000C948B000C948B000C948B0024
:100030000C948B000C948B000C948B000C948B0014
:100040000C94BF0B0C948B000C948D0B0C94670BD1
:100050000C948B000C948B000C948B000C948B00F4
:100060000C94570C0C948B00000000002400270017
:100070002A000000000023002600290000000008DC
:10008000000201000003040700000000000000005F
:10009000010204081020408001020408102001021F
:1000A0000408102000000000250028002B00040494
:1000B0000404040404040202020202020303030310
:1000C00003033B0E860D11241FBECFEFD8E0DEBF29
:1000D000CDBF12E0A0E0B1E0ECECFEE202C0059082
:1000E0000D92AE33B107D9F726E0AEE3B2E001C01E
:1000F0001D92A936B207E1F710E0C2E6D0E004C0D5
:100100002197FE010E941C16C136D107C9F70E9433
:10011000D20F0C9459170C940000CF93DF93EC018D
:1001200068856A3101F129853A856150B9F070E03E
:100130008FEF99E10E94B415F9014C815D81CF01E7
:10014000821B930B8417950760F44081469FC00182
:10015000479F900D112490833196EFCF70E060E0BF
:10016000EBCF8AE18887DF91CF910895AF92BF925C
:10017000CF92DF92EF92FF920F931F93CF93DF9373
:100180006C017B018B01040F151FEB015E01AE18A2
:10019000BF08C017D10759F06991D601ED91FC91C4
:1001A0000190F081E02DC6010995892B79F7C501F1
:1001B000DF91CF911F910F91FF90EF90DF90CF9043
:1001C000BF90AF900895FC01538D448D252F30E0F2
:1001D000842F90E0821B930B541710F0CF96089554
:1001E00001970895FC01918D828D981761F0A28D81
:1001F000AE0FBF2FB11D5D968C91928D9F5F9F7347
:10020000928F90E008958FEF9FEF0895FC01918DFC
:10021000828D981731F0828DE80FF11D858D90E069
:1002200008958FEF9FEF0895FC01918D228D892F06
:1002300090E0805C9F4F821B91098F7399270895EE
:1002400085ED92E00E94140121E0892B09F420E061
:10025000822F089580E090E0892B29F00E942001F0
:1002600081110C9400000895FC01A48DA80FB92FF2
:10027000B11DA35ABF4F2C91848D90E001968F73CE
:100280009927848FA689B7892C93A089B1898C91ED
:10029000837080648C93938D848D981306C002883C
:1002A000F389E02D80818F7D80830895EF92FF9206
:1002B0000F931F93CF93DF93EC0181E0888F9B8D89
:1002C0008C8D98131AC0E889F989808185FF15C043
:1002D0009FB7F894EE89FF896083E889F989808166
:1002E0008370806480839FBF81E090E0DF91CF9135
:1002F0001F910F91FF90EF900895F62E0B8D10E057
:100300000F5F1F4F0F731127E02E8C8D8E110CC0C5
:100310000FB607FCFACFE889F989808185FFF5CF10
:10032000CE010E943401F1CFEB8DEC0FFD2FF11DBA
:10033000E35AFF4FF0829FB7F8940B8FEA89FB894D
:1003400080818062CFCFCF93DF93EC01888D8823AB
:10035000B9F0AA89BB89E889F9898C9185FD03C028
:10036000808186FD0DC00FB607FCF7CF8C9185FF0D
:10037000F2CF808185FFEDCFCE010E943401E9CF1D
:10038000DF91CF910895833081F028F4813099F086
:100390008230A9F008958730A9F08830C9F0843000
:1003A000B1F4809180008F7D03C0809180008F77B1
:1003B00080938000089584B58F7784BD089584B5B7
:1003C0008F7DFBCF8091B0008F778093B000089530
:1003D0008091B0008F7DF9CFCF93DF93282F30E04D
:1003E000F901E458FF4F8491F901E057FF4FD49190
:1003F000F901E255FF4FC491CC23A1F081110E9475
:10040000C301EC2FF0E0EE0FFF1FEE58FF4FA59158
:10041000B491EC91ED2381E090E009F480E0DF916C
:10042000CF91089580E090E0FACF1F93CF93DF93B0
:10043000282F30E0F901E458FF4F8491F901E0578B
:10044000FF4FD491F901E255FF4FC491CC23A9F09D
:10045000162F81110E94C301EC2FF0E0EE0FFF1F59
:10046000EC55FF4FA591B4918FB7F894EC91111111
:1004700008C0D095DE23DC938FBFDF91CF911F9111
:100480000895DE2BF8CFCF93DF9390E0FC01E05787
:10049000FF4F249182559F4FFC0184918823C9F01E
:1004A00090E0880F991FFC01E859FF4FA591B49186
:1004B000FC01EC55FF4FC591D49161110DC09FB760
:1004C000F8948C91209582238C938881282328830B
:1004D0009FBFDF91CF910895623051F49FB7F89498
:1004E0003C91822F809583238C93E8812E2BEFCF34
:1004F0008FB7F894EC912E2B2C938FBFEACF1F93DC
:10050000CF93DF93EC01862F142F688379834A837E
:100510005B8321E030E03D832C8362E00E94430254
:1005200062E0812F0E94430288810E94EC01182F13
:100530008A810E94EC01880F991F812B8E831F8274
:10054000188619861A861B861C861D861E861F869F
:10055000188A198A1A8ADF91CF911F9108953FB79F
:10056000F8948091B8029091B902A091BA02B0912A
:10057000BB0226B5A89B05C02F3F19F00196A11D0F
:10058000B11D3FBFBA2FA92F982F8827BC01CD01DD
:10059000620F711D811D911D42E0660F771F881F3C
:1005A000991F4A95D1F708952FB7F8946091B40236
:1005B0007091B5028091B6029091B7022FBF089555
:1005C00008950F931F93CF93DF93EC0188810E94CE
:1005D000EC01182F8A810E94EC01880F991F812B52
:1005E0009E81981709F44DC0EE810F8118852985E9
:1005F0003A8594E0E902F0011124482F082E000CFE
:10060000550BE42BF52BEE52FE4F9081492F990F9D
:10061000550B660B770B400F511F621F731F4F83E3
:10062000588769877A878E832C813D8122303105F6
:1006300031F12330310551F12130310511F583308D
:1006400001F58F819885A985BA8532E0B595A79582
:10065000979587953A95D1F78B879C87AD87BE870D
:100660008B899C89AD89BE898F8B988FA98FBA8F12
:100670000E94D4026B8B7C8B8D8B9E8B02C0882357
:1006800001F3DF91CF911F910F910895882311F00D
:100690008330B9F78F819885A985BA85B595A795D7
:1006A00097958795D9CF8091C7029091C8020C94F5
:1006B000E1028091CB029091CC020C94E1028091F6
:1006C000CF029091D0020C94E1020C945F03CF9280
:1006D000DF92EF92FF920F931F93CF93DF93FC0172
:1006E00021813281232BC1F5EC010E94D4020C81BF
:1006F0001D812E813F816B017C01C01AD10AE20A63
:10070000F30A2885022F10E030E020E0C016D10661
:10071000E206F30608F16C837D838E839F838881D4
:100720000E94EC014B812B893C893A8B298B48171D
:100730001906D9F481E090E09C8B8B8B0E94D40247
:100740006B017C0189899A89892B91F48B899C8919
:10075000019771F481E08E8FDF91CF911F910F91FE
:10076000FF90EF90DF90CF9008951C8A1B8AE6CF10
:100770008D898823A1F189A19AA1892B99F08E896D
:100780009F89A88DB98DB701A601481B590B6A0B2B
:100790007B0B89859A85AB85BC8584179507A60751
:1007A000B707E8F48BA19CA1892B61F08A8D9B8D02
:1007B000AC8DBD8D892B8A2B8B2B21F08B899C894D
:1007C000019769F0EF8DF8A1309721F070E060E0BB
:1007D000CE0109951D8A1E8A1F8A188E198E898955
:1007E0009A89019709F0B8CF8B899C89813091054E
:1007F00009F06CC08E8D8823E1F08D898F5F8D8B21
:100800008E899F89A88DB98D892B8A2B8B2B21F4FA
:10081000CE8ADF8AE88EF98E8A8D9B8DAC8DBD8D58
:10082000892B8A2B8B2B21F4CA8EDB8EEC8EFD8ECE
:100830001E8EEBA1FCA1309721F18D89882309F14F
:100840008A8D9B8DAC8DBD8DB701A601481B590BC0
:100850006A0B7B0B8D859E85AF85B8894817590734
:100860006A077B0770F062E070E0CE0109951D8A8F
:100870001E8A1F8A188E198E1A8E1B8E1C8E1D8E34
:100880006BCFE9A1FAA1309709F466CF8D89823048
:1008900008F462CF8E899F89A88DB98DC81AD90AAC
:1008A000EA0AFB0A89859A85AB85BC858C159D056E
:1008B000AE05BF0508F450CF61E070E0CE010995A8
:1008C0001D8A1E8A1F8A188E198E46CF892BA1F287
:1008D00043CF8F929F92AF92BF92CF92DF92EF92CF
:1008E000FF921F93CF93DF93FC014A01AA24BB24FC
:1008F000C82DC32ED42EE52EFF241C2DD22F80858B
:10090000882361F0889E40011124C92D8C9D6001CF
:1009100011241D2D829FD0011124DB2FA685E18497
:10092000F2849385A91322C0CB01880F991F680F09
:10093000791F6E0D7F1DA385A60FB72FB11DCC9318
:10094000A485A60FB72FB11D1C938585680F711D57
:10095000FB01D083DF91CF911F91FF90EF90DF904B
:10096000CF90BF90AF909F908F900895660F771FA4
:10097000660F771F6E0D7F1D252F332744275527C0
:10098000882349F090E0829F7001839FF00C929F32
:10099000F00C11242F2DA60FB72FB11D2C93CBCF08
:1009A000CF92DF92EF92FF920F931F93CF93DF933B
:1009B000CDB7DEB729970FB6F894DEBF0FBECDBF17
:1009C0008C010E94AF02D8011F96CD90DD90ED9072
:1009D000FC9052976C157D058E059F0528F4F80153
:1009E0006787708B818B928BD8011F96CD90DD909D
:1009F000ED90FC9052976C197D098E099F096C321D
:100A0000714081059105E8F2F894F801848195819F
:100A10009A8389830184F285E02D7F012FEFE21A0A
:100A2000F20A80818F83D8019C915396ED91FC91BD
:100A3000549755968C91992309F448C09081982B2E
:100A40009887908180958923898789858B8388E021
:100A50008C83588569854F813C812B8189819A815E
:100A6000D701508347FD252F3A952083262F39F053
:100A7000441F00C000006083000000C0F2CF38E0D7
:100A80004D9160830000019761F7D8015496FC9363
:100A9000EE9353974F833C832B839A838983789477
:100AA0000E94AF02F8016787708B818B928B299629
:100AB0000FB6F894DEBF0FBECDBFDF91CF911F916F
:100AC0000F91FF90EF90DF90CF9008959081982B39
:100AD0009887908180958923898789858D8388E08F
:100AE0008E83588569854F813E812D8189819A81C8
:100AF000D701508347FD252F00C000C0208300C0D0
:100B000000C000C000C000C060830000262F3A95DE
:100B100041F0441F000000C000C000C000C000C081
:100B2000E8CF38E04D9100C0608300C0019709F71D
:100B3000D8015496FC93EE9353974F833E832D83B5
:100B4000ACCF8F929F92AF92BF92EF92FF920F9392
:100B50001F93CF93DF93C62F9C01AAEFB5E00E94AD
:100B6000FE15DC01CB019058AF4FBF4FCD01BB2725
:100B700097FDB095AB2F8E3F21E0920708F059C04A
:100B8000382F8F3F910508F473C05EEF581BE0E0EB
:100B90003FEF042F10E00F5F1F4FEC2EF12C8FEF73
:100BA000E81AF80AC095D0E03E9DC0013F9D900D27
:100BB0001124292F33272C0F3D1FD8010E940D1619
:100BC0004B015C018824AA24BB24EE9D9001EF9D7B
:100BD000300D1124232F33272C0F3D1F0E940D169B
:100BE000672F782F892F9927862A972AA82AB92A2A
:100BF0005E9D90015F9D300D1124232F33272C0F14
:100C00003D1F0E940D16982F872F762F6627662787
:100C100077279927682979298A299B29DF91CF91FC
:100C20001F910F91FF90EF90BF90AF909F908F908A
:100C300008958C3F23E0920760F4E2E0E80F3FEF75
:100C40008D3F22E0920718F03CEF381BEFEF50E0A9
:100C5000A0CF8A3F25E0920771F0EAEFE81B8B3FB7
:100C600024E0920748F454E0580FEFEF30E091CFC2
:100C7000E0E05FEF8ECFE0E030E0FBCFCF93DF939B
:100C8000EC018E819F8197FD07C061E00E944302C5
:100C900060E08E810E94150281E08983DF91CF910F
:100CA000089520916702260F3327331F2132310523
:100CB000ECF420918B02FC0190E080E0243069F09C
:100CC00082E00895A09167022191AC01495B5D4FDC
:100CD000A40FB52FB11D2C930196861798F3809120
:100CE0006702680F6093670280E0089581E00895CD
:100CF00008958FEF9FEF08958FEF9FEF08958091F4
:100D0000400290E09195819591090895CF93DF93EA
:100D1000CB01EA01642F0E945106CE01DF91CF91F1
:100D20000895CF93DF931F92CDB7DEB7698361E05B
:100D3000CE0101960E94510681E090E00F90DF9174
:100D4000CF91089590E080E00895672B31F4809171
:100D50003E0291E0892780933E020895623071053A
:100D6000E1F48091B6049091B70421E5289FF00149
:100D7000299FF00D1124EE58FC4F90E080E045E4EF
:100D800050E020E530E01082528341833483238396
:100D90000196359680319105B1F70895672BE1F4FE
:100DA0002091B6043091B70480910A0190910B0113
:100DB00045E0489FF001499FF00D112441E5429F15
:100DC000C001439F900D1124E80FF91FEE58FC4F0E
:100DD000808191E08927808308950CB405FC0DC0C3
:100DE0009EBD00000DB407FEFDCF9EB58EBD000078
:100DF0000DB407FEFDCF8EB508958EBD00000DB475
:100E000007FEFDCF8EB59EBD00000DB407FEFDCFE1
:100E10009EB50895CF93DF93EC018091B1028823B2
:100E200061F08FB7F8949091B1029130C9F59DB3FC
:100E300090933F029DB39DBB8FBF80E58CBD81E049
:100E40008DBD8D81882361F060E088810E9415024C
:100E500089819A810E94ED0661E088810E941502D5
:100E60008E81882361F060E088810E9415028B8169
:100E70009C810E94ED0661E088810E9415028091AC
:100E8000B102882351F09FB7F8942091B10280916C
:100E90003F02213041F48DBB9FBFDF91CF91089578
:100EA00080933F02CACF8FBFF8CFFC010190002092
:100EB000E9F73197AF01481B590BBC0185ED92E072
:100EC0000C94B6008F929F92AF92BF920F931F9394
:100ED000CF93DF93CDB7DEB7A1970FB6F894DEBFFF
:100EE0000FBECDBF19A2423008F44AE08E010F5D5B
:100EF0001F4F842E912CB12CA12CA50194010E948E
:100F0000DC15E62FB901CA01EA30F4F4E05DD8013E
:100F1000EE938D01232B242B252B79F790E080E095
:100F2000109719F0CD010E945507A1960FB6F894BD
:100F3000DEBF0FBECDBFDF91CF911F910F91BF904C
:100F4000AF909F908F900895E95CE1CFCF92DF92B0
:100F5000EF92FF92CF93DF9397FF1BC06B017C0151
:100F60006DE285ED92E00E945601EC01662777273D
:100F7000CB016C197D098E099F094AE00E94620726
:100F80008C0F9D1FDF91CF91FF90EF90DF90CF905E
:100F900008954AE0DF91CF91FF90EF90DF90CF90DE
:100FA0000C946207672BC9F48091BC0291E08927F9
:100FB0008093BC0288EF91E00E94550781E092E0A7
:100FC0000E9455076091BC0270E090E080E00E94B2
:100FD000A60781E092E00C94550708952F923F9266
:100FE0004F925F926F927F928F929F92AF92BF9239
:100FF000CF92DF92EF92FF920F931F93CF93DF93E5
:10100000CDB7DEB72C970FB6F894DEBF0FBECDBFBD
:10101000E2EECE2EE1E0DE2E02E713E0412C512C71
:101020003201F5E02F2EA0E58A2E912C72018091DD
:10103000B8049091B904289EF001299EF00D112466
:10104000E00FF11F3080332001F183819481B401DE
:101050000E94C815209104013091050140910601BC
:1010600050910701DB010E94141633243394209120
:10107000BD023091BE024091BF025091C0022617BE
:1010800037074807590708F0312C580120E5A20E10
:10109000B11CF5018081831509F476C0F6018081C9
:1010A000332009F434C261E00E9415028091B80433
:1010B0009091B904289EF001299EF00D112421E59C
:1010C0002E9DC0012F9D900D1124E80FF91FEE58A1
:1010D000FC4F61817281072E000C880B990B0E94D6
:1010E000BB1426E031E84AE252E40E94471520E0B2
:1010F00030E040E05FE30E94AC130E948A1442E0BB
:10110000E416F10409F4DDC1E3E0EE16F10409F49C
:10111000EBC1EA94EF2809F4C1C12091F0053091A8
:10112000F1052227307F611540E1740710F06FEF61
:101130007FE0622B732B7093F1056093F00584E0E0
:1011400092E00E945507C301B2010E94A60785E103
:1011500092E00E9455076091C1027091C202809195
:10116000C3029091C4024AE00E94620781E092E0CB
:101170000E9455078FEE95E00E940A0788EE95E0E1
:101180000E940A07F50130820F5A1F4FFFEF4F1AD6
:101190005F0A6F0A7F0A2FEFC21AD20A44E0441690
:1011A00051046104710409F041CF4091D60550917A
:1011B000D70570E060E08091DB059091DC050E942E
:1011C000521710E000E07CE0272E312C2091B6046D
:1011D0003091B70485E0809FF001819FF00D1124CC
:1011E00041E5429FC001439F900D1124E80FF91F74
:1011F000EE58FC4F81819281B1010E94C8152CE00C
:10120000289FD001299FB00D1124AE5EBE4F8D9056
:101210009D90AD90BC90139714964D905D906D90FD
:101220007C9017971896CD90DD90ED90FC901B97D1
:1012300080812091B8043091B90440910A01509105
:101240000B010417150709F48BC10217130709F0E6
:101250007DC1882309F48BC1A501940160E070E091
:1012600085EA93E40E94AB1320E030E040E05FE3C6
:101270000E9447159B01AC01C501B4010E94AC134B
:101280004B015C01A301920160E070E080E89FE304
:101290000E94AB1320E030E040E05FE30E9447157E
:1012A0009B01AC01C301B2010E94AC132B013C01B4
:1012B000A70196016AE979E989E19FE30E94AB13EE
:1012C00020E030E040E05FE30E9447159B01AC0165
:1012D000C701B6010E94AC136B017C0120E030E035
:1012E0004FE753E4C701B6010E9447150E948A14D4
:1012F000F62E20E030E04FE753E4C301B2010E9434
:1013000047150E948A14E62E20E030E044EB53E4B7
:10131000C501B4010E94181420E03FEF4FE757E4E5
:101320000E9447150E948A14CB014F2D6E2D0E94FA
:10133000A1059B01AC018091D4059091D5050817BA
:10134000190728F4B80182ED95E00E9469040F5F47
:101350001F4F0031110509F039CF8091DB059091C5
:10136000DC05892B21F082ED95E00E94D0044091AC
:10137000C0055091C10570E060E08091C505909175
:10138000C6050E94521782EAE82E81E0F82E10E08E
:1013900000E095E0D92E21E5C22E8CE0F701DE01B8
:1013A000119601900D928A95E1F7F70144805580DE
:1013B000668077808091B6049091B704801791077A
:1013C00009F0EAC089809A80AB80BC8069857A8503
:1013D0008B859C8520E030E04FE753E40E94471561
:1013E0000E948A14362E20E030E04FE753E4C30118
:1013F000B2010E9447150E948A14762E20E030E048
:1014000044EB53E4C501B4010E94181420E03FEFFF
:101410004FE757E40E9447150E948A14CB01432DE1
:10142000672D0E94A1059B01AC018091BE059091A2
:10143000BF050817190728F4B8018CEB95E00E9446
:1014400069040F5F1F4FFCE0EF0EF11C0430110523
:1014500009F0A3CF8091C5059091C605892B21F095
:101460008CEB95E00E94D00481E02C960FB6F894A6
:10147000DEBF0FBECDBFDF91CF911F910F91FF90C7
:10148000EF90DF90CF90BF90AF909F908F907F9024
:101490006F905F904F903F902F9008952091F205AC
:1014A0003091F3052227307F611580E1780710F035
:1014B0006FEF7FE0622B732B7093F3056093F2055F
:1014C0003ECE2091E9053091EA052227307F611553
:1014D000E0E17E0710F06FEF7FE0622B732B7093DB
:1014E000EA056093E9052BCE2091EB053091EC05E0
:1014F0002227307F6115F0E17F0710F06FEF7FE06A
:10150000622B732B7093EC056093EB0518CE60E0B3
:101510000E9415028AE192E00E945507C301B201C0
:101520000E94A60785E192E00E9455076091C102E2
:101530007091C2028091C3029091C4024AE00E945D
:10154000620781E092E00E9455071CCE8111C6CE51
:10155000C12CD12C76012601370157014601BECEA0
:10156000C12CD12C60E8E62E6FE3F62EB7CE3AE917
:10157000C32E39E9D32E39E1E32E3FE3F32E412C7C
:10158000512C40E8642E4FE3742E812C912C55EAA7
:10159000A52E53E4B52EA2CE80809180A280B38088
:1015A0008091B8049091B904D89EF001D99EF00DB5
:1015B0001124C09EC001C19E900D1124E80FF91F97
:1015C000EE58FC4F8081882329F066E676E686EEA9
:1015D0009EE300CF60E070E0CB012B013C015C0199
:1015E0004B01F8CE1F93CF93DF9385ED8093BC0022
:1015F0008091430290914402A0914502B09146022D
:101600000796A11DB11D23E0B695A79597958795DF
:101610002A95D1F72091BC0024FD03C010928B02C3
:1016200052C0409143025091440260914502709132
:101630004602452B462B472B69F30097A105B105C0
:1016400041F025E32A95F1F700000197A109B109BE
:10165000E1CF80914202C1E0C0934102882399F119
:10166000D091B8001091BA008091BC008A7B809321
:10167000BC0060E082E10E94150260E083E10E940C
:10168000150210928B02C0938D0210928C0261E0C1
:1016900082E10E94150261E083E10E9415028091BF
:1016A000B9008E7F8093B9008091B9008D7F8093BF
:1016B000B90088E48093B80085E48093BC0010935F
:1016C000BA00D093B800DF91CF911F9108951F9277
:1016D0000F920FB60F9211242F933F934F935F9366
:1016E0006F937F938F939F93AF93BF93EF93FF93EA
:1016F00085ED92E00E943401FF91EF91BF91AF918F
:101700009F918F917F916F915F914F913F912F9119
:101710000F900FBE0F901F9018951F920F920FB64B
:101720000F9211242F938F939F93EF93FF93E09148
:10173000E502F091E6028081E091EB02F091EC028B
:1017400082FD1BC090818091EE028F5F8F7320918C
:10175000EF02821741F0E091EE02F0E0EB52FD4F14
:10176000958F8093EE02FF91EF919F918F912F9132
:101770000F900FBE0F901F9018958081F4CF1F928D
:101780000F920FB60F9211242F933F938F939F9335
:10179000AF93BF938091B4029091B502A091B6022D
:1017A000B091B7023091B30223E0230F2D3758F5E3
:1017B0000196A11DB11D2093B3028093B4029093B2
:1017C000B502A093B602B093B7028091B80290918F
:1017D000B902A091BA02B091BB020196A11DB11D40
:1017E0008093B8029093B902A093BA02B093BB025F
:1017F000BF91AF919F918F913F912F910F900FBE0D
:101800000F901F90189526E8230F0296A11DB11D79
:10181000D2CF1F920F920FB60F9211242F933F93A6
:101820004F935F936F937F938F939F93AF93BF93E8
:10183000EF93FF93E0910201F09103010995FF916D
:10184000EF91BF91AF919F918F917F916F915F9138
:101850004F913F912F910F900FBE0F901F901895B1
:101860001F920F920FB60F9211242F933F934F9315
:101870005F936F937F938F939F93AF93BF93EF93F8
:10188000FF93E0910001F09101010995FF91EF9123
:10189000BF91AF919F918F917F916F915F914F9188
:1018A0003F912F910F900FBE0F901F9018951F9290
:1018B0000F920FB60F9211242F933F934F935F9384
:1018C0006F937F938F939F93AF93BF93EF93FF9308
:1018D0008091B900887F803609F44AC0F0F58832DB
:1018E00009F4A5C018F5803109F499C0B8F488232B
:1018F00009F4F5C0883009F492C0FF91EF91BF91CF
:10190000AF919F918F917F916F915F914F913F9197
:101910002F910F900FBE0F901F901895883109F4EA
:1019200086C0803251F780938A0214C0803409F453
:101930009BC040F48033B9F38833F9F680938A0270
:1019400085ECAEC0803509F483C0883509F494C0B5
:10195000883499F60E94F20AD0CF883909F48AC0F7
:1019600038F5883729F050F4883611F0803729F699
:1019700083E080938B021092890255C0883809F465
:1019800079C0803919F0803809F0B7CF8091890289
:10199000803208F06FC0E091890281E08E0F809361
:1019A00089028091BB00F0E0E759FD4F80833BC086
:1019B000803B39F0D0F4803A09F477C0883A09F0D6
:1019C0009CCF84E080938B02109268021092670291
:1019D000F0E0E0E009958091670281110FC081E09D
:1019E000809367021092470209C0803C09F4A8CF97
:1019F000883C09F4A5CF883B09F07FCFE0916802CD
:101A000081E08E0F80936802F0E0E95BFD4F8081FA
:101A10008093BB00909168028091670229C08091F9
:101A2000B0028093BB0085EC8093BC0066CF9091A0
:101A3000AF028091AE02981758F5E091AF0281E0B5
:101A40008E0F8093AF02F0E0E257FD4F8081E9CF27
:101A5000E091AF0281E08E0F8093AF028091BB00D6
:101A6000F0E0E257FD4F80839091AF028091AE028B
:101A70009817C8F285E8D8CFE091AF0281E08E0FC9
:101A80008093AF028091BB00F0E0E257FD4F80836E
:101A900080918D0281115ECF81E080938C0284EA77
:101AA0008093BC0010928B0228CF85EC8093BC0001
:101AB00010928B0280918902803230F4E091890289
:101AC000F0E0E759FD4F10826091890270E089E6ED
:101AD00092E0F0E0E0E00995109289020ECF1092BA
:101AE0008A0238CF9FB7F8948091B202882319F008
:101AF00081508093B2028091B202811105C08CB5F1
:101B00008F7B8CBD1092B1029FBF08958091C50557
:101B10009091C6050E94C9168091C2059091C30597
:101B200097FD03C060E00E9443028091DB05909125
:101B3000DC050E94C9168091D8059091D90597FDC2
:101B400003C060E00E9443020E94720D0C94720D6B
:101B5000CF93CFB7F8948091B202811127C0E8EB00
:101B6000F0E08491EAE9F0E09491E82FF0E0EE0FE4
:101B7000FF1FE859FF4FA591B491EC91E92321F49F
:101B800061E08AE00E94150261E08AE00E9443025F
:101B90008CB580618CBD8CB580648CBD61E08DE0BE
:101BA0000E94430261E08BE00E9443028091B202F6
:101BB0008F5F8093B202CFBFCF910895CF92DF9213
:101BC000EF92FF920F931F93CF93DF93EC016B0182
:101BD000F42EE52E198218861F86188A198A1A8A09
:101BE00081E08E878B871C8692E09D8788838B019E
:101BF000000F111F060F171F1D830C83C8010E94C1
:101C00002D169A878987009789F1A80170E060E016
:101C10000E945217DB82CA82FE82EF82898188236A
:101C200041F061E08F2D0E94430260E08F2D0E9401
:101C300015028F2D9E2DFC01E255FF4FE491F0E03F
:101C4000EE0FFF1FEC55FF4F259134913C8B2B8BF2
:101C5000FC01E057FF4FE491ED8BDF91CF911F9195
:101C60000F91FF90EF90DF90CF9008951D821C821E
:101C70001B821A82D1CF8F929F92AF92BF92CF9246
:101C8000DF92EF92FF920F931F93CF93DF93109207
:101C9000D8021092D70288EE93E0A0E0B0E08093E3
:101CA000D9029093DA02A093DB02B093DC028AEEB1
:101CB00091E09093D6028093D50285EC90E09093CA
:101CC000E2028093E10284EC90E09093E40280933E
:101CD000E30280EC90E09093E6028093E50281ECD1
:101CE00090E09093E8028093E70282EC90E090937A
:101CF000EA028093E90286EC90E09093EC028093F4
:101D0000EB021092EE021092EF021092F00210928B
:101D1000F10210924306109244061092450610926A
:101D2000460610924706D4E1D09348068CE2882EEE
:101D300099249394A12CB12C8092490690924A0642
:101D4000A0924B06B0924C0698EBC92E9BE0D92E80
:101D5000E12CF12CC0924D06D0924E06E0924F0637
:101D6000F0925006109252061092510610925406AC
:101D7000109253061092550610925606109257066E
:101D8000109258061092590610925A0610925B064D
:101D900010925C0610925D0610925E0685E08093BC
:101DA0004006109242061092410660E00E944302F3
:101DB000C1E0C093430610921E0610921F061092B7
:101DC00020061092210610922206D09323068092BC
:101DD000240690922506A0922606B0922706C0926D
:101DE0002806D0922906E0922A06F0922B0610923D
:101DF0002D0610922C0610922F0610922E0610928D
:101E0000300610923106109232061092330610926C
:101E1000340610923506109236061092370610924C
:101E200038061092390688E080931B0610921D0632
:101E300010921C0660E00E944302C0931E0610929E
:101E4000F9051092FA051092FB051092FC0510920C
:101E5000FD05D093FE058092FF0590920006A092AA
:101E60000106B0920206C0920306D0920406E092E8
:101E70000506F092060610920806109207061092C8
:101E80000A061092090610920B0610920C06109288
:101E90000D0610920E0610920F0610921006109268
:101EA00011061092120610921306109214068BE07F
:101EB0008093F6051092F8051092F70560E00E94F5
:101EC0004302C093F9051092EF051092F1051092AC
:101ED000F0051092F4051092F50500E010E810935B
:101EE000F3050093F2050E94A80DC093E805109237
:101EF000EA051092E9051092ED051092EE05109397
:101F0000EC050093EB050E94A80D44E050E060E171
:101F100070E082ED95E00E94DE0D42E150E064E069
:101F200070E08CEB95E00E94DE0D1092BB041092E5
:101F3000BA04ECEBF4E080E091E0DF019C011D923B
:101F400021503040E1F782E793E025E430E040E5BE
:101F500050E0DC01A05BBF4FFC0110823283218383
:101F6000548343833596AE17BF07B9F71C928F5A37
:101F70009F4F64E0863B960761F71092B70410927A
:101F8000B6041092B9041092B804DF91CF911F915A
:101F90000F91FF90EF90DF90CF90BF90AF909F9008
:101FA0008F900895789484B5826084BD84B58160F3
:101FB00084BD85B5826085BD85B5816085BD809114
:101FC0006E00816080936E0010928100809181008C
:101FD0008260809381008091810081608093810084
:101FE000809180008160809380008091B100846046
:101FF0008093B1008091B00081608093B0008091A7
:102000007A00846080937A0080917A008260809365
:102010007A0080917A00816080937A0080917A00C2
:10202000806880937A001092C100E091E502F091FF
:10203000E60282E08083E091E102F091E202108208
:10204000E091E302F091E4028FEC80831092ED02C4
:10205000E091E902F091EA0286E08083E091E702F4
:10206000F091E802808180618083E091E702F09145
:10207000E802808188608083E091E702F091E802C5
:10208000808180688083E091E702F091E80280819E
:102090008F7D80836091080170910901072E000CEB
:1020A000880B990B0E94BB149B01AC0160E070E0AF
:1020B00080E792E40E94181420E034E244EF58E4F0
:1020C0000E9447150E948A146093040170930501D1
:1020D000809306019093070182ED95E00E943E06F1
:1020E00082ED95E00E948D008CEB95E00E943E060B
:1020F0008CEB95E00E948D008BE190E00E942D1604
:10210000EC0143E050E062E070E00E947F02D09377
:10211000C802C093C7028BE190E00E942D16EC012B
:102120004AE050E069E070E00E947F02D093CC0268
:10213000C093CB028BE190E00E942D16EC0147E0AA
:1021400050E066E070E00E947F02D093D002C0931E
:10215000CF028BE190E00E942D16EC014FE050E0A1
:102160006EE070E00E947F02D093D402C093D3024D
:1021700023E533E030930101209300018091690051
:102180008C7F816080936900E89A309303012093EB
:10219000020180916900837F846080936900E99ADD
:1021A0000E94D402ECEBF4E020813181232B09F46E
:1021B00084C2709625E0EC3BF207B0F38EEC96E01B
:1021C0009093600680935F06909362068093610609
:1021D0004CE251E060E070E04093490650934A06BB
:1021E00060934B0670934C068EEA96E090936406DB
:1021F0008093630688EE93E0A0E0B0E080934D0604
:1022000090934E06A0934F06B093500622ED37E010
:1022100030933B0620933A0630933D0620933C06CC
:102220004093240650932506609326067093270654
:1022300030933F0620933E0680932806909329060C
:10224000A0932A06B0932B0625EA36E030931606B3
:102250002093150630931806209317064093FF0528
:1022600050930006609301067093020630931A069D
:10227000209319068093030690930406A093050605
:10228000B093060661E08091EF050E94430261E091
:102290008091EF050E94150261E08091E8050E949F
:1022A000430261E08091E8050E9415028091F005EB
:1022B0009091F10590619093F1058093F00581E094
:1022C0008093F4052091F2053091F305306130934D
:1022D000F3052093F2058093F5052091E9053091EF
:1022E000EA0530613093EA052093E9058093ED0516
:1022F0002091EB053091EC0530613093EC05209393
:10230000EB058093EE05C2EED1E0199161E0812FDB
:102310000E94430260E0812F0E94150231E0C63E18
:10232000D30799F744244394512C60E1662E712C15
:1023300075E0272E04E010E0EFE0EE2EF12C40E0F7
:10234000C42E40E0D42E31E5332E0E94AF02AB0103
:10235000BC018091BD029091BE02A091BF02B091DC
:10236000C0028090C1029090C202A090C302B090BF
:10237000C40288199909AA09BB09840F951FA61FD1
:10238000B71F8093BD029093BE02A093BF02B0938B
:10239000C0024093C1025093C2026093C302709383
:1023A000C4024091040150910501609106017091B1
:1023B000070184179507A607B707B8F01092BD026A
:1023C0001092BE021092BF021092C0028091BC0215
:1023D000882359F08091B8049091B904019797FD32
:1023E00099C19093B9048093B804CCEBD4E0888170
:1023F0009981892B99F10E94D4024B015C018C8157
:102400009D81AE81BF81B501A401481B590B6A0BA8
:102410007B0B88859985AA85BB85481759076A076C
:102420007B07E0F0E881F9818A819B810995882307
:1024300029F08C859D85892B09F071C1198218823C
:102440001B821A821C821D821E821F821886198698
:102450001A861B861D861C861F861E86609685E052
:10246000CC3BD80720F20E94D402CCEBD4E0888188
:102470009981892B09F05AC1609625E0CC3BD2079F
:10248000B0F30E94D40280E496E00E9467038BE1DF
:1024900096E00E94670386EF95E00E946703C09173
:1024A000C702D091C802CE010E94E1028B849C84B5
:1024B000AD84BE848091C5029091C60288159905AD
:1024C000A9F08819990920910A0130910B01820F16
:1024D000931F97FD4096B3010E94C81590930B017E
:1024E00080930A019092C6028092C502C091CB02ED
:1024F000D091CC02CE010E94E1028B849C84AD84F9
:10250000BE848091C9029091CA0288159905A1F1F3
:10251000B401681B790BCB01880F991F680F791FD5
:102520008091080190910901680F791F709309014A
:1025300060930801072E000C880B990B0E94BB14B6
:102540009B01AC0160E070E080E792E40E94181407
:1025500020E034E244EF58E40E9447150E948A14B8
:102560006093040170930501809306019093070125
:102570009092CA028092C902C091CF02D091D0023B
:10258000CE010E94E1028B849C84AD84BE84C09104
:10259000CD02D091CE02C815D90509F459C02091B9
:1025A0000A0130910B014091B6045091B704229E6C
:1025B000C001239E900D1124349E9001359E300D54
:1025C0001124820F931FFC01EE58FC4F81819281F0
:1025D000C819D909C80FD91F8C179D07A9F18DE219
:1025E00092E00E94550781E092E00E945507BE01EB
:1025F0000D2E000C880B990B0E94A60781E092E03B
:102600000E945507C038D10514F0CFE7D0E02091E3
:102610000A0130910B014091B6045091B704229EFB
:10262000C001239E900D1124349E9001359E300DE3
:102630001124820F931FFC01EE58FC4FD7FF02C0FC
:10264000D0E0C0E0D283C1839092CE028092CD02CE
:10265000C091D302D091D402CE010E94E1028B84BA
:102660009C84AD84BE848091D1029091D202881561
:102670009905B9F09401281B390BC9012091B604C2
:102680003091B704820F931FB8010E94C81597FDBF
:1026900004969093B7048093B6049092D2028092ED
:1026A000D102C114D10409F450CE0E942001882324
:1026B00009F449CE0E94000042CE2091BA04309124
:1026C000BB042F5F3F4F3093BB042093BA04232BEE
:1026D00031F421E030E03093BB042093BA04209120
:1026E000BA043091BB04378726872EEE37E031835A
:1026F000208313821282648375838683978381E0AB
:1027000090E0A0E0B0E080879187A287B3879587AB
:10271000848754CDF092B904E092B80466CE5D8609
:102720004C868C829D82AE82BF8298CE0E94D4025B
:102730008C809D80AE80BF80681979098A099B09C9
:1027400088849984AA84BB84681579058A059B05C9
:1027500008F492CE96CE5058BB27AA270E94C313E6
:102760000C940D150E94FF1438F00E94061520F0FD
:1027700039F49F3F19F426F40C94FC140EF4E09500
:10278000E7FB0C94F614E92F0E941E1558F3BA17B4
:10279000620773078407950720F079F4A6F50C9477
:1027A00040150EF4E0950B2EBA2FA02D0B01B901A8
:1027B00090010C01CA01A0011124FF27591B99F0B7
:1027C000593F50F4503E68F11A16F040A22F232FC3
:1027D000342F4427585FF3CF469537952795A79513
:1027E000F0405395C9F77EF41F16BA0B620B730BBA
:1027F000840BBAF09150A1F0FF0FBB1F661F771F2B
:10280000881FC2F70EC0BA0F621F731F841F48F4DF
:10281000879577956795B795F7959E3F08F0B0CF68
:102820009395880F08F09927EE0F9795879508954F
:102830000E942C140C940D150E94061558F00E944D
:10284000FF1440F029F45F3F29F00C94F614511165
:102850000C9441150C94FC140E941E1568F39923E6
:10286000B1F3552391F3951B550BBB27AA2762178C
:102870007307840738F09F5F5F4F220F331F441F99
:10288000AA1FA9F335D00E2E3AF0E0E832D09150CD
:102890005040E695001CCAF72BD0FE2F29D0660FBA
:1028A000771F881FBB1F261737074807AB07B0E8FD
:1028B00009F0BB0B802DBF01FF2793585F4F3AF003
:1028C0009E3F510578F00C94F6140C9441155F3F2F
:1028D000E4F3983ED4F3869577956795B795F79589
:1028E0009F5FC9F7880F911D9695879597F9089571
:1028F000E1E0660F771F881FBB1F6217730784070D
:10290000BA0720F0621B730B840BBA0BEE1F88F71B
:10291000E09508950E94261588F09F5798F0B92FEA
:102920009927B751B0F0E1F0660F771F881F991F04
:102930001AF0BA95C9F714C0B13091F00E94401551
:10294000B1E008950C944015672F782F8827B85F61
:1029500039F0B93FCCF3869577956795B395D9F75C
:102960003EF490958095709561957F4F8F4F9F4F66
:102970000895E89409C097FB3EF490958095709572
:1029800061957F4F8F4F9F4F9923A9F0F92F96E9BB
:10299000BB279395F695879577956795B795F11130
:1029A000F8CFFAF4BB0F11F460FF1BC06F5F7F4FCD
:1029B0008F4F9F4F16C0882311F096E911C07723DF
:1029C00021F09EE8872F762F05C0662371F096E8E8
:1029D000862F70E060E02AF09A95660F771F881FB7
:1029E000DAF7880F9695879597F9089597F99F6775
:1029F00080E870E060E008959FEF80EC0895002487
:102A00000A941616170618060906089500240A9453
:102A100012161306140605060895092E0394000CD9
:102A200011F4882352F0BB0F40F4BF2B11F460FF68
:102A300004C06F5F7F4F8F4F9F4F089557FD905891
:102A4000440F551F59F05F3F71F04795880F97FB72
:102A5000991F61F09F3F79F087950895121613062C
:102A60001406551FF2CF4695F1DF08C0161617065B
:102A70001806991FF1CF8695710561050894089590
:102A8000E894BB2766277727CB0197F908950E9422
:102A90005A150C940D150E94FF1438F00E9406156B
:102AA00020F0952311F00C94F6140C94FC141124CE
:102AB0000C9441150E941E1570F3959FC1F3950F5C
:102AC00050E0551F629FF001729FBB27F00DB11DB2
:102AD000639FAA27F00DB11DAA1F649F6627B00D42
:102AE000A11D661F829F2227B00DA11D621F739F2B
:102AF000B00DA11D621F839FA00D611D221F749F39
:102B00003327A00D611D231F849F600D211D822F7F
:102B1000762F6A2F11249F5750409AF0F1F08823A6
:102B20004AF0EE0FFF1FBB1F661F771F881F9150D3
:102B30005040A9F79E3F510580F00C94F6140C9478
:102B400041155F3FE4F3983ED4F3869577956795FA
:102B5000B795F795E7959F5FC1F7FE2B880F911DFD
:102B60009695879597F90895AA1BBB1B51E107C05D
:102B7000AA1FBB1FA617B70710F0A61BB70B881F0D
:102B8000991F5A95A9F780959095BC01CD0108959C
:102B900097FB072E16F4009407D077FD09D00E940A
:102BA000B41507FC05D03EF4909581959F4F08958C
:102BB000709561957F4F0895A1E21A2EAA1BBB1B49
:102BC000FD010DC0AA1FBB1FEE1FFF1FA217B307F9
:102BD000E407F50720F0A21BB30BE40BF50B661F0F
:102BE000771F881F991F1A9469F7609570958095D3
:102BF00090959B01AC01BD01CF010895A29FB0014A
:102C0000B39FC001A39F700D811D1124911DB29F20
:102C1000700D811D1124911D08950E94FE15B7FFAE
:102C20000895821B930B0895B7FF0C9422160E94FF
:102C30002216821B930B0895EE0FFF1F0590F4914F
:102C4000E02D09940E94FE15A59F900DB49F900D54
:102C5000A49F800D911D112408950F931F93CF936E
:102C6000DF938230910510F482E090E0E0916706F6
:102C7000F091680630E020E0B0E0A0E0309799F4F1
:102C80002115310509F44AC0281B390B24303105C0
:102C9000D8F58A819B816115710589F1FB019383C8
:102CA0008283FE0111C04081518102811381481746
:102CB0005907E0F04817590799F4109761F01296F8
:102CC0000C93129713961C933296CF01DF91CF91FC
:102CD0001F910F9108950093670610936806F4CF33
:102CE0002115310551F04217530738F0A901DB01D6
:102CF0009A01BD01DF01F801C1CFEF01F9CF909337
:102D0000680680936706CDCFFE01E20FF31F819323
:102D100091932250310939832883D7CF20916506BA
:102D200030916606232B41F420910E0130910F0162
:102D3000309366062093650620910C0130910D01B9
:102D40002115310541F42DB73EB740911001509146
:102D50001101241B350BE0916506F0916606E21720
:102D6000F307A0F42E1B3F0B2817390778F0AC01AE
:102D70004E5F5F4F2417350748F04E0F5F1F50938B
:102D8000660640936506819391939FCFF0E0E0E063
:102D90009CCFCF93DF930097E9F0FC013297138229
:102DA0001282A0916706B0916806ED0130E020E044
:102DB0001097A1F420813181820F931F2091650625
:102DC000309166062817390709F061C0F09366064E
:102DD000E0936506DF91CF910895EA01CE17DF07F2
:102DE000E8F54A815B819E0141155105B1F7E90182
:102DF000FB83EA8349915991C40FD51FEC17FD0756
:102E000061F4808191810296840F951FE901998375
:102E10008883828193819B838A83F0E0E0E012962D
:102E20008D919C9113970097B9F52D913C91119735
:102E3000CD010296820F931F2091650630916606A0
:102E40002817390739F6309751F510926806109215
:102E50006706B0936606A0936506BCCFD383C28392
:102E600040815181840F951FC817D90761F44E5FC7
:102E70005F4F88819981480F591F518340838A8110
:102E80009B81938382832115310509F0B0CFF093A4
:102E90006806E09367069ECFFD01DC01C0CF138278
:102EA0001282D7CFDC0101C06D9341505040E0F752
:102EB000089510E0C2E6D0E004C0FE010E941C1696
:0C2EC0002196C336D107C9F7F894FFCF64
:102ECC00E002E002FA000000780001000000690650
:102EDC008000000000000000803F9A99193F00001C
:102EEC00F0410000803F9A99193F000070420000A9
:102EFC00803F9A99193F0000B4420000803F9A9994
:102F0C00193F0000F0420000803F9A99193F0000E1
:102F1C0016430000803F9A99193F0000344300008B
:102F2C00803F9A99193F000052430000803F9A99C4
:102F3C00193F000070430000803F9A99193F000030
:102F4C0087430000803F9A99193F00009643000088
:102F5C00803F9A99193F0000A5430000803F9A9941
:102F6C00193F0000F0428FC2353FAE47613F000071
:102F7C0052438FC2353FAE47613F000096438FC22C
:102F8C00353FAE47613F0000F0418FC2353FAE4741
:102F9C00613F00FF0100010000FFFF000001000184
:102FAC00FF000D0C1011000000005601B600E300EC
:102FBC00A3011401F2000601506C6179696E673A45
:102FCC00000D0A004E6F7465206F6E206F6E2074BA
:102FDC007261636B0020617420004E6F7465206F0A
:102FEC006666206F6E20747261636B20004E6F7486
:0E2FFC0065206368616E67656420746F3A003B
:00000001FF
