:100000000C945E000C9486000C9486000C94860080
:100010000C9486000C9486000C9486000C94860048
:100020000C9486000C9486000C9486000C94860038
:100030000C9486000C9486000C9486000C94860028
:100040000C949C070C9486000C946A070C9444074B
:100050000C9486000C9486000C9486000C94860008
:100060000C94E6070C948600000000002400270092
:100070002A0000000008000201000003040700003D
:10008000000000000000010204081020408001026E
:1000900004081020010204081020000000002500C0
:1000A00028002B00040404040404040402020202D5
:1000B0000202030303030303CD09170911241FBE22
:1000C000CFEFD8E0DEBFCDBF12E0A0E0B1E0E0E6C8
:1000D000F1E202C005900D92A634B107D9F725E0F0
:1000E000A6E4B2E001C01D92AA32B207E1F710E027
:1000F000CDE5D0E004C02197FE010E94660FCC350B
:10010000D107C9F70E94A00A0C94A3100C94000018
:10011000CF93DF93EC016885693201F129853A8537
:100120006150B9F070E08FEF98E20E94FE0EF90185
:100130004C815D81CF01821B930B8417950760F47E
:100140004081469FC001479F900D112490833196B6
:10015000EFCF70E060E0EBCF89E28887DF91CF914D
:1001600008950895CF93DF93AC01E091E802F091F8
:10017000E9023097F1F09091E7028091E60298173A
:10018000C0F090E0292F30E02617370754F4D9014A
:10019000A95BBD4F240F351FE90128812C939F5F78
:1001A000F1CF1092E7026093E602CB01DF91CF918D
:1001B0000994DF91CF910895AF92BF92CF92DF92D1
:1001C000EF92FF920F931F93CF93DF936C017B010C
:1001D0008B01040F151FEB015E01AE18BF08C0179D
:1001E000D10759F06991D601ED91FC910190F08110
:1001F000E02DC6010995892B79F7C501DF91CF91D3
:100200001F910F91FF90EF90DF90CF90BF90AF9034
:100210000895FC01538D448D252F30E0842F90E00C
:10022000821B930B541710F0CF96089501970895F1
:10023000FC01918D828D981761F0A28DAE0FBF2FBA
:10024000B11D5D968C91928D9F5F9F73928F90E010
:1002500008958FEF9FEF0895FC01918D828D98177F
:1002600031F0828DE80FF11D858D90E008958FEFBC
:100270009FEF0895FC01918D228D892F90E0805C85
:100280009F4F821B91098F73992708958BEE92E0FF
:100290000E943A0121E0892B09F420E0822F089581
:1002A00080E090E0892B29F00E94460181110C9496
:1002B00000000895FC01A48DA80FB92FB11DA35A09
:1002C000BF4F2C91848D90E001968F739927848F76
:1002D000A689B7892C93A089B1898C918370806499
:1002E0008C93938D848D981306C00288F389E02D3A
:1002F00080818F7D80830895EF92FF920F931F93EB
:10030000CF93DF93EC0181E0888F9B8D8C8D9813C8
:100310001AC0E889F989808185FF15C09FB7F894D4
:10032000EE89FF896083E889F98980818370806420
:1003300080839FBF81E090E0DF91CF911F910F916B
:10034000FF90EF900895F62E0B8D10E00F5F1F4F7A
:100350000F731127E02E8C8D8E110CC00FB607FC89
:10036000FACFE889F989808185FFF5CFCE010E9417
:100370005A01F1CFEB8DEC0FFD2FF11DE35AFF4F2A
:10038000F0829FB7F8940B8FEA89FB8980818062A5
:10039000CFCFCF93DF93EC01888D8823B9F0AA8962
:1003A000BB89E889F9898C9185FD03C0808186FD30
:1003B0000DC00FB607FCF7CF8C9185FFF2CF80817F
:1003C00085FFEDCFCE010E945A01E9CFDF91CF9199
:1003D000089590E0FC01EE58FF4F2491FC01EA578C
:1003E000FF4F3491FC01EC55FF4FE491EE23C9F02F
:1003F000222339F0233001F1A8F4213019F1223001
:1004000029F1F0E0EE0FFF1FE656FF4FA591B491E2
:100410008FB7F894EC91611126C030953E233C9340
:100420008FBF08952730A9F02830C9F0243049F74C
:10043000809180008F7D03C0809180008F778093B2
:100440008000DFCF84B58F7784BDDBCF84B58F7D0F
:10045000FBCF8091B0008F778093B000D2CF809196
:10046000B0008F7DF9CF3E2BDACFCF93DF9390E0B2
:10047000FC01EA57FF4F24918C559F4FFC0184915A
:100480008823D1F090E0880F991FFC01E859FF4FB5
:10049000A591B491FC01E656FF4FC591D49161112D
:1004A0000EC09FB7F8948C91E22FE0958E238C9329
:1004B0002881E223E8839FBFDF91CF9108958FB712
:1004C000F894EC91E22BEC938FBFF6CF3FB7F89402
:1004D0008091DC029091DD02A091DE02B091DF02FA
:1004E00026B5A89B05C02F3F19F00196A11DB11D8F
:1004F0003FBFBA2FA92F982F8827BC01CD01620FCB
:10050000711D811D911D42E0660F771F881F991F85
:100510004A95D1F708958F929F92AF92BF92CF9252
:10052000DF92EF92FF921F93CF93DF93FC014A017A
:10053000AA24BB24C82DC32ED42EE52EFF241C2DA7
:10054000D22F8085882361F0889E40011124C92D17
:100550008C9D600111241D2D829FD0011124DB2F61
:10056000A685E184F2849385A91322C0CB01880F6C
:10057000991F680F791F6E0D7F1DA385A60FB72FDA
:10058000B11DCC93A485A60FB72FB11D1C938585F3
:10059000680F711DFB01D083DF91CF911F91FF90F8
:1005A000EF90DF90CF90BF90AF909F908F90089585
:1005B000660F771F660F771F6E0D7F1D252F332760
:1005C00044275527882349F090E0829F7001839F3C
:1005D000F00C929FF00C11242F2DA60FB72FB11DF8
:1005E0002C93CBCFCF92DF92EF92FF920F931F937A
:1005F000CF93DF93CDB7DEB729970FB6F894DEBF60
:100600000FBECDBF8C010E946602D8011F96CD900F
:10061000DD90ED90FC9052976C157D058E059F0541
:1006200028F4F8016787708B818B928BD8011F9615
:10063000CD90DD90ED90FC9052976C197D098E095C
:100640009F096C32714081059105E8F2F894F80138
:10065000848195819A8389830184F285E02D7F01CD
:100660002FEFE21AF20A80818F83D8019C91539672
:10067000ED91FC91549755968C91992309F448C0BB
:100680009081982B98879081809589238987898587
:100690008B8388E08C83588569854F813C812B81D1
:1006A00089819A81D701508347FD252F3A95208370
:1006B000262F39F0441F00C000006083000000C0F6
:1006C000F2CF38E04D9160830000019761F7D801C7
:1006D0005496FC93EE9353974F833C832B839A83DA
:1006E000898378940E946602F8016787708B818BFA
:1006F000928B29960FB6F894DEBF0FBECDBFDF9167
:10070000CF911F910F91FF90EF90DF90CF900895C0
:100710009081982B988790818095892389878985F6
:100720008D8388E08E83588569854F813E812D8138
:1007300089819A81D701508347FD252F00C000C0D1
:10074000208300C000C000C000C000C06083000063
:10075000262F3A9541F0441F000000C000C000C0A1
:1007600000C000C0E8CF38E04D9100C0608300C0F9
:10077000019709F7D8015496FC93EE9353974F8352
:100780003E832D83ACCFCF93DF93EC018E819F818D
:1007900097FD07C061E00E94350260E08E810E94F3
:1007A000E90181E08983DF91CF91089520918D0245
:1007B000260F3327331F21323105ECF42091B1028B
:1007C000FC0190E080E0243069F082E00895A0917F
:1007D0008D022191AC0143595D4FA40FB52FB11D7E
:1007E0002C930196861798F380918D02680F609381
:1007F0008D0280E0089581E008951092B10281E0B9
:100800008093B3021092B20261E082E10E94E9019A
:1008100061E083E10E94E901E9EBF0E080818E7FF5
:10082000808380818D7F808388E48093B80085E415
:100830008093BC0008950895E091E7028091E6025C
:10084000E81730F4F0E0E95BFD4F808190E0089517
:100850008FEF9FEF08959091E7028091E6022FEFCE
:100860003FEF981748F4E92FF0E0E95BFD4F208156
:1008700030E09F5F9093E702C90108958091E602FE
:100880009091E702891B990B0895CF93DF93CB01D9
:10089000EA01642F0E94D603CE01DF91CF91089523
:1008A000CF93DF931F92CDB7DEB7698361E0CE01AE
:1008B00001960E94D60381E090E00F90DF91CF91E6
:1008C000089590E080E008958F929F92AF92BF923A
:1008D000EF92FF920F931F93CF93DF937C0120E061
:1008E00030E04FE753E4FC01608571858285938594
:1008F0000E94910E0E94D40D062F20E030E04FE7B9
:1009000053E4F70164817581868197810E94910E7D
:100910000E94D40DC62F20E030E044EB53E4F701F1
:1009200060817181828193810E94620D20E03FEF9E
:100930004FE757E40E94910E0E94D40D9B01AAEF4D
:10094000B5E00E94480FDC01CB019058AF4FBF4F7C
:10095000CD01BB2797FDB095AB2F8E3FF1E09F07F0
:1009600008F058C0382F8F3F910508F475C04EEF3E
:10097000481B50E03FEF10E00F5F1F4FEC2EF12CB3
:100980008FEFE81AF80AC095D0E03E9DC0013F9D68
:10099000900D1124292F33272C0F3D1FD8010E94C1
:1009A000570F4B015C018824AA24BB245E9D900153
:1009B0005F9D300D1124232F33272C0F3D1F0E94E4
:1009C000570F672F782F892F9927862A972AA82AC9
:1009D000B92A4E9D90014F9D300D1124232F3327AE
:1009E0002C0F3D1F0E94570F982F872F762F6627B9
:1009F000662777279927682979298A299B29DF91F2
:100A0000CF911F910F91FF90EF90BF90AF909F906B
:100A10008F9008958C3F23E0920768F48D3FE2E0C9
:100A20009E0728F452E0580F3FEF40E0A4CF3CEF80
:100A3000381B5FEFFACF8A3FF5E09F0781F08B3FCD
:100A400024E0920728F444E0480F5FEF30E093CFB2
:100A50005AEF581B30E001C050E04FEF8CCF50E010
:100A6000F9CFFC0101900020E9F73197AF01481B55
:100A7000590BBC018BEE92E00C94DC008AE092E012
:100A80000C9431058F929F92AF92BF920F931F9358
:100A9000CF93DF93CDB7DEB7A1970FB6F894DEBF43
:100AA0000FBECDBF19A2423008F44AE08E010F5D9F
:100AB0001F4F842E912CB12CA12CA50194010E94D2
:100AC000260FE62FB901CA01EA30F4F4E05DD8013F
:100AD000EE938D01232B242B252B79F790E080E0DA
:100AE000109719F0CD010E943105A1960FB6F89428
:100AF000DEBF0FBECDBFDF91CF911F910F91BF9091
:100B0000AF909F908F900895E95CE1CFCF92DF92F4
:100B1000EF92FF92CF93DF936B017C016DE28BEE3E
:100B200092E00E947C01EC0166277727CB016C19CB
:100B30007D098E099F094AE00E9442058C0F9D1F86
:100B4000DF91CF91FF90EF90DF90CF900895BC019F
:100B5000990F880B990B97FD0C9486054AE00C942D
:100B60004205EF92FF920F931F93CF93DF9388E894
:100B700093E00E942B047C0188E893E00E942B0400
:100B8000EC0188E893E00E942B048C01EA94EF28A2
:100B900009F0F7C0C130D10509F468C054F4CD2B79
:100BA00009F44FC0DF91CF911F910F91FF90EF900B
:100BB0000895C230D10509F496C0239799F782E3CE
:100BC00092E00E94310580911C0590911D050E94C4
:100BD000A7050E943E0583E292E00E943105C09184
:100BE0001C05D0911D050130110509F0C8C02197E1
:100BF000D7FD2496CE010E94A7050E943E05809154
:100C00001C0590911D058C1B9D0B97FDE3C08DE08D
:100C100092E00E9431050E943E05CE0164E070E042
:100C20000E94120F90931D0580931C058EE292E0A6
:100C30000E94310580911C0590911D050E94A70519
:100C40008EC080912005909121050130110561F43D
:100C5000019697FD409660E170E00E94120F90931C
:100C60002105809320059ECF0197F3CF8091120537
:100C7000909113050130110569F5059684319105B0
:100C80005CF584E190E090931305809312056091E8
:100C9000120570911305072E000C880B990B0E940A
:100CA000050E9B01AC0160E070E080E792E40E94D9
:100CB000620D20E034E244EF58E40E94910E0E945D
:100CC000D40D6093140570931505809316059093C9
:100CD000170568CF0597D2CF8D3221E092079CF29D
:100CE0008CE291E0D0CF20911C0530911D05409100
:100CF00020055091210585E0849FF001859FF00D2E
:100D0000112461E5629FC001639F900D1124E80FDB
:100D1000F91FE253FC4FA181B2810130110539F571
:100D2000AF37B10534F5119665E0649FF001659F1A
:100D3000F00D112461E5629FA001639F500D112405
:100D4000E40FF51FE253FC4FB283A183BD010B2ECC
:100D5000000C880B990BB7FF0EC00E948605DF912F
:100D6000CF911F910F91FF90EF900C943E05B7FD2E
:100D7000DBCF1197D9CF4AE00E944205F0CF2196F0
:100D800037CF209701F1219709F00CCF20911C0556
:100D900030911D05809120059091210545E0489FE7
:100DA000F001499FF00D112441E5429FC001439F8E
:100DB000900D1124E80FF91FE253FC4F838191E05D
:100DC00089278383EFCE8091EA0291E0892780937F
:100DD000EA02E8CE88E192E01CCFCF93DF9385ED65
:100DE0008093BC008091690290916A02A0916B028D
:100DF000B0916C020796A11DB11D23E0B695A79591
:100E0000979587952A95D1F72091BC0024FD03C0C2
:100E10001092B10236C04091690250916A0260910D
:100E20006B0270916C02452B462B472B69F30097A0
:100E3000A105B10541F025E32A95F1F700000197DE
:100E4000A109B109E1CF8091680291E09093670216
:100E50008823B9F0C091B800D091BA008091BC004D
:100E60008A7B8093BC0060E082E10E94E90160E03F
:100E700083E10E94E9010E94FD03D093BA00C09370
:100E8000B800DF91CF9108951F920F920FB60F9285
:100E900011242F933F934F935F936F937F938F937F
:100EA0009F93AF93BF93EF93FF938BEE92E00E94DB
:100EB0005A01FF91EF91BF91AF919F918F917F91D7
:100EC0006F915F914F913F912F910F900FBE0F90B7
:100ED0001F9018951F920F920FB60F9211242F9307
:100EE0008F939F93EF93FF93E091FB02F091FC02AD
:100EF0008081E0910103F091020382FD1BC090818B
:100F0000809104038F5F8F7320910503821741F056
:100F1000E0910403F0E0E551FD4F958F80930403C9
:100F2000FF91EF919F918F912F910F900FBE0F9096
:100F30001F9018958081F4CF1F920F920FB60F92D9
:100F400011242F933F938F939F93AF93BF938091DF
:100F5000D8029091D902A091DA02B091DB023091CF
:100F6000D70223E0230F2D3758F50196A11DB11D9F
:100F70002093D7028093D8029093D902A093DA02EB
:100F8000B093DB028091DC029091DD02A091DE0241
:100F9000B091DF020196A11DB11D8093DC029093F8
:100FA000DD02A093DE02B093DF02BF91AF919F916B
:100FB0008F913F912F910F900FBE0F901F9018951A
:100FC00026E8230F0296A11DB11DD2CF1F920F92CA
:100FD0000FB60F9211242F933F934F935F936F930C
:100FE0007F938F939F93AF93BF93EF93FF938091E2
:100FF000B900887F803609F44AC0F0F5883209F4D8
:10100000A7C018F5803109F49BC0B8F4882309F40F
:10101000F9C0883009F494C0FF91EF91BF91AF916E
:101020009F918F917F916F915F914F913F912F9100
:101030000F900FBE0F901F901895883109F488C04B
:10104000803251F78093B00214C0803409F49DC0FF
:1010500040F48033B9F38833F9F68093B00285EC1D
:10106000B0C0803509F485C0883509F496C088344D
:1010700099F60E94ED06D0CF883909F48CC038F576
:10108000883729F050F4883611F0803729F683E04C
:101090008093B1021092AF0257C0883809F47BC028
:1010A000803919F0803809F0B7CF8091AF028032D3
:1010B00008F071C0E091AF0281E08E0F8093AF0223
:1010C0008091BB00F0E0E157FD4F80833DC0803B45
:1010D00039F0E0F4803A09F479C0883A09F09CCFFD
:1010E00084E08093B10210928E0210928D02E09102
:1010F000E202F091E302099580918D0281110FC007
:1011000081E080938D0210926D0209C0803C09F449
:10111000A6CF883C09F4A3CF883B09F07DCFE091AE
:101120008E0281E08E0F80938E02F0E0E359FD4F36
:1011300080818093BB0090918E0280918D0229C0A6
:101140008091D6028093BB0085EC8093BC0064CF75
:101150009091D5028091D402981758F5E091D5026C
:1011600081E08E0F8093D502F0E0EC54FD4F80813A
:10117000E9CFE091D50281E08E0F8093D502809176
:10118000BB00F0E0EC54FD4F80839091D50280913C
:10119000D4029817C8F285E8D8CFE091D50281E053
:1011A0008E0F8093D5028091BB00F0E0EC54FD4F90
:1011B00080838091B30281115CCF81E08093B20281
:1011C00084EA8093BC001092B10226CF85EC809314
:1011D000BC001092B1028091AF02803230F4E091F5
:1011E000AF02F0E0E157FD4F10826091AF0270E076
:1011F000E091E002F091E1028FE892E0099510920F
:10120000AF020ACF1092B00234CF9FB7F89480910A
:101210004602882319F0815080934602809146024D
:10122000811103C08CB58F7B8CBD9FBF08950E9438
:1012300005090E9405098091AB039091AC030E94BF
:1012400013108091A8039091A90397FD03C060E05B
:101250000E9435028091C1039091C2030E94131035
:101260008091BE039091BF0397FD03C060E00C9492
:1012700035020895CF93CFB7F8948091460281113B
:1012800027C0EEEAF0E08491E0E9F0E09491E82FE5
:10129000F0E0EE0FFF1FE859FF4FA591B491EC91DC
:1012A000E92321F461E08AE00E94E90161E08AE03B
:1012B0000E9435028CB580618CBD8CB580648CBD7C
:1012C00061E08DE00E94350261E08BE00E94350212
:1012D000809146028F5F80934602CFBFCF910895E1
:1012E000CF92DF92EF92FF920F931F93CF93DF93F2
:1012F000EC016B01F42EE52E198218861F86188AE0
:10130000198A1A8A81E08E878B871C8692E09D87D6
:1013100088838B01000F111F060F171F1D830C837D
:10132000C8010E94770F9A878987009789F1A801E1
:1013300070E060E00E949C10DB82CA82FE82EF8235
:101340008981882341F061E08F2D0E94350260E0A1
:101350008F2D0E94E9018F2D9E2DFC01EC55FF4F32
:10136000E491F0E0EE0FFF1FE656FF4F2591349118
:101370003C8B2B8BFC01EA57FF4FE491ED8BDF9107
:10138000CF911F910F91FF90EF90DF90CF90089534
:101390001D821C821B821A82D1CFCF93DF931092C1
:1013A000EE021092ED0288EE93E0A0E0B0E08093B0
:1013B000EF029093F002A093F102B093F2022AEEB2
:1013C00031E03093EC022093EB0225EC30E03093D7
:1013D000F8022093F70224EC30E03093FA022093D5
:1013E000F90220EC30E03093FC022093FB0221EC68
:1013F00030E03093FE022093FD0222EC30E0309387
:1014000000032093FF0226EC30E030930203209388
:101410000103109204031092050310920603109228
:10142000070310928B0310928A0380938C0390938E
:101430008D03A0938E03B0938F038CEF91E0909374
:10144000890380938803EEECF3E085E490E020E5E7
:1014500030E0DF011D92AF014F5A5F4FFD019183D4
:1014600080831282348323833596E417F507B9F716
:1014700045E0E231F40769F788E790E090931305BF
:1014800080931205109222051092230510922405D4
:1014900010922505109218051092190510921A0540
:1014A00010921B0510921D0510921C0510921F052D
:1014B00010921E05109221051092200580E990EDF2
:1014C000A3E0B0E08093140590931505A093160552
:1014D000B093170542E050E060E170E088EB93E0E4
:1014E0000E94700943E050E064E070E082EA93E01B
:1014F0000E94700988E080939B0310929D031092D4
:101500009C031092A0031092A103C0E0D0E8D093F6
:101510009F03C0939E030E943A0989E0809394033D
:1015200010929603109295031092990310929A03C9
:10153000D0939803C0939703DF91CF910C943A090D
:10154000CF93DF93CDB7DEB768970FB6F894DEBFC1
:101550000FBECDBF789484B5826084BD84B58160B0
:1015600084BD85B5826085BD85B5816085BD80916E
:101570006E00816080936E001092810080918100E6
:1015800082608093810080918100816080938100DE
:10159000809180008160809380008091B1008460A0
:1015A0008093B1008091B00081608093B000809101
:1015B0007A00846080937A0080917A0082608093C0
:1015C0007A0080917A00816080937A0080917A001D
:1015D000806880937A001092C100E091FB02F09144
:1015E000FC0282E08083E091F702F091F802108221
:1015F000E091F902F091FA028FEC808310920303DC
:10160000E091FF02F091000386E08083E091FD020B
:10161000F091FE02808180618083E091FD02F09173
:10162000FE02808188608083E091FD02F091FE02DD
:10163000808180688083E091FD02F091FE028081CC
:101640008F7D80831092E7021092E6021092E502ED
:101650001092E4020E94FD0381EB90E09093E3027C
:101660008093E20282EB90E09093E1028093E002AB
:1016700080E18093BA0081EB95E09093E90280933A
:10168000E80282EA93E00E94C30388EB93E00E94A1
:10169000C30382EA93E00E94880088EB93E00E94F3
:1016A000880061E084E00E94350261E085E00E94EC
:1016B000350261E086E00E94350261E087E00E9429
:1016C0003502412C512C70E8672E7FE3772EE3E33F
:1016D0008E2E982CE3EBAE2EEEE3BE2E0E94660219
:1016E000AB01BC018091180590911905A0911A05D4
:1016F000B0911B050091220510912305209124052E
:1017000030912505801B910BA20BB30B840F951F05
:10171000A61FB71F8093180590931905A0931A056B
:10172000B0931B0500911405109115052091160525
:101730003091170580179107A207B307C0F01092E8
:1017400018051092190510921A0510921B05809128
:10175000EA02882361F080911E0590911F058F3069
:10176000910584F5019690931F0580931E05409383
:10177000220550932305609324057093250540911D
:10178000BC035091BD0370E060E08091C103909173
:10179000C2030E949C10F12CE12C10E000E06CE0F0
:1017A000D62E80911E0590911F050817190769F420
:1017B0008CE0E2EAF1E0DE011D9601900D928A953F
:1017C000E1F748C090E080E0CECF80911C05909179
:1017D0001D0521E5289FF001299FF00D1124EE0D34
:1017E000FF1DE153FC4F2281808191816CE070E00C
:1017F0000E94120FD89EA001D99E500D1124CA013B
:101800008A5F9E4FFC01DE0111963D2D01900D92E5
:101810003A95E1F7FC0140815181628173818481B5
:101820009581A681B781E0912005F09121050E17E1
:101830001F0709F038C1222309F4EEC04D875E87E7
:101840006F87788B898B9A8BAB8BBC8B4D8A5E8A2A
:101850006F8A788ECE010D960E9464049B01AC01C4
:101860008091BA039091BB030817190728F4B801B7
:1018700088EB93E00E948B020F5F1F4FF5E0EF0EA5
:10188000F11C0031110509F08CCF8091C1039091BA
:10189000C203892B21F088EB93E00E94F202409171
:1018A000A6035091A70370E060E08091AB03909194
:1018B000AC030E949C104EEAC42E41E0D42E5EEC94
:1018C000E52E53E0F52E170110E000E08CE0F60164
:1018D000DE01119601900D928A95E1F7F60184815F
:1018E0009581A681B78120911C0530911D050217B5
:1018F000130709F095C08D839E83AF83B8878CE072
:10190000FE013196DE011D9601900D928A95E1F758
:10191000CE010D960E9464049B01AC018091A4034A
:101920009091A5030817190728F4B80182EA93E0FB
:101930000E948B020F5F1F4FFCE0CF0ED11C21E5F0
:10194000220E311C0430110509F68091AB039091F1
:10195000AC03892B21F082EA93E00E94F2022EEC84
:10196000C22E23E0D22E10E000E035E0232E3324F7
:101970003394F7018081882309F475C0F6018481CE
:10198000958164E670E00E94120F20911405309159
:1019900015054091160550911705DB010E945E0F59
:1019A000209118053091190540911A0550911B0599
:1019B000621773078407950758F4F7011082F8013E
:1019C000EE0FFF1FE252FE4F60E080810E94E901AE
:1019D0000F5F1F4FF1E5EF0EF11C26E5C20ED11C83
:1019E0000430110531F680E090E0892B09F476CEC1
:1019F0000E944601882309F471CE0E9400006ECE39
:101A000049835A836B837C838D839E83AF83B8879E
:101A10008CE0FE013196CFCE8CE0E6E9F1E0CBCE52
:101A2000F1012081222391F0F601408151816281F0
:101A300073814D875E876F87788B898B9A8BAB8B91
:101A4000BC8B8D8A9E8AAF8AB88E62CF1D861E8619
:101A50001F86188A198A1A8A1B8A1C8A1D8A1E8A5E
:101A60001F8A188E55CF80911E0590911F05289EC4
:101A7000F001299EF00D112421E5209FC001219F36
:101A8000900D1124E80FF91FE253FC4F8381882346
:101A900009F49ECFF7013082F801EE0FFF1FE252EA
:101AA000FE4F61E092CF2111ABCF1D861E861F86AF
:101AB000188A198A1A8A1B8A1C8A1D8A1E8A1F8AFA
:101AC000188EC8CE0E94760D0C94570E0E94500EB0
:101AD00058F00E94490E40F029F45F3F29F00C9421
:101AE000400E51110C948B0E0C94460E0E94680E01
:101AF00068F39923B1F3552391F3951B550BBB273D
:101B0000AA2762177307840738F09F5F5F4F220F81
:101B1000331F441FAA1FA9F335D00E2E3AF0E0E878
:101B200032D091505040E695001CCAF72BD0FE2FC2
:101B300029D0660F771F881FBB1F26173707480756
:101B4000AB07B0E809F0BB0B802DBF01FF2793580E
:101B50005F4F3AF09E3F510578F00C94400E0C9484
:101B60008B0E5F3FE4F3983ED4F3869577956795A7
:101B7000B795F7959F5FC9F7880F911D9695879543
:101B800097F90895E1E0660F771F881FBB1F621762
:101B900073078407BA0720F0621B730B840BBA0B20
:101BA000EE1F88F7E09508950E94700E88F09F5709
:101BB00098F0B92F9927B751B0F0E1F0660F771F71
:101BC000881F991F1AF0BA95C9F714C0B13091F067
:101BD0000E948A0EB1E008950C948A0E672F782F28
:101BE0008827B85F39F0B93FCCF38695779567952C
:101BF000B395D9F73EF490958095709561957F4F98
:101C00008F4F9F4F0895E89409C097FB3EF490953D
:101C10008095709561957F4F8F4F9F4F9923A9F0C5
:101C2000F92F96E9BB279395F69587957795679554
:101C3000B795F111F8CFFAF4BB0F11F460FF1BC098
:101C40006F5F7F4F8F4F9F4F16C0882311F096E92B
:101C500011C0772321F09EE8872F762F05C06623D9
:101C600071F096E8862F70E060E02AF09A95660F92
:101C7000771F881FDAF7880F9695879597F908954B
:101C800097F99F6780E870E060E008959FEF80EC2F
:101C9000089500240A9416161706180609060895D2
:101CA00000240A9412161306140605060895092E38
:101CB0000394000C11F4882352F0BB0F40F4BF2BA7
:101CC00011F460FF04C06F5F7F4F8F4F9F4F0895E7
:101CD00057FD9058440F551F59F05F3F71F04795DD
:101CE000880F97FB991F61F09F3F79F087950895C2
:101CF000121613061406551FF2CF4695F1DF08C0E1
:101D0000161617061806991FF1CF869571056105FD
:101D100008940895E894BB2766277727CB0197F9A5
:101D200008950E94A40E0C94570E0E94490E38F09C
:101D30000E94500E20F0952311F00C94400E0C944C
:101D4000460E11240C948B0E0E94680E70F3959F22
:101D5000C1F3950F50E0551F629FF001729FBB27A2
:101D6000F00DB11D639FAA27F00DB11DAA1F649F3E
:101D70006627B00DA11D661F829F2227B00DA11DF1
:101D8000621F739FB00DA11D621F839FA00D611D77
:101D9000221F749F3327A00D611D231F849F600D98
:101DA000211D822F762F6A2F11249F5750409AF0C1
:101DB000F1F088234AF0EE0FFF1FBB1F661F771F4D
:101DC000881F91505040A9F79E3F510580F00C9418
:101DD000400E0C948B0E5F3FE4F3983ED4F386954F
:101DE00077956795B795F795E7959F5FC1F7FE2BB8
:101DF000880F911D9695879597F90895AA1BBB1B8F
:101E000051E107C0AA1FBB1FA617B70710F0A61BFA
:101E1000B70B881F991F5A95A9F780959095BC011B
:101E2000CD01089597FB072E16F4009407D077FD97
:101E300009D00E94FE0E07FC05D03EF490958195D6
:101E40009F4F0895709561957F4F0895A1E21A2ED6
:101E5000AA1BBB1BFD010DC0AA1FBB1FEE1FFF1F4E
:101E6000A217B307E407F50720F0A21BB30BE40B9E
:101E7000F50B661F771F881F991F1A9469F76095E5
:101E80007095809590959B01AC01BD01CF0108959F
:101E9000A29FB001B39FC001A39F700D811D1124AB
:101EA000911DB29F700D811D1124911D08950E94F6
:101EB000480FB7FF0895821B930B0895B7FF0C944A
:101EC0006C0F0E946C0F821B930B0895EE0FFF1F87
:101ED0000590F491E02D09940E94480FA59F900D64
:101EE000B49F900DA49F800D911D112408950F9310
:101EF0001F93CF93DF938230910510F482E090E03E
:101F0000E0912805F091290530E020E0B0E0A0E064
:101F1000309799F42115310509F44AC0281B390B73
:101F200024303105D8F58A819B816115710589F1CD
:101F3000FB0193838283FE0111C0408151810281A4
:101F4000138148175907E0F04817590799F410977B
:101F500061F012960C93129713961C933296CF0150
:101F6000DF91CF911F910F91089500932805109351
:101F70002905F4CF2115310551F04217530738F0E8
:101F8000A901DB019A01BD01DF01F801C1CFEF0119
:101F9000F9CF9093290580932805CDCFFE01E20F5C
:101FA000F31F819391932250310939832883D7CF2E
:101FB0002091260530912705232B41F42091020121
:101FC00030910301309327052093260520910001CD
:101FD000309101012115310541F42DB73EB74091F3
:101FE000040150910501241B350BE0912605F09169
:101FF0002705E217F307A0F42E1B3F0B281739071C
:1020000078F0AC014E5F5F4F2417350748F04E0F54
:102010005F1F5093270540932605819391939FCF8F
:10202000F0E0E0E09CCFCF93DF930097E9F0FC0174
:10203000329713821282A0912805B0912905ED01F3
:1020400030E020E01097A1F420813181820F931FAE
:1020500020912605309127052817390709F061C01E
:10206000F0932705E0932605DF91CF910895EA01CB
:10207000CE17DF07E8F54A815B819E0141155105C6
:10208000B1F7E901FB83EA8349915991C40FD51F48
:10209000EC17FD0761F4808191810296840F951FF2
:1020A000E90199838883828193819B838A83F0E00D
:1020B000E0E012968D919C9113970097B9F52D91C0
:1020C0003C911197CD010296820F931F2091260516
:1020D000309127052817390739F6309751F51092B6
:1020E000290510922805B0932705A0932605BCCF9B
:1020F000D383C28340815181840F951FC817D907AC
:1021000061F44E5F5F4F88819981480F591F518359
:1021100040838A819B81938382832115310509F055
:10212000B0CFF0932905E09328059ECFFD01DC0197
:10213000C0CF13821282D7CFDC0101C06D93415012
:102140005040E0F7089510E0CDE5D0E004C0FE0176
:102150000E94660F2196CE35D107C9F7F894FFCFBC
:1021600000002A058000000000000000803F9A99CE
:10217000193F0000F0410000803F9A99193F00008C
:1021800070420000803F9A99193F0000B44200005D
:10219000803F9A99193F0000F0420000803F9A99D1
:1021A000193F000016430000803F9A99193F000034
:1021B00034430000803F9A99193F000052430000C9
:1021C000803F9A99193F000070430000803F9A9920
:1021D000193F000087430000803F9A99193F000093
:1021E00096430000803F9A99193F0000A5430000E4
:1021F000803F9A99193F000066430000803F9A99FA
:10220000193F0000A5430000803F9A99193F000044
:1022100070420000803F9A99193F00001643000069
:10222000803F9A99193F000070430000803F9A99BF
:10223000193F0000A5430000803F9A99193F040010
:10224000050006000700000000007C01DC00090119
:10225000C9013A0118012C01000000005004450496
:1022600061041B043E042B041C040D0A0064656316
:1022700072656173696E6700696E63726561736927
:102280006E6700547261636B2069733A20004E657B
:10229000772043757272656E7420747261636B206F
:0622A00069733A20000002
:00000001FF
