:100000000C945E000C9486000C9486000C94860080
:100010000C9486000C9486000C9486000C94860048
:100020000C9486000C9486000C9486000C94860038
:100030000C9486000C9486000C9486000C94860028
:100040000C9426040C9486000C94F4030C94CE03B8
:100050000C9486000C9486000C9486000C94860008
:100060000C9470040C94860000000000240027000B
:100070002A0000000008000201000003040700003D
:10008000000000000000010204081020408001026E
:1000900004081020010204081020000000002500C0
:1000A00028002B00040404040404040402020202D5
:1000B0000202030303030303EC05390711241FBEE7
:1000C000CFEFD8E0DEBFCDBF11E0A0E0B1E0E2E7C6
:1000D000F1E102C005900D92A635B107D9F724E0F1
:1000E000A6E5B1E001C01D92A632B207E1F710E02B
:1000F000CDE5D0E004C02197FE010E947A07CC35FF
:10010000D107C9F70E948F060C94AC080C9400002C
:100110000895CF93DF93AC01E091F701F091F801DE
:100120003097F1F09091F6018091F5019817C0F0A9
:1001300090E0292F30E02617370754F4D901AA5A46
:10014000BE4F240F351FE90128812C939F5FF1CF0B
:100150001092F6016093F501CB01DF91CF910994E4
:10016000DF91CF910895AF92BF92CF92DF92EF923D
:10017000FF920F931F93CF93DF936C017B018B0151
:10018000040F151FEB015E01AE18BF08C017D107A1
:1001900059F06991D601ED91FC910190F081E02D2B
:1001A000C6010995892B79F7C501DF91CF911F9180
:1001B0000F91FF90EF90DF90CF90BF90AF90089598
:1001C000FC01538D448D252F30E0842F90E0821B5D
:1001D000930B541710F0CF96089501970895FC01E2
:1001E000918D828D981761F0A28DAE0FBF2FB11D3A
:1001F0005D968C91928D9F5F9F73928F90E0089592
:100200008FEF9FEF0895FC01918D828D981731F04B
:10021000828DE80FF11D858D90E008958FEF9FEF9F
:100220000895FC01918D228D892F90E0805C9F4F75
:10023000821B91098F739927089589EF91E00E949D
:10024000110121E0892B09F420E0822F089580E03C
:1002500090E0892B29F00E941D0181110C9400006F
:100260000895FC01A48DA80FB92FB11DA35ABF4F4B
:100270002C91848D90E001968F739927848FA689A5
:10028000B7892C93A089B1898C91837080648C93F9
:10029000938D848D981306C00288F389E02D8081A8
:1002A0008F7D80830895EF92FF920F931F93CF93DA
:1002B000DF93EC0181E0888F9B8D8C8D98131AC0A1
:1002C000E889F989808185FF15C09FB7F894EE8988
:1002D000FF896083E889F9898081837080648083E5
:1002E0009FBF81E090E0DF91CF911F910F91FF9030
:1002F000EF900895F62E0B8D10E00F5F1F4F0F73D8
:100300001127E02E8C8D8E110CC00FB607FCFACF92
:10031000E889F989808185FFF5CFCE010E943101FE
:10032000F1CFEB8DEC0FFD2FF11DE35AFF4FF08263
:100330009FB7F8940B8FEA89FB8980818062CFCFC9
:10034000CF93DF93EC01888D8823B9F0AA89BB890C
:10035000E889F9898C9185FD03C0808186FD0DC0F7
:100360000FB607FCF7CF8C9185FFF2CF808185FF18
:10037000EDCFCE010E943101E9CFDF91CF910895F9
:1003800090E0FC01EE58FF4F2491FC01EA57FF4F2B
:100390003491FC01EC55FF4FE491EE23C9F0222388
:1003A00039F0233001F1A8F4213019F1223029F17C
:1003B000F0E0EE0FFF1FE656FF4FA591B4918FB707
:1003C000F894EC91611126C030953E233C938FBF89
:1003D00008952730A9F02830C9F0243049F78091DA
:1003E00080008F7D03C0809180008F778093800094
:1003F000DFCF84B58F7784BDDBCF84B58F7DFBCF16
:100400008091B0008F778093B000D2CF8091B00000
:100410008F7DF9CF3E2BDACFCF93DF9390E0FC01B5
:10042000EA57FF4F24918C559F4FFC0184918823FC
:10043000D1F090E0880F991FFC01E859FF4FA5917A
:10044000B491FC01E656FF4FC591D49161110EC0E5
:100450009FB7F8948C91E22FE0958E238C9328819E
:10046000E223E8839FBFDF91CF9108958FB7F8947F
:10047000EC91E22BEC938FBFF6CFCF93DF93EC019F
:100480008E819F8197FD07C061E00E940C0260E0B1
:100490008E810E94C00181E08983DF91CF91089510
:1004A00020919C01260F3327331F21323105ECF4B4
:1004B0002091C001FC0190E080E0243069F082E0EE
:1004C0000895A0919C012191AC0144585E4FA40F66
:1004D000B52FB11D2C930196861798F380919C013E
:1004E000680F60939C0180E0089581E00895109268
:1004F000C00181E08093C2011092C10161E082E1FC
:100500000E94C00161E083E10E94C001E9EBF0E0DC
:1005100080818E7F808380818D7F808388E480933B
:10052000B80085E48093BC0008950895E091F60139
:100530008091F501E81730F4F0E0EA5AFE4F80812F
:1005400090E008958FEF9FEF08959091F6018091CC
:10055000F5012FEF3FEF981748F4E92FF0E0EA5A42
:10056000FE4F208130E09F5F9093F601C90108950E
:100570008091F5019091F601891B990B0895CF9315
:10058000DF93CB01EA01642F0E945002CE01DF917C
:10059000CF910895CF93DF931F92CDB7DEB76983D4
:1005A00061E0CE0101960E94500281E090E00F9040
:1005B000DF91CF91089590E080E00895FC010190D3
:1005C0000020E9F73197AF01481B590BBC0189EFB7
:1005D00091E00C94B3008F929F92AF92BF92CF9212
:1005E000DF92EF92FF92CF93DF93CDB7DEB7A19763
:1005F0000FB6F894DEBF0FBECDBF8BE391E00E9433
:10060000DE0286E992E00E94A502019709F46CC01F
:100610008AE291E00E94DE0286E992E00E94A50251
:100620006C01990FEE08FF08F7FE43C06DE289EFF9
:1006300091E00E94530122273327A9012C193D097B
:100640004E095F0919A2CE0181967C019AE0892E9C
:10065000912CA12CB12CCA01B901A50194010E94D1
:100660005807605DF70162937F012115310541054F
:10067000510589F7E114F10419F0C7010E94DE0267
:1006800082E591E00E94DE0286E992E00E94A502E6
:10069000A1960FB6F894DEBF0FBECDBFDF91CF910C
:1006A000FF90EF90DF90CF90BF90AF909F908F9092
:1006B0000895A701960119A2CE0181967C018AE0D6
:1006C000882E912CA12CB12CCA01B901A50194014D
:1006D0000E945807605DF70162937F012115310583
:1006E0004105510589F7C6CF82E391E093CFCF93BF
:1006F000DF9385ED8093BC00809178019091790122
:10070000A0917A01B0917B010796A11DB11D23E054
:10071000B695A795979587952A95D1F72091BC0016
:1007200024FD03C01092C00136C040917801509161
:10073000790160917A0170917B01452B462B472B03
:1007400069F30097A105B10541F025E32A95F1F77A
:1007500000000197A109B109E1CF8091770191E0F3
:10076000909376018823B9F0C091B800D091BA0077
:100770008091BC008A7B8093BC0060E082E10E9493
:10078000C00160E083E10E94C0010E947702D09323
:10079000BA00C093B800DF91CF9108951F920F92D5
:1007A0000FB60F9211242F933F934F935F936F9344
:1007B0007F938F939F93AF93BF93EF93FF9389EFB3
:1007C00091E00E943101FF91EF91BF91AF919F9114
:1007D0008F917F916F915F914F913F912F910F90EA
:1007E0000FBE0F901F9018951F920F920FB60F9289
:1007F00011242F938F939F93EF93FF93E09109021E
:10080000F0910A028081E0910F02F091100282FDC6
:100810001BC09081809112028F5F8F732091130211
:10082000821741F0E0911202F0E0E750FE4F958F01
:1008300080931202FF91EF919F918F912F910F90D2
:100840000FBE0F901F9018958081F4CF1F920F92CA
:100850000FB60F9211242F933F938F939F93AF93D3
:10086000BF938091EB019091EC01A091ED01B091CB
:10087000EE013091EA0123E0230F2D3758F5019660
:10088000A11DB11D2093EA018093EB019093EC012F
:10089000A093ED01B093EE018091E6019091E70104
:1008A000A091E801B091E9010196A11DB11D8093CD
:1008B000E6019093E701A093E801B093E901BF91AD
:1008C000AF919F918F913F912F910F900FBE0F90FD
:1008D0001F90189526E8230F0296A11DB11DD2CFB7
:1008E0001F920F920FB60F9211242F933F934F93A5
:1008F0005F936F937F938F939F93AF93BF93EF9388
:10090000FF938091B900887F803609F44AC0F0F5E2
:10091000883209F4A7C018F5803109F49BC0B8F4F7
:10092000882309F4F9C0883009F494C0FF91EF914D
:10093000BF91AF919F918F917F916F915F914F91F7
:100940003F912F910F900FBE0F901F9018958831F7
:1009500009F488C0803251F78093BF0114C08034FD
:1009600009F49DC040F48033B9F38833F9F68093DD
:10097000BF0185ECB0C0803509F485C0883509F425
:1009800096C0883499F60E947703D0CF883909F44D
:100990008CC038F5883729F050F4883611F080374C
:1009A00029F683E08093C0011092BE0157C08838B9
:1009B00009F47BC0803919F0803809F0B7CF8091F5
:1009C000BE01803208F071C0E091BE0181E08E0F5F
:1009D0008093BE018091BB00F0E0E256FE4F808321
:1009E0003DC0803B39F0E0F4803A09F479C0883AA0
:1009F00009F09CCF84E08093C00110929D01109279
:100A00009C01E091F101F091F201099580919C0126
:100A100081110FC081E080939C0110927C0109C07C
:100A2000803C09F4A6CF883C09F4A3CF883B09F0A9
:100A30007DCFE0919D0181E08E0F80939D01F0E0DC
:100A4000E458FE4F80818093BB0090919D0180917E
:100A50009C0129C08091E5018093BB0085EC8093C7
:100A6000BC0064CF9091E4018091E301981758F5A0
:100A7000E091E40181E08E0F8093E401F0E0ED531A
:100A8000FE4F8081E9CFE091E40181E08E0F8093F9
:100A9000E4018091BB00F0E0ED53FE4F8083909124
:100AA000E4018091E3019817C8F285E8D8CFE0917E
:100AB000E40181E08E0F8093E4018091BB00F0E0BF
:100AC000ED53FE4F80838091C20181115CCF81E0A4
:100AD0008093C10184EA8093BC001092C00126CFAC
:100AE00085EC8093BC001092C0018091BE018032E1
:100AF00030F4E091BE01F0E0E256FE4F10826091CA
:100B0000BE0170E0E091EF01F091F0018EE991E01B
:100B100009951092BE010ACF1092BF0134CFCF9237
:100B2000DF92EF92FF920F931F93CF93DF93EC012D
:100B30006B01F42EE52E198218861F86188A198AF1
:100B40001A8A81E08E878B871C8692E09D87888336
:100B50008B01000F111F060F171F1D830C83C80187
:100B60000E9480079A878987009789F1A80170E021
:100B700060E00E94A508DB82CA82FE82EF82898142
:100B8000882341F061E08F2D0E940C0260E08F2DE0
:100B90000E94C0018F2D9E2DFC01EC55FF4FE4916A
:100BA000F0E0EE0FFF1FE656FF4F259134913C8B8E
:100BB0002B8BFC01EA57FF4FE491ED8BDF91CF9136
:100BC0001F910F91FF90EF90DF90CF9008951D82BD
:100BD0001C821B821A82D1CF1092FC011092FB0161
:100BE00088EE93E0A0E0B0E08093FD019093FE01D9
:100BF000A093FF01B09300022AE031E03093FA01A4
:100C00002093F90125EC30E0309306022093050291
:100C100024EC30E0309308022093070220EC30E00F
:100C200030930A022093090221EC30E030930C0249
:100C300020930B0222EC30E030930E0220930D0241
:100C400026EC30E03093100220930F021092120233
:100C5000109213021092140210921502109299022F
:100C60001092980280939A0290939B02A0939C0208
:100C7000B0939D028CE191E090939702809396024D
:100C8000EEECF2E085E490E020E530E0DF011D923B
:100C9000AF014F5A5F4FFD019183808312823483ED
:100CA00023833596E417F507B9F744E0E231F407FA
:100CB00069F788E790E090931304809312041092F0
:100CC00018041092190410921A0410921B04109226
:100CD0001D0410921C0410921F0410921E04109206
:100CE00021041092200480E990EDA3E0B0E080930D
:100CF000140490931504A0931604B093170442E0D3
:100D000050E060E170E088EB92E00E948F0543E0E4
:100D100050E064E070E082EA92E00C948F057894F1
:100D200084B5826084BD84B5816084BD85B58260F0
:100D300085BD85B5816085BD80916E0081608093A1
:100D40006E0010928100809181008260809381000A
:100D5000809181008160809381008091800081601A
:100D6000809380008091B10084608093B100809175
:100D7000B00081608093B00080917A00846080939D
:100D80007A0080917A00826080937A0080917A0064
:100D9000816080937A0080917A00806880937A00E5
:100DA0001092C100E0910902F0910A0282E0808372
:100DB000E0910502F09106021082E0910702F091A5
:100DC00008028FEC808310921102E0910D02F091E5
:100DD0000E0286E08083E0910B02F0910C0280818C
:100DE00080618083E0910B02F0910C028081886029
:100DF0008083E0910B02F0910C02808180688083F7
:100E0000E0910B02F0910C0280818F7D8083109223
:100E1000F6011092F5011092F4011092F3010E9474
:100E2000770288E890E09093F2018093F10189E8DD
:100E300090E09093F0018093EF0180E18093BA00FD
:100E40008BEE92E09093F8018093F70182EA92E0B2
:100E50000E943D0288EB92E00E943D02C0E0D0E09B
:100E60002097F1F30E941D018823D1F30E94000016
:100E7000F7CF8091AB029091AC020E941C08809148
:100E8000A8029091A90297FD03C060E00E940C02A5
:100E90008091C1029091C2020E941C088091BE0202
:100EA0009091BF0297FD03C060E00C940C0208957E
:100EB000A1E21A2EAA1BBB1BFD010DC0AA1FBB1F5E
:100EC000EE1FFF1FA217B307E407F50720F0A21BD0
:100ED000B30BE40BF50B661F771F881F991F1A943D
:100EE00069F760957095809590959B01AC01BD0167
:100EF000CF010895EE0FFF1F0590F491E02D0994A6
:100F00000F931F93CF93DF938230910510F482E00B
:100F100090E0E0912404F091250430E020E0B0E07E
:100F2000A0E0309799F42115310509F44AC0281B37
:100F3000390B24303105D8F58A819B816115710503
:100F400089F1FB0193838283FE0111C040815181AD
:100F50000281138148175907E0F04817590799F49F
:100F6000109761F012960C93129713961C93329679
:100F7000CF01DF91CF911F910F9108950093240429
:100F800010932504F4CF2115310551F04217530772
:100F900038F0A901DB019A01BD01DF01F801C1CFE1
:100FA000EF01F9CF9093250480932404CDCFFE0167
:100FB000E20FF31F819391932250310939832883E3
:100FC000D7CF2091220430912304232B41F4209188
:100FD00002013091030130932304209322042091D5
:100FE0000001309101012115310541F42DB73EB7C3
:100FF0004091040150910501241B350BE09122041E
:10100000F0912304E217F307A0F42E1B3F0B2817DF
:10101000390778F0AC014E5F5F4F2417350748F071
:101020004E0F5F1F509323044093220481939193AA
:101030009FCFF0E0E0E09CCFCF93DF930097E9F003
:10104000FC01329713821282A0912404B0912504EE
:10105000ED0130E020E01097A1F420813181820F72
:10106000931F20912204309123042817390709F097
:1010700061C0F0932304E0932204DF91CF9108959F
:10108000EA01CE17DF07E8F54A815B819E01411531
:101090005105B1F7E901FB83EA8349915991C40FE6
:1010A000D51FEC17FD0761F4808191810296840FB2
:1010B000951FE90199838883828193819B838A8329
:1010C000F0E0E0E012968D919C9113970097B9F5AE
:1010D0002D913C911197CD010296820F931F209183
:1010E0002204309123042817390739F6309751F537
:1010F0001092250410922404B0932304A093220498
:10110000BCCFD383C28340815181840F951FC81700
:10111000D90761F44E5F5F4F88819981480F591F4D
:10112000518340838A819B8193838283211531057A
:1011300009F0B0CFF0932504E09324049ECFFD0185
:10114000DC01C0CF13821282D7CFDC0101C06D93C6
:1011500041505040E0F7089510E0CDE5D0E004C0E4
:10116000FE010E947A072196CE35D107C9F7F8947F
:02117000FFCFAF
:10117200000026048000000000005301B300E000DC
:10118200A0011101EF00030100000000CA02BF022A
:10119200DB029502B802A5029602627574746F6E44
:1011A2002000656E636F6465722000726563696515
:1011B200766564206D6573736167652066726F6D15
:0611C20020000D0A0000F0
:00000001FF
