:020000040000FA
:100000000C945E000C9486000C9486000C94860080
:100010000C9486000C9486000C9486000C94860048
:100020000C9486000C9486000C9486000C94860038
:100030000C9486000C9486000C9486000C94860028
:100040000C9497070C9486000C9465070C943F075A
:100050000C9486000C9486000C9486000C94860008
:100060000C94E1070C948600000000002400270097
:100070002A0000000008000201000003040700003D
:10008000000000000000010204081020408001026E
:1000900004081020010204081020000000002500C0
:1000A00028002B00040404040404040402020202D5
:1000B0000202030303030303C809120911241FBE2C
:1000C000CFEFD8E0DEBFCDBF12E0A0E0B1E0EEEAB6
:1000D000F3E202C005900D92AE30B107D9F724E0EB
:1000E000AEE0B2E001C01D92A23FB207E1F710E01E
:1000F000CDE5D0E004C02197FE010E948D10CC35E3
:10010000D107C9F70E949B0A0C94CA110C940000F5
:10011000CF93DF93EC016885693201F129853A8537
:100120006150B9F070E08FEF98E20E942510F9015C
:100130004C815D81CF01821B930B8417950760F47E
:100140004081469FC001479F900D112490833196B6
:10015000EFCF70E060E0EBCF89E28887DF91CF914D
:1001600008950895CF93DF93AC01E091B002F09130
:10017000B1023097F1F09091AF028091AE029817E2
:10018000C0F090E0292F30E02617370754F4D9014A
:10019000A15FBD4F240F351FE90128812C939F5F7C
:1001A000F1CF1092AF026093AE02CB01DF91CF91FD
:1001B0000994DF91CF910895AF92BF92CF92DF92D1
:1001C000EF92FF920F931F93CF93DF936C017B010C
:1001D0008B01040F151FEB015E01AE18BF08C0179D
:1001E000D10759F06991D601ED91FC910190F08110
:1001F000E02DC6010995892B79F7C501DF91CF91D3
:100200001F910F91FF90EF90DF90CF90BF90AF9034
:100210000895FC01538D448D252F30E0842F90E00C
:10022000821B930B541710F0CF96089501970895F1
:10023000FC01918D828D981761F0A28DAE0FBF2FBA
:10024000B11D5D968C91928D9F5F9F73928F90E010
:1002500008958FEF9FEF0895FC01918D828D98177F
:1002600031F0828DE80FF11D858D90E008958FEFBC
:100270009FEF0895FC01918D228D892F90E0805C85
:100280009F4F821B91098F739927089583EB92E00A
:100290000E943A0121E0892B09F420E0822F089581
:1002A00080E090E0892B29F00E94460181110C9496
:1002B00000000895FC01A48DA80FB92FB11DA35A09
:1002C000BF4F2C91848D90E001968F739927848F76
:1002D000A689B7892C93A089B1898C918370806499
:1002E0008C93938D848D981306C00288F389E02D3A
:1002F00080818F7D80830895EF92FF920F931F93EB
:10030000CF93DF93EC0181E0888F9B8D8C8D9813C8
:100310001AC0E889F989808185FF15C09FB7F894D4
:10032000EE89FF896083E889F98980818370806420
:1003300080839FBF81E090E0DF91CF911F910F916B
:10034000FF90EF900895F62E0B8D10E00F5F1F4F7A
:100350000F731127E02E8C8D8E110CC00FB607FC89
:10036000FACFE889F989808185FFF5CFCE010E9417
:100370005A01F1CFEB8DEC0FFD2FF11DE35AFF4F2A
:10038000F0829FB7F8940B8FEA89FB8980818062A5
:10039000CFCFCF93DF93EC01888D8823B9F0AA8962
:1003A000BB89E889F9898C9185FD03C0808186FD30
:1003B0000DC00FB607FCF7CF8C9185FFF2CF80817F
:1003C00085FFEDCFCE010E945A01E9CFDF91CF9199
:1003D000089590E0FC01EE58FF4F2491FC01EA578C
:1003E000FF4F3491FC01EC55FF4FE491EE23C9F02F
:1003F000222339F0233001F1A8F4213019F1223001
:1004000029F1F0E0EE0FFF1FE656FF4FA591B491E2
:100410008FB7F894EC91611126C030953E233C9340
:100420008FBF08952730A9F02830C9F0243049F74C
:10043000809180008F7D03C0809180008F778093B2
:100440008000DFCF84B58F7784BDDBCF84B58F7D0F
:10045000FBCF8091B0008F778093B000D2CF809196
:10046000B0008F7DF9CF3E2BDACFCF93DF9390E0B2
:10047000FC01EA57FF4F24918C559F4FFC0184915A
:100480008823D1F090E0880F991FFC01E859FF4FB5
:10049000A591B491FC01E656FF4FC591D49161112D
:1004A0000EC09FB7F8948C91E22FE0958E238C9329
:1004B0002881E223E8839FBFDF91CF9108958FB712
:1004C000F894EC91E22BEC938FBFF6CF3FB7F89402
:1004D0008091A4029091A502A091A602B091A702DA
:1004E00026B5A89B05C02F3F19F00196A11DB11D8F
:1004F0003FBFBA2FA92F982F8827BC01CD01620FCB
:10050000711D811D911D42E0660F771F881F991F85
:100510004A95D1F708958F929F92AF92BF92CF9252
:10052000DF92EF92FF921F93CF93DF93FC014A017A
:10053000AA24BB24C82DC32ED42EE52EFF241C2DA7
:10054000D22F8085882361F0889E40011124C92D17
:100550008C9D600111241D2D829FD0011124DB2F61
:10056000A685E184F2849385A91322C0CB01880F6C
:10057000991F680F791F6E0D7F1DA385A60FB72FDA
:10058000B11DCC93A485A60FB72FB11D1C938585F3
:10059000680F711DFB01D083DF91CF911F91FF90F8
:1005A000EF90DF90CF90BF90AF909F908F90089585
:1005B000660F771F660F771F6E0D7F1D252F332760
:1005C00044275527882349F090E0829F7001839F3C
:1005D000F00C929FF00C11242F2DA60FB72FB11DF8
:1005E0002C93CBCFCF92DF92EF92FF920F931F937A
:1005F000CF93DF93CDB7DEB729970FB6F894DEBF60
:100600000FBECDBF8C010E946602D8011F96CD900F
:10061000DD90ED90FC9052976C157D058E059F0541
:1006200028F4F8016787708B818B928BD8011F9615
:10063000CD90DD90ED90FC9052976C197D098E095C
:100640009F096C32714081059105E8F2F894F80138
:10065000848195819A8389830184F285E02D7F01CD
:100660002FEFE21AF20A80818F83D8019C91539672
:10067000ED91FC91549755968C91992309F448C0BB
:100680009081982B98879081809589238987898587
:100690008B8388E08C83588569854F813C812B81D1
:1006A00089819A81D701508347FD252F3A95208370
:1006B000262F39F0441F00C000006083000000C0F6
:1006C000F2CF38E04D9160830000019761F7D801C7
:1006D0005496FC93EE9353974F833C832B839A83DA
:1006E000898378940E946602F8016787708B818BFA
:1006F000928B29960FB6F894DEBF0FBECDBFDF9167
:10070000CF911F910F91FF90EF90DF90CF900895C0
:100710009081982B988790818095892389878985F6
:100720008D8388E08E83588569854F813E812D8138
:1007300089819A81D701508347FD252F00C000C0D1
:10074000208300C000C000C000C000C06083000063
:10075000262F3A9541F0441F000000C000C000C0A1
:1007600000C000C0E8CF38E04D9100C0608300C0F9
:10077000019709F7D8015496FC93EE9353974F8352
:100780003E832D83ACCFCF93DF93EC018E819F818D
:1007900097FD07C061E00E94350260E08E810E94F3
:1007A000E90181E08983DF91CF910895209155027D
:1007B000260F3327331F21323105ECF420917902C3
:1007C000FC0190E080E0243069F082E00895A0917F
:1007D00055022191AC014B5C5D4FA40FB52FB11DAB
:1007E0002C930196861798F380915502680F6093B9
:1007F000550280E0089581E008951092790281E029
:1008000080937B0210927A0261E082E10E94E9010A
:1008100061E083E10E94E901E9EBF0E080818E7FF5
:10082000808380818D7F808388E48093B80085E415
:100830008093BC0008950895E091AF028091AE02CC
:10084000E81730F4F0E0E15FFD4F808190E008951B
:100850008FEF9FEF08959091AF028091AE022FEF3E
:100860003FEF981748F4E92FF0E0E15FFD4F20815A
:1008700030E09F5F9093AF02C90108958091AE026E
:100880009091AF02891B990B0895CF93DF93CB0111
:10089000EA01642F0E94D603CE01DF91CF91089523
:1008A000CF93DF931F92CDB7DEB7698361E0CE01AE
:1008B00001960E94D60381E090E00F90DF91CF91E6
:1008C000089590E080E008958F929F92AF92BF923A
:1008D000EF92FF920F931F93CF93DF937C0120E061
:1008E00030E04FE753E4FC01608571858285938594
:1008F0000E94B80F0E94FB0E062F20E030E04FE769
:1009000053E4F70164817581868197810E94B80F55
:100910000E94FB0EC62F20E030E044EB53E4F701C9
:1009200060817181828193810E94890E20E03FEF76
:100930004FE757E40E94B80F0E94FB0E9B01AAEFFD
:10094000B5E00E946F10DC01CB019058AF4FBF4F54
:10095000CD01BB2797FDB095AB2F8E3FF1E09F07F0
:1009600008F058C0382F8F3F910508F475C04EEF3E
:10097000481B50E03FEF10E00F5F1F4FEC2EF12CB3
:100980008FEFE81AF80AC095D0E03E9DC0013F9D68
:10099000900D1124292F33272C0F3D1FD8010E94C1
:1009A0007E104B015C018824AA24BB245E9D90012B
:1009B0005F9D300D1124232F33272C0F3D1F0E94E4
:1009C0007E10672F782F892F9927862A972AA82AA1
:1009D000B92A4E9D90014F9D300D1124232F3327AE
:1009E0002C0F3D1F0E947E10982F872F762F662791
:1009F000662777279927682979298A299B29DF91F2
:100A0000CF911F910F91FF90EF90BF90AF909F906B
:100A10008F9008958C3F23E0920768F48D3FE2E0C9
:100A20009E0728F452E0580F3FEF40E0A4CF3CEF80
:100A3000381B5FEFFACF8A3FF5E09F0781F08B3FCD
:100A400024E0920728F444E0480F5FEF30E093CFB2
:100A50005AEF581B30E001C050E04FEF8CCF50E010
:100A6000F9CF8F929F92AF92BF920F931F93CF9324
:100A7000DF93CDB7DEB7A1970FB6F894DEBF0FBEF8
:100A8000CDBF19A2423008F44AE08E010F5D1F4F1E
:100A9000842E912CB12CA12CA50194010E944D1003
:100AA000E62FB901CA01EA3044F5E05DD801EE93C2
:100AB0008D01232B242B252B79F790E080E01097D4
:100AC00069F0FD0101900020E9F73197AF014A1B61
:100AD0005B0BBD0183EB92E00E94DC00A1960FB698
:100AE000F894DEBF0FBECDBFDF91CF911F910F9164
:100AF000BF90AF909F908F900895E95CD7CFCF9231
:100B0000DF92EF92FF92CF93DF9380E593E00E9414
:100B10002B047C0180E593E00E942B04EC0180E52E
:100B200093E00E942B04AC01EA94EF2809F01CC169
:100B3000C130D105C9F14CF4CD2B09F1DF91CF9132
:100B4000FF90EF90DF90CF900895C230D10509F467
:100B5000A9C0239799F78091E4049091E50441306E
:100B6000510509F0FFC0019797FD049664E070E01D
:100B70000E9439109093E5048093E404DFCF8091C4
:100B8000E8049091E9044130510561F4019697FD24
:100B9000409660E170E00E9439109093E9048093E0
:100BA000E804CCCF0197F3CF809100018823E9F1CD
:100BB0008091DA049091DB044130510569F5059686
:100BC000843191055CF584E190E09093DB0480939F
:100BD000DA046091DA047091DB04072E000C880BB4
:100BE000990B0E942C0F9B01AC0160E070E080E744
:100BF00092E40E94890E20E034E244EF58E40E941F
:100C0000B80F0E94FB0E6093DC047093DD048093A8
:100C1000DE049093DF0492CF0597D2CF8D3221E08E
:100C200092079CF28CE291E0D0CF2091E4043091C5
:100C3000E5046091E8047091E90485E0869FF00185
:100C4000879FF00D1124A1E5A29FC001A39F900DE5
:100C50001124E80FF91FEA56FC4F84819581413039
:100C60005105F1F4059645E0469FF001479FF00DD0
:100C7000112461E5629FA001639F500D1124E40FD0
:100C8000F51FEA56FC4F8530910514F485E090E09D
:100C90008436910514F083E690E0958384834ECFEB
:100CA0000597E1CF8091E4049091E5046091E80418
:100CB0007091E90425E0269FF001279FF00D112493
:100CC000A1E5A89F9001A99F300D1124E20FF31F09
:100CD000EA56FC4F2181328141305105F1F52F3721
:100CE0003105ECF52F5F3F4F45E0469FF001479FF0
:100CF000F00D112461E5689FA001699F500D11243A
:100D0000E40FF51FEA56FC4F328321836901032E5D
:100D1000000CEE08FF084AE0C701B60137FF0DC01E
:100D20006DE283EB92E00E947C0166277727CB017E
:100D30006C197D098E099F094AE00E94310542E045
:100D400050E06BE072E083EB92E0DF91CF91FF9097
:100D5000EF90DF90CF900C94DC0037FDC5CF215091
:100D60003109C2CF019600CFC130D10569F0C23040
:100D7000D10539F1CD2B09F0E1CE8091B20291E09D
:100D800089278093B202DACE2091E4043091E50401
:100D90008091E8049091E90445E0489FF001499F63
:100DA000F00D112441E5429FC001439F900D112495
:100DB000E80FF91FEA56FC4F838191E0892783836E
:100DC000BDCE8091000191E0892780930001B6CECD
:100DD000CF93DF9385ED8093BC0080913102909199
:100DE0003202A0913302B09134020796A11DB11DC9
:100DF00023E0B695A795979587952A95D1F72091E9
:100E0000BC0024FD03C01092790236C0409131022B
:100E1000509132026091330270913402452B462B7F
:100E2000472B69F30097A105B10541F025E32A9509
:100E3000F1F700000197A109B109E1CF80913002DB
:100E400091E090932F028823B9F0C091B800D0911F
:100E5000BA008091BC008A7B8093BC0060E082E194
:100E60000E94E90160E083E10E94E9010E94FD0324
:100E7000D093BA00C093B800DF91CF9108951F922C
:100E80000F920FB60F9211242F933F934F935F93BE
:100E90006F937F938F939F93AF93BF93EF93FF9342
:100EA00083EB92E00E945A01FF91EF91BF91AF91C5
:100EB0009F918F917F916F915F914F913F912F9172
:100EC0000F900FBE0F901F9018951F920F920FB6A4
:100ED0000F9211242F938F939F93EF93FF93E091A1
:100EE000C302F091C4028081E091C902F091CA026C
:100EF00082FD1BC090818091CC028F5F8F73209107
:100F0000CD02821741F0E091CC02F0E0ED54FD4FAC
:100F1000958F8093CC02FF91EF919F918F912F91AC
:100F20000F900FBE0F901F9018958081F4CF1F92E5
:100F30000F920FB60F9211242F933F938F939F938D
:100F4000AF93BF938091A0029091A102A091A202C1
:100F5000B091A30230919F0223E0230F2D3758F563
:100F60000196A11DB11D20939F028093A002909332
:100F7000A102A093A202B093A3028091A402909137
:100F8000A502A091A602B091A7020196A11DB11DD4
:100F90008093A4029093A502A093A602B093A70207
:100FA000BF91AF919F918F913F912F910F900FBE65
:100FB0000F901F90189526E8230F0296A11DB11DD2
:100FC000D2CF1F920F920FB60F9211242F933F93FF
:100FD0004F935F936F937F938F939F93AF93BF9341
:100FE000EF93FF938091B900887F803609F44AC05F
:100FF000F0F5883209F4A7C018F5803109F49BC0D8
:10100000B8F4882309F4F9C0883009F494C0FF913A
:10101000EF91BF91AF919F918F917F916F915F9170
:101020004F913F912F910F900FBE0F901F901895E9
:10103000883109F488C0803251F78093780214C057
:10104000803409F49DC040F48033B9F38833F9F655
:101050008093780285ECB0C0803509F485C088356E
:1010600009F496C0883499F60E94E806D0CF8839F2
:1010700009F48CC038F5883729F050F4883611F01F
:10108000803729F683E0809379021092770257C067
:10109000883809F47BC0803919F0803809F0B7CF5F
:1010A00080917702803208F071C0E091770281E090
:1010B0008E0F809377028091BB00F0E0E95AFD4FDC
:1010C00080833DC0803B39F0E0F4803A09F479C078
:1010D000883A09F09CCF84E08093790210925602FE
:1010E00010925502E091AA02F091AB02099580910D
:1010F000550281110FC081E0809355021092350294
:1011000009C0803C09F4A6CF883C09F4A3CF883BF2
:1011100009F07DCFE091560281E08E0F8093560258
:10112000F0E0EB5CFD4F80818093BB009091560214
:101130008091550229C080919E028093BB0085EC6E
:101140008093BC0064CF90919D0280919C0298177F
:1011500058F5E0919D0281E08E0F80939D02F0E0B2
:10116000E458FD4F8081E9CFE0919D0281E08E0F30
:1011700080939D028091BB00F0E0E458FD4F808396
:1011800090919D0280919C029817C8F285E8D8CF73
:10119000E0919D0281E08E0F80939D028091BB00C3
:1011A000F0E0E458FD4F808380917B0281115CCF99
:1011B00081E080937A0284EA8093BC0010927902E5
:1011C00026CF85EC8093BC00109279028091770243
:1011D000803230F4E0917702F0E0E95AFD4F10825E
:1011E0006091770270E0E091A802F091A90287E592
:1011F00092E00995109277020ACF1092780234CFCC
:101200009FB7F89480910E02882319F08150809343
:101210000E0280910E02811103C08CB58F7B8CBDB4
:101220009FBF08950E9400090E94000980917303E6
:10123000909174030E943A11809170039091710310
:1012400097FD03C060E00E94350280918903909170
:101250008A030E943A11809186039091870397FD3B
:1012600003C060E00C9435020895CF93CFB7F89493
:1012700080910E02811127C0EEEAF0E08491E0E94E
:10128000F0E09491E82FF0E0EE0FFF1FE859FF4FD8
:10129000A591B491EC91E92321F461E08AE00E94E8
:1012A000E90161E08AE00E9435028CB580618CBD65
:1012B0008CB580648CBD61E08DE00E94350261E0F8
:1012C0008BE00E94350280910E028F5F80930E02A8
:1012D000CFBFCF910895CF92DF92EF92FF920F93FD
:1012E0001F93CF93DF93EC016B01F42EE52E19824F
:1012F00018861F86188A198A1A8A81E08E878B873A
:101300001C8692E09D8788838B01000F111F060FBA
:10131000171F1D830C83C8010E949E109A8789871E
:10132000009789F1A80170E060E00E94C311DB82A0
:10133000CA82FE82EF828981882341F061E08F2D8D
:101340000E94350260E08F2D0E94E9018F2D9E2DB5
:10135000FC01EC55FF4FE491F0E0EE0FFF1FE65665
:10136000FF4F259134913C8B2B8BFC01EA57FF4FAB
:10137000E491ED8BDF91CF911F910F91FF90EF9052
:10138000DF90CF9008951D821C821B821A82D1CFDC
:10139000CF93DF931092B6021092B50288EE93E0DD
:1013A000A0E0B0E08093B7029093B802A093B90296
:1013B000B093BA022BEE31E03093B4022093B30223
:1013C00025EC30E03093C0022093BF0224EC30E0E3
:1013D0003093C2022093C10220EC30E03093C4026B
:1013E0002093C30221EC30E03093C6022093C50263
:1013F00022EC30E03093C8022093C70226EC30E0A4
:101400003093CA022093C9021092CC021092CD02EE
:101410001092CE021092CF021092530310925203F8
:101420008093540390935503A0935603B0935703AE
:101430008DEF91E09093510380935003E6E9F3E040
:1014400085E490E020E530E0DF011D92AF014F5AC6
:101450005F4FFD019183808312823483238335960D
:10146000E417F507B9F744E0EA3DF40769F788E7C0
:1014700090E09093DB048093DA041092EA041092D7
:10148000EB041092EC041092ED041092E004109220
:10149000E1041092E2041092E3041092E504109229
:1014A000E4041092E7041092E6041092E90410920A
:1014B000E80480E990EDA3E0B0E08093DC04909331
:1014C000DD04A093DE04B093DF0442E050E060E16D
:1014D00070E080E893E00E946B0943E050E064E034
:1014E00070E08AE693E00E946B0988E080936303D2
:1014F00010926503109264031092680310926903BE
:10150000C0E0D0E8D0936703C09366030E9435091A
:1015100089E080935C0310925E0310925D03109249
:10152000610310926203D0936003C0935F03DF9165
:10153000CF910C943509CF93DF93CDB7DEB7689781
:101540000FB6F894DEBF0FBECDBF789484B582602D
:1015500084BD84B5816084BD85B5826085BD85B557
:10156000816085BD80916E00816080936E001092D5
:101570008100809181008260809381008091810050
:1015800081608093810080918000816080938000E1
:101590008091B10084608093B1008091B00081603F
:1015A0008093B00080917A00846080937A0080916B
:1015B0007A00826080937A0080917A0081608093C3
:1015C0007A0080917A00806880937A001092C1003E
:1015D000E091C302F091C40282E08083E091BF02F7
:1015E000F091C0021082E091C102F091C2028FEC32
:1015F00080831092CB02E091C702F091C80286E08E
:101600008083E091C502F091C60280818061808371
:10161000E091C502F091C602808188608083E091EC
:10162000C502F091C602808180688083E091C50286
:10163000F091C60280818F7D80831092AF0210925C
:10164000AE021092AD021092AC020E94FD0381EB3B
:1016500090E09093AB028093AA0282EB90E090938B
:10166000A9028093A80280E18093BA008FE795E0F9
:101670009093B1028093B0028AE693E00E94C30384
:1016800080E893E00E94C3038AE693E00E9488000A
:1016900080E893E00E94880061E084E00E943502C7
:1016A00061E085E00E94350261E086E00E9435023B
:1016B00061E087E00E94350261E0809163030E944F
:1016C000350261E0809163030E94E90161E080914D
:1016D0005C030E94350261E080915C030E94E90195
:1016E000809164039091650390619093650380936A
:1016F000640381E08093680320916603309167035F
:1017000030613093670320936603809369032091CF
:101710005D0330915E03306130935E0320935D037F
:101720008093610320915F033091600330613093B7
:10173000600320935F0380936203F3E32F2E322C28
:10174000F3EB4F2EFEE35F2E0E946602AB01BC015D
:101750008091E0049091E104A091E204B091E3044F
:101760000091EA041091EB042091EC043091ED0417
:10177000801B910BA20BB30B840F951FA61FB71FE5
:101780008093E0049093E104A093E204B093E30417
:101790000091DC041091DD042091DE043091DF041F
:1017A00080179107A207B307C0F01092E0041092CF
:1017B000E1041092E2041092E3048091B2028823C3
:1017C00061F08091E6049091E7048F30910594F5E3
:1017D00001969093E7048093E6044093EA045093C3
:1017E000EB046093EC047093ED04409184035091FA
:1017F000850370E060E08091890390918A030E94E4
:10180000C311F12CE12C10E000E071E5C72EECE0F3
:10181000DE2E8091E6049091E7040817190769F419
:101820008CE0E3EAF1E0DE011D9601900D928A95CD
:10183000E1F74EC090E080E0CCCF8091E40490913D
:10184000E504C89EF001C99EF00D1124EE0DFF1DA8
:10185000E956FC4F2281808191816CE070E00E940A
:101860003910D89EA001D99E500D1124CA01895F5C
:101870009E4FFC01DE0111963D2D01900D923A958F
:10188000E1F7DC014D915D916D917C911397149678
:101890008D919D910D90BC91A02DE091E804F09167
:1018A000E9040E171F0709F0B8C1222309F45DC12E
:1018B0004D875E876F87788B898B9A8BAB8BBC8BC0
:1018C00080E090E0A0E8BFE38D8B9E8BAF8BB88F5C
:1018D000CE010D960E9464049B01AC0180918203AD
:1018E000909183030817190728F4B80180E893E062
:1018F0000E948B020F5F1F4F95E0E90EF11C003133
:10190000110509F086CF8091890390918A03892B74
:1019100021F080E893E00E94F20240916E03509122
:101920006F0370E060E080917303909174030E94F4
:10193000C3115FEAC52E51E0D52E66E9E62E63E0BD
:10194000F62E570110E000E08CE0F601DE01119662
:1019500001900D928A95E1F7F60184819581A68127
:10196000B7812091E4043091E5040217130709F0D0
:1019700000C18D839E83AF83B8878CE0FE013196D2
:10198000DE011D9601900D928A95E1F7CE010D962C
:101990000E9464049B01AC0180916C0390916D03E3
:1019A0000817190728F4B8018AE693E00E948B0211
:1019B0000F5F1F4FFCE0CF0ED11C21E5A20EB11C22
:1019C0000430110509F68091730390917403892BFB
:1019D00021F08AE693E00E94F20226E9C22E23E07B
:1019E000D22E10E000E035E0B32E41E5A42E99247C
:1019F0009394D7018C91882309F4DEC0F601848189
:101A0000958164E670E00E9439102091DC043091E9
:101A1000DD044091DE045091DF04DB010E9485105B
:101A20002091E0043091E1044091E2045091E304FC
:101A3000621773078407950758F4D7011C92F801C1
:101A4000EE0FFF1FE152FE4F60E080810E94E9012E
:101A50000F5F1F4FF1E5EF0EF11C26E5C20ED11C02
:101A60000430110531F660905D0370905E03C09004
:101A70006603D0906703A0906403B09065038090E4
:101A80005F03909060032091E6043091E70445E005
:101A9000429FC001439F900D1124DC01AA56BC4F08
:101AA0007D0110E000E0F7018381882369F1618105
:101AB0007281072E000C880B990B0E942C0F26E0D8
:101AC00031E84AE252E40E94B80F20E030E040E002
:101AD0005FE30E941D0E0E94FB0E6115F0E17F077F
:101AE00010F06FEF7FE00230110509F48AC0033077
:101AF000110509F48CC00130110509F47CC0AA2439
:101B000020EFB222A62AB72A0F5F1F4FA1E5EA0EE7
:101B1000F11C0430110539F69092600380925F0346
:101B2000B0926503A0926403D0926703C0926603EB
:101B300070925E0360925D0380E090E0892B09F46F
:101B400003CE0E944601882309F4FECD0E940000C6
:101B5000FBCD49835A836B837C838D839E83AF83C4
:101B6000B8878CE0FE0131965ECE8CE0E7E9F1E0CB
:101B70005ACEF5012081222391F0F6014081518156
:101B8000628173814D875E876F87788B898B9A8B93
:101B9000AB8BBC8B2D8A3E8A4F8A588EF7CE1D8622
:101BA0001E861F86188A198A1A8A1B8A1C8A1D8A11
:101BB0001E8A1F8A188EEACE8091E6049091E7046F
:101BC000B89EF001B99EF00D1124A09EC001A19E07
:101BD000900D1124E80FF91FEA56FC4F83818823EA
:101BE00009F436CFF7019082F801EE0FFF1FE152A2
:101BF000FE4F61E02ACFCC2430EFD322C62AD72A69
:101C000083CF662480EF7822662A772A7DCF8824C6
:101C100090EF9922862A972A77CF21119ACF1D8695
:101C20001E861F86188A198A1A8A1B8A1C8A1D8A90
:101C30001E8A1F8A188E4CCE5058BB27AA270E9496
:101C4000340E0C947E0F0E94700F38F00E94770FB4
:101C500020F039F49F3F19F426F40C946D0F0EF424
:101C6000E095E7FB0C94670FE92F0E948F0F58F364
:101C7000BA17620773078407950720F079F4A6F571
:101C80000C94B10F0EF4E0950B2EBA2FA02D0B0182
:101C9000B90190010C01CA01A0011124FF27591BB1
:101CA00099F0593F50F4503E68F11A16F040A22FB7
:101CB000232F342F4427585FF3CF46953795279528
:101CC000A795F0405395C9F77EF41F16BA0B620B27
:101CD000730B840BBAF09150A1F0FF0FBB1F661F6E
:101CE000771F881FC2F70EC0BA0F621F731F841FB1
:101CF00048F4879577956795B795F7959E3F08F0D7
:101D0000B0CF9395880F08F09927EE0F9795879598
:101D100008950E949D0E0C947E0F0E94770F58F03C
:101D20000E94700F40F029F45F3F29F00C94670F78
:101D300051110C94B20F0C946D0F0E948F0F68F329
:101D40009923B1F3552391F3951B550BBB27AA2774
:101D500062177307840738F09F5F5F4F220F331FAE
:101D6000441FAA1FA9F335D00E2E3AF0E0E832D076
:101D700091505040E695001CCAF72BD0FE2F29D079
:101D8000660F771F881FBB1F261737074807AB074B
:101D9000B0E809F0BB0B802DBF01FF2793585F4FC0
:101DA0003AF09E3F510578F00C94670F0C94B20FF7
:101DB0005F3FE4F3983ED4F3869577956795B795A2
:101DC000F7959F5FC9F7880F911D9695879597F9AD
:101DD0000895E1E0660F771F881FBB1F6217730726
:101DE0008407BA0720F0621B730B840BBA0BEE1F3B
:101DF00088F7E09508950E94970F88F09F5798F014
:101E0000B92F9927B751B0F0E1F0660F771F881FFF
:101E1000991F1AF0BA95C9F714C0B13091F00E9419
:101E2000B10FB1E008950C94B10F672F782F882778
:101E3000B85F39F0B93FCCF3869577956795B39540
:101E4000D9F73EF490958095709561957F4F8F4FAF
:101E50009F4F0895E89409C097FB3EF490958095B4
:101E6000709561957F4F8F4F9F4F9923A9F0F92F60
:101E700096E9BB279395F695879577956795B795DE
:101E8000F111F8CFFAF4BB0F11F460FF1BC06F5FC4
:101E90007F4F8F4F9F4F16C0882311F096E911C0D6
:101EA000772321F09EE8872F762F05C0662371F0F7
:101EB00096E8862F70E060E02AF09A95660F771F0B
:101EC000881FDAF7880F9695879597F9089597F9FF
:101ED0009F6780E870E060E008959FEF80EC0895D0
:101EE00000240A94161617061806090608950024F9
:101EF0000A9412161306140605060895092E039473
:101F0000000C11F4882352F0BB0F40F4BF2B11F4E6
:101F100060FF04C06F5F7F4F8F4F9F4F089557FD45
:101F20009058440F551F59F05F3F71F04795880F47
:101F300097FB991F61F09F3F79F0879508951216DE
:101F400013061406551FF2CF4695F1DF08C016168A
:101F500017061806991FF1CF86957105610508943B
:101F60000895E894BB2766277727CB0197F9089552
:101F70000E94CB0F0C947E0F0E94700F38F00E94CD
:101F8000770F20F0952311F00C94670F0C946D0FD0
:101F900011240C94B20F0E948F0F70F3959FC1F320
:101FA000950F50E0551F629FF001729FBB27F00D07
:101FB000B11D639FAA27F00DB11DAA1F649F66275C
:101FC000B00DA11D661F829F2227B00DA11D621FAB
:101FD000739FB00DA11D621F839FA00D611D221F65
:101FE000749F3327A00D611D231F849F600D211D49
:101FF000822F762F6A2F11249F5750409AF0F1F0CC
:1020000088234AF0EE0FFF1FBB1F661F771F881F34
:1020100091505040A9F79E3F510580F00C94670FF6
:102020000C94B20F5F3FE4F3983ED4F38695779516
:102030006795B795F795E7959F5FC1F7FE2B880FDA
:10204000911D9695879597F90895AA1BBB1B51E1A1
:1020500007C0AA1FBB1FA617B70710F0A61BB70B18
:10206000881F991F5A95A9F780959095BC01CD01BD
:10207000089597FB072E16F4009407D077FD09D03A
:102080000E94251007FC05D03EF4909581959F4F46
:102090000895709561957F4F0895A1E21A2EAA1BAD
:1020A000BB1BFD010DC0AA1FBB1FEE1FFF1FA21708
:1020B000B307E407F50720F0A21BB30BE40BF50B05
:1020C000661F771F881F991F1A9469F7609570958E
:1020D000809590959B01AC01BD01CF010895A29F11
:1020E000B001B39FC001A39F700D811D1124911DEC
:1020F000B29F700D811D1124911D08950E946F10D3
:10210000B7FF0895821B930B0895B7FF0C949310AB
:102110000E949310821B930B0895EE0FFF1F0590F2
:10212000F491E02D09940E946F10A59F900DB49F2B
:10213000900DA49F800D911D112408950F931F935E
:10214000CF93DF938230910510F482E090E0E0912C
:10215000F004F091F10430E020E0B0E0A0E030972E
:1021600099F42115310509F44AC0281B390B243094
:102170003105D8F58A819B816115710589F1FB01D3
:1021800093838283FE0111C04081518102811381BA
:1021900048175907E0F04817590799F4109761F06C
:1021A00012960C93129713961C933296CF01DF91DF
:1021B000CF911F910F9108950093F0041093F104B3
:1021C000F4CF2115310551F04217530738F0A9011A
:1021D000DB019A01BD01DF01F801C1CFEF01F9CFA9
:1021E0009093F1048093F004CDCFFE01E20FF31F32
:1021F000819391932250310939832883D7CF20913D
:10220000EE043091EF04232B41F42091030130912F
:1022100004013093EF042093EE04209101013091EA
:1022200002012115310541F42DB73EB7409105015A
:1022300050910601241B350BE091EE04F091EF0460
:10224000E217F307A0F42E1B3F0B2817390778F08D
:10225000AC014E5F5F4F2417350748F04E0F5F1FEC
:102260005093EF044093EE04819391939FCFF0E05D
:10227000E0E09CCFCF93DF930097E9F0FC01329729
:1022800013821282A091F004B091F104ED0130E0CC
:1022900020E01097A1F420813181820F931F2091BB
:1022A000EE043091EF042817390709F061C0F0936C
:1022B000EF04E093EE04DF91CF910895EA01CE1789
:1022C000DF07E8F54A815B819E0141155105B1F7B1
:1022D000E901FB83EA8349915991C40FD51FEC179B
:1022E000FD0761F4808191810296840F951FE901B9
:1022F00099838883828193819B838A83F0E0E0E0E5
:1023000012968D919C9113970097B9F52D913C9160
:102310001197CD010296820F931F2091EE04309108
:10232000EF042817390739F6309751F51092F10468
:102330001092F004B093EF04A093EE04BCCFD383CB
:10234000C28340815181840F951FC817D90761F45A
:102350004E5F5F4F88819981480F591F5183408399
:102360008A819B81938382832115310509F0B0CF47
:10237000F093F104E093F0049ECFFD01DC01C0CFA7
:1023800013821282D7CFDC0101C06D9341505040BF
:10239000E0F7089510E0CDE5D0E004C0FE010E9412
:1023A0008D102196CE35D107C9F7F894FFCF0100E3
:1023B00000F2048000000000000000803F9A99199C
:1023C0003F0000F0410000803F9A99193F000070E3
:1023D000420000803F9A99193F0000B442000080FB
:1023E0003F9A99193F0000F0420000803F9A9919E6
:1023F0003F000016430000803F9A99193F000034C7
:10240000430000803F9A99193F000052430000802A
:102410003F9A99193F000070430000803F9A991934
:102420003F000087430000803F9A99193F000096C3
:10243000430000803F9A99193F0000A543000080A7
:102440003F9A99193F000066430000803F9A99190E
:102450003F0000A5430000803F9A99193F0000709B
:10246000420000803F9A99193F0000164300008007
:102470003F9A99193F000070430000803F9A9919D4
:102480003F0000A5430000803F9A99193F040005D2
:102490000006000700000000007C01DC000901C903
:1024A000013A0118012C01000000005004450461AC
:0C24B000041B043E042B041C040D0A0055
:107E0000112484B714BE81FFF0D085E080938100F7
:107E100082E08093C00088E18093C10086E0809377
:107E2000C20080E18093C4008EE0C9D0259A86E02C
:107E300020E33CEF91E0309385002093840096BBD3
:107E4000B09BFECF1D9AA8958150A9F7CC24DD24C4
:107E500088248394B5E0AB2EA1E19A2EF3E0BF2EE7
:107E6000A2D0813461F49FD0082FAFD0023811F036
:107E7000013811F484E001C083E08DD089C08234E0
:107E800011F484E103C0853419F485E0A6D080C0E4
:107E9000853579F488D0E82EFF2485D0082F10E0AE
:107EA000102F00270E291F29000F111F8ED06801E7
:107EB0006FC0863521F484E090D080E0DECF843638
:107EC00009F040C070D06FD0082F6DD080E0C81688
:107ED00080E7D80618F4F601B7BEE895C0E0D1E017
:107EE00062D089930C17E1F7F0E0CF16F0E7DF06D8
:107EF00018F0F601B7BEE89568D007B600FCFDCFD4
:107F0000A601A0E0B1E02C9130E011968C91119780
:107F100090E0982F8827822B932B1296FA010C0160
:107F200087BEE89511244E5F5F4FF1E0A038BF0790
:107F300051F7F601A7BEE89507B600FCFDCF97BE46
:107F4000E89526C08437B1F42ED02DD0F82E2BD052
:107F50003CD0F601EF2C8F010F5F1F4F84911BD097
:107F6000EA94F801C1F70894C11CD11CFA94CF0C13
:107F7000D11C0EC0853739F428D08EE10CD085E9AC
:107F80000AD08FE07ACF813511F488E018D01DD067
:107F900080E101D065CF982F8091C00085FFFCCF94
:107FA0009093C60008958091C00087FFFCCF809118
:107FB000C00084FD01C0A8958091C6000895E0E648
:107FC000F0E098E1908380830895EDDF803219F02E
:107FD00088E0F5DFFFCF84E1DECF1F93182FE3DFCA
:107FE0001150E9F7F2DF1F91089580E0E8DFEE27F6
:047FF000FF270994CA
:027FFE00040479
:00000001FF
