:020000040000FA
:100000000C945E000C9486000C9486000C94860080
:100010000C9486000C9486000C9486000C94860048
:100020000C9486000C9486000C9486000C94860038
:100030000C9486000C9486000C9486000C94860028
:100040000C94F5080C9486000C94C3080C949D083D
:100050000C9486000C9486000C9486000C94860008
:100060000C943F090C948600000000002400270037
:100070002A0000000008000201000003040700003D
:10008000000000000000010204081020408001026E
:1000900004081020010204081020000000002500C0
:1000A00028002B00040404040404040402020202D5
:1000B0000202030303030303280B720A11241FBE69
:1000C000CFEFD8E0DEBFCDBF12E0A0E0B1E0EEE1BF
:1000D000F7E202C005900D92AE34B107D9F726E0E1
:1000E000AEE4B2E001C01D92A935B207E1F710E01D
:1000F000CDE5D0E004C02197FE010E944512CC3529
:10010000D107C9F70E94120C0C9482130C940000C2
:10011000CF93DF93EC016885693201F129853A8537
:100120006150B9F070E08FEF98E20E94DD11F901A3
:100130004C815D81CF01821B930B8417950760F47E
:100140004081469FC001479F900D112490833196B6
:10015000EFCF70E060E0EBCF89E28887DF91CF914D
:1001600008950895CF93DF93AC01E091F302F091ED
:10017000F4023097F1F09091F2028091F102981719
:10018000C0F090E0292F30E02617370754F4D9014A
:10019000AE5ABD4F240F351FE90128812C939F5F74
:1001A000F1CF1092F2026093F102CB01DF91CF9177
:1001B0000994DF91CF910895AF92BF92CF92DF92D1
:1001C000EF92FF920F931F93CF93DF936C017B010C
:1001D0008B01040F151FEB015E01AE18BF08C0179D
:1001E000D10759F06991D601ED91FC910190F08110
:1001F000E02DC6010995892B79F7C501DF91CF91D3
:100200001F910F91FF90EF90DF90CF90BF90AF9034
:100210000895FC01538D448D252F30E0842F90E00C
:10022000821B930B541710F0CF96089501970895F1
:10023000FC01918D828D981761F0A28DAE0FBF2FBA
:10024000B11D5D968C91928D9F5F9F73928F90E010
:1002500008958FEF9FEF0895FC01918D828D98177F
:1002600031F0828DE80FF11D858D90E008958FEFBC
:100270009FEF0895FC01918D228D892F90E0805C85
:100280009F4F821B91098F739927089586EF92E003
:100290000E943A0121E0892B09F420E0822F089581
:1002A00080E090E0892B29F00E94460181110C9496
:1002B00000000895FC01A48DA80FB92FB11DA35A09
:1002C000BF4F2C91848D90E001968F739927848F76
:1002D000A689B7892C93A089B1898C918370806499
:1002E0008C93938D848D981306C00288F389E02D3A
:1002F00080818F7D80830895EF92FF920F931F93EB
:10030000CF93DF93EC0181E0888F9B8D8C8D9813C8
:100310001AC0E889F989808185FF15C09FB7F894D4
:10032000EE89FF896083E889F98980818370806420
:1003300080839FBF81E090E0DF91CF911F910F916B
:10034000FF90EF900895F62E0B8D10E00F5F1F4F7A
:100350000F731127E02E8C8D8E110CC00FB607FC89
:10036000FACFE889F989808185FFF5CFCE010E9417
:100370005A01F1CFEB8DEC0FFD2FF11DE35AFF4F2A
:10038000F0829FB7F8940B8FEA89FB8980818062A5
:10039000CFCFCF93DF93EC01888D8823B9F0AA8962
:1003A000BB89E889F9898C9185FD03C0808186FD30
:1003B0000DC00FB607FCF7CF8C9185FFF2CF80817F
:1003C00085FFEDCFCE010E945A01E9CFDF91CF9199
:1003D000089590E0FC01EE58FF4F2491FC01EA578C
:1003E000FF4F3491FC01EC55FF4FE491EE23C9F02F
:1003F000222339F0233001F1A8F4213019F1223001
:1004000029F1F0E0EE0FFF1FE656FF4FA591B491E2
:100410008FB7F894EC91611126C030953E233C9340
:100420008FBF08952730A9F02830C9F0243049F74C
:10043000809180008F7D03C0809180008F778093B2
:100440008000DFCF84B58F7784BDDBCF84B58F7D0F
:10045000FBCF8091B0008F778093B000D2CF809196
:10046000B0008F7DF9CF3E2BDACFCF93DF9390E0B2
:10047000FC01EA57FF4F24918C559F4FFC0184915A
:100480008823D1F090E0880F991FFC01E859FF4FB5
:10049000A591B491FC01E656FF4FC591D49161112D
:1004A0000EC09FB7F8948C91E22FE0958E238C9329
:1004B0002881E223E8839FBFDF91CF9108958FB712
:1004C000F894EC91E22BEC938FBFF6CF3FB7F89402
:1004D0008091E7029091E802A091E902B091EA02CE
:1004E00026B5A89B05C02F3F19F00196A11DB11D8F
:1004F0003FBFBA2FA92F982F8827BC01CD01620FCB
:10050000711D811D911D42E0660F771F881F991F85
:100510004A95D1F708958F929F92AF92BF92CF9252
:10052000DF92EF92FF924B015C010E9466026B0129
:100530007C010E9466026C197D098E099F09683E44
:10054000734081059105A8F321E0821A9108A10862
:10055000B10888EEC80E83E0D81EE11CF11C81149E
:100560009104A104B10429F7FF90EF90DF90CF90A0
:10057000BF90AF909F908F9008958F929F92AF926F
:10058000BF92CF92DF92EF92FF921F93CF93DF93B0
:10059000FC014A01AA24BB24C82DC32ED42EE52E6B
:1005A000FF241C2DD22F8085882361F0889E400176
:1005B0001124C92D8C9D600111241D2D829FD00115
:1005C0001124DB2FA685E184F2849385A91322C030
:1005D000CB01880F991F680F791F6E0D7F1DA385B2
:1005E000A60FB72FB11DCC93A485A60FB72FB11DB1
:1005F0001C938585680F711DFB01D083DF91CF911E
:100600001F91FF90EF90DF90CF90BF90AF909F90A1
:100610008F900895660F771F660F771F6E0D7F1DF1
:10062000252F332744275527882349F090E0829FC0
:100630007001839FF00C929FF00C11242F2DA60FB8
:10064000B72FB11D2C93CBCFCF92DF92EF92FF92B9
:100650000F931F93CF93DF93CDB7DEB729970FB6D4
:10066000F894DEBF0FBECDBF8C010E946602D80198
:100670001F96CD90DD90ED90FC9052976C157D0506
:100680008E059F0528F4F8016787708B818B928B0C
:10069000D8011F96CD90DD90ED90FC9052976C198B
:1006A0007D098E099F096C32714081059105E8F240
:1006B000F894F801848195819A8389830184F28575
:1006C000E02D7F012FEFE21AF20A80818F83D8019B
:1006D0009C915396ED91FC91549755968C9199234A
:1006E00009F448C09081982B988790818095892340
:1006F000898789858B8388E08C83588569854F81BC
:100700003C812B8189819A81D701508347FD252F18
:100710003A952083262F39F0441F00C000006083E3
:10072000000000C0F2CF38E04D91608300000197D7
:1007300061F7D8015496FC93EE9353974F833C8313
:100740002B839A83898378940E946602F8016787D5
:10075000708B818B928B29960FB6F894DEBF0FBEFB
:10076000CDBFDF91CF911F910F91FF90EF90DF9060
:10077000CF9008959081982B9887908180958923B8
:10078000898789858D8388E08E83588569854F8127
:100790003E812D8189819A81D701508347FD252F84
:1007A00000C000C0208300C000C000C000C000C066
:1007B00060830000262F3A9541F0441F000000C0DE
:1007C00000C000C000C000C0E8CF38E04D9100C0BC
:1007D000608300C0019709F7D8015496FC93EE930B
:1007E00053974F833E832D83ACCFCF93DF93EC01A0
:1007F0008E819F8197FD07C061E00E94350260E015
:100800008E810E94E90181E08983DF91CF91089573
:1008100020919802260F3327331F21323105ECF443
:100820002091BC02FC0190E080E0243069F082E07D
:100830000895A09198022191AC0148585D4FA40FF2
:10084000B52FB11D2C930196861798F380919802CD
:10085000680F6093980280E0089581E008951092F7
:10086000BC0281E08093BE021092BD0261E082E191
:100870000E94E90161E083E10E94E901E9EBF0E017
:1008800080818E7F808380818D7F808388E48093C8
:10089000B80085E48093BC0008950895E091F202C9
:1008A0008091F102E81730F4F0E0EE5AFD4F8081BC
:1008B00090E008958FEF9FEF08959091F20280915C
:1008C000F1022FEF3FEF981748F4E92FF0E0EE5ACE
:1008D000FD4F208130E09F5F9093F202C90108959F
:1008E0008091F1029091F202891B990B0895CF93A8
:1008F000DF93CB01EA01642F0E940804CE01DF914F
:10090000CF910895CF93DF931F92CDB7DEB7698360
:1009100061E0CE0101960E94080481E090E00F9012
:10092000DF91CF91089590E080E00895DC01139667
:10093000FC01E75BFF4FAD019D91961720F4AE17C8
:10094000BF07D1F790E02291621720F4E417F50772
:10095000D1F720E070E0892F90E0861B970B97FF7E
:1009600003C0919581959109621B710977FF03C0BE
:10097000719561957109681779070CF4862F0895B0
:10098000CF93DF93EC01A881B0E0E981FA81EE0F0B
:10099000FF1FE85CFE4F40815181EA012196485FCC
:1009A0005F4F70E060E029912A0F3B2F311DFB0162
:1009B0003396E80FF91F2F3731054CF46634710573
:1009C00034F4245F3F4F21936F5F7F4FF4CFC41700
:1009D000D50749F7DF91CF9108958F929F92AF92FB
:1009E000BF92EF92FF920F931F93CF93DF937C01FF
:1009F00020E030E04FE753E4FC016085718582859B
:100A000093850E9464110E94A710062F20E030E019
:100A10004FE753E4F70164817581868197810E94D5
:100A200064110E94A710C62F20E030E044EB53E48D
:100A3000F70160817181828193810E94351020E0ED
:100A40003FEF4FE757E40E9464110E94A7109B01FB
:100A5000AAEFB5E00E942712DC01CB019058AF4FFE
:100A6000BF4FCD01BB2797FDB095AB2F8E3FF1E077
:100A70009F0708F058C0382F8F3F910508F475C0C4
:100A80004EEF481B50E03FEF10E00F5F1F4FEC2E82
:100A9000F12C8FEFE81AF80AC095D0E03E9DC00116
:100AA0003F9D900D1124292F33272C0F3D1FD80176
:100AB0000E9436124B015C018824AA24BB245E9D4F
:100AC00090015F9D300D1124232F33272C0F3D1FE4
:100AD0000E943612672F782F892F9927862A972A06
:100AE000A82AB92A4E9D90014F9D300D1124232F25
:100AF00033272C0F3D1F0E943612982F872F762FF9
:100B00006627662777279927682979298A299B29C3
:100B1000DF91CF911F910F91FF90EF90BF90AF9019
:100B20009F908F9008958C3F23E0920768F48D3F4B
:100B3000E2E09E0728F452E0580F3FEF40E0A4CFD8
:100B40003CEF381B5FEFFACF8A3FF5E09F0781F05B
:100B50008B3F24E0920728F444E0480F5FEF30E039
:100B600093CF5AEF581B30E001C050E04FEF8CCFCD
:100B700050E0F9CF0CB405FC0DC09EBD00000DB4D3
:100B800007FEFDCF9EB58EBD00000DB407FEFDCF64
:100B90008EB508958EBD00000DB407FEFDCF8EB555
:100BA0009EBD00000DB407FEFDCF9EB50895CF9306
:100BB000DF93EC0180915002882361F08FB7F894A5
:100BC000909150029130C9F59DB390934F029DB31F
:100BD0009DBB8FBF80E58CBD81E08DBD8D8188235D
:100BE00061F060E088810E94E90189819A810E9418
:100BF000BA0561E088810E94E9018E81882361F055
:100C000060E088810E94E9018B819C810E94BA0585
:100C100061E088810E94E90180915002882351F0AF
:100C20009FB7F8942091500280914F02213041F4F7
:100C30008DBB9FBFDF91CF91089580934F02CACFA4
:100C40008FBFF8CF8F929F92AF92BF920F931F9357
:100C5000CF93DF93CDB7DEB7A1970FB6F894DEBF81
:100C60000FBECDBF19A2423008F44AE08E010F5DDD
:100C70001F4F842E912CB12CA12CA50194010E9410
:100C80000512E62FB901CA01EA3044F5E05DD8014A
:100C9000EE938D01232B242B252B79F790E080E018
:100CA000109769F0FD0101900020E9F73197AF013D
:100CB0004A1B5B0BBD0186EF92E00E94DC00A1960F
:100CC0000FB6F894DEBF0FBECDBFDF91CF911F915D
:100CD0000F91BF90AF909F908F900895E95CD7CF10
:100CE000CF92DF92EF92FF92CF93DF9383E993E06D
:100CF0000E945D047C0183E993E00E945D04EC01A5
:100D000083E993E00E945D04AC01EA94EF2809F0C6
:100D10007EC1C130D10509F44AC04CF4CD2B91F10C
:100D2000DF91CF91FF90EF90DF90CF900895C23088
:100D3000D10509F4EAC0239799F720914B06309129
:100D40004C0680914E02882309F44FC18AE9829FA4
:100D5000F001839FF00D1124EF01C65DDB4FE55DCF
:100D6000FB4F808191814130510509F02EC10196E0
:100D700068E070E00E94F11191838083892B81F2F9
:100D8000CE0137C080914F069091500641305105F9
:100D900061F4019697FD409660E170E00E94F111C8
:100DA0009093500680934F06BBCF0197F3CF80916D
:100DB0004E02882361F160914B0670914C068AE9DE
:100DC000869F9001879F300D1124C901865D9B4F3E
:100DD000FC01208130E04130510599F42F5F3F4FF5
:100DE0003AE9369FF001379FF00D1124E65DFB4F85
:100DF0002083DF91CF91FF90EF90DF90CF900C9404
:100E0000C0042150310960F72BE030E0E9CF809138
:100E100000018823E9F1809141069091420641301A
:100E2000510569F50596843191055CF584E190E002
:100E3000909342068093410660914106709142066C
:100E4000072E000C880B990B0E94D8109B01AC0157
:100E500060E070E080E792E40E94351020E034E228
:100E600044EF58E40E9464110E94A7106093430667
:100E700070934406809345069093460651CF05979C
:100E8000D2CF8D3221E092079CF28CE291E0D0CF5C
:100E900020914B0630914C0660914F0670915006A0
:100EA00085E0869FF001879FF00D1124AAE9A29F9B
:100EB000C001A39F900D1124E80FF91FE752FC4FCA
:100EC0008481958141305105F1F4059645E0469FB6
:100ED000F001479FF00D11246AE9629FA001639F12
:100EE000500D1124E40FF51FE752FC4F853091059A
:100EF00014F485E090E08436910514F083E690E0E8
:100F0000958384830DCF0597E1CF80914B06909117
:100F10004C0660914F067091500625E0269FF00127
:100F2000279FF00D1124AAE9A89F9001A99F300DD9
:100F30001124E20FF31FE752FC4F2181328141302F
:100F40005105F1F52F373105ECF52F5F3F4F45E0A7
:100F5000469FF001479FF00D11246AE9689FA001A8
:100F6000699F500D1124E40FF51FE752FC4F3283A7
:100F700021836901032E000CEE08FF084AE0C70137
:100F8000B60137FF0DC06DE286EF92E00E947C0152
:100F900066277727CB016C197D098E099F094AE0E6
:100FA0000E94220642E050E06AE472E086EF92E09E
:100FB000DF91CF91FF90EF90DF90CF900C94DC0009
:100FC00037FDC5CF21503109C2CF019768E070E0ED
:100FD0000E94F11197FD08964AE9429FF001439F54
:100FE000F00D1124E55DFB4FC7CEC901413051051D
:100FF00061F4019797FD049664E070E00E94F1119E
:1010000090934C0680934B068BCE0196F3CFC13064
:10101000D105C1F054F4CD2B09F082CE8091F502B8
:1010200091E089278093F5027BCEC230D10539F15A
:10103000239709F075CE80914E0291E08927809325
:101040004E026ECE20914B0630914C0680914F0699
:101050009091500645E0489FF001499FF00D112402
:101060004AE9429FC001439F900D1124E80FF91FE8
:10107000E752FC4F838191E08927838351CE809191
:10108000000191E08927809300014ACECF93DF933E
:1010900085ED8093BC008091740290917502A091BF
:1010A0007602B09177020796A11DB11D23E0B69597
:1010B000A795979587952A95D1F72091BC0024FD97
:1010C00003C01092BC0236C0409174025091750268
:1010D0006091760270917702452B462B472B69F37E
:1010E0000097A105B10541F025E32A95F1F700002D
:1010F0000197A109B109E1CF8091730291E090932A
:1011000072028823B9F0C091B800D091BA008091E2
:10111000BC008A7B8093BC0060E082E10E94E90110
:1011200060E083E10E94E9010E942F04D093BA009D
:10113000C093B800DF91CF9108951F920F920FB620
:101140000F9211242F933F934F935F936F937F934D
:101150008F939F93AF93BF93EF93FF9386EF92E0AC
:101160000E945A01FF91EF91BF91AF919F918F9192
:101170007F916F915F914F913F912F910F900FBE93
:101180000F901F9018951F920F920FB60F92112477
:101190002F938F939F93EF93FF93E0910603F0912A
:1011A00007038081E0910C03F0910D0382FD1BC0C9
:1011B000908180910F038F5F8F73209110038217AE
:1011C00041F0E0910F03F0E0EA50FD4F958F8093DE
:1011D0000F03FF91EF919F918F912F910F900FBE71
:1011E0000F901F9018958081F4CF1F920F920FB629
:1011F0000F9211242F933F938F939F93AF93BF939D
:101200008091E3029091E402A091E502B091E602A0
:101210003091E20223E0230F2D3758F50196A11DEE
:10122000B11D2093E2028093E3029093E402A09325
:10123000E502B093E6028091E7029091E802A09166
:10124000E902B091EA020196A11DB11D8093E70267
:101250009093E802A093E902B093EA02BF91AF91A4
:101260009F918F913F912F910F900FBE0F901F90E4
:10127000189526E8230F0296A11DB11DD2CF1F920B
:101280000F920FB60F9211242F933F934F935F93BA
:101290006F937F938F939F93AF93BF93EF93FF933E
:1012A0008091B900887F803609F44AC0F0F5883211
:1012B00009F4A7C018F5803109F49BC0B8F488235D
:1012C00009F4F9C0883009F494C0FF91EF91BF91FF
:1012D000AF919F918F917F916F915F914F913F91CE
:1012E0002F910F900FBE0F901F901895883109F421
:1012F00088C0803251F78093BB0214C0803409F457
:101300009DC040F48033B9F38833F9F68093BB0273
:1013100085ECB0C0803509F485C0883509F496C0E5
:10132000883499F60E944608D0CF883909F48CC0D9
:1013300038F5883729F050F4883611F0803729F6CF
:1013400083E08093BC021092BA0257C0883809F437
:101350007BC0803919F0803809F0B7CF8091BA028C
:10136000803208F071C0E091BA0281E08E0F809364
:10137000BA028091BB00F0E0E656FD4F80833DC08D
:10138000803B39F0E0F4803A09F479C0883A09F0FA
:101390009CCF84E08093BC02109299021092980234
:1013A000E091ED02F091EE02099580919802811191
:1013B0000FC081E0809398021092780209C0803CAF
:1013C00009F4A6CF883C09F4A3CF883B09F07DCF70
:1013D000E091990281E08E0F80939902F0E0E85845
:1013E000FD4F80818093BB0090919902809198027B
:1013F00029C08091E1028093BB0085EC8093BC0002
:1014000064CF9091E0028091DF02981758F5E09147
:10141000E00281E08E0F8093E002F0E0E154FD4FA6
:101420008081E9CFE091E00281E08E0F8093E002BD
:101430008091BB00F0E0E154FD4F80839091E00289
:101440008091DF029817C8F285E8D8CFE091E002DA
:1014500081E08E0F8093E0028091BB00F0E0E154C8
:10146000FD4F80838091BE0281115CCF81E080932B
:10147000BD0284EA8093BC001092BC0226CF85ECAA
:101480008093BC001092BC028091BA02803230F48A
:10149000E091BA02F0E0E656FD4F10826091BA0288
:1014A00070E0E091EB02F091EC028AE992E009959C
:1014B0001092BA020ACF1092BB0234CF9FB7F894B1
:1014C00080915102882319F08150809351028091BC
:1014D0005102811105C08CB58F7B8CBD10925002DA
:1014E0009FBF08950E945E0A0E945E0A8091B60323
:1014F0009091B7030E94F2128091B3039091B403CC
:1015000097FD03C060E00E9435028091CC0390916A
:10151000CD030E94F2128091C9039091CA0397FDF6
:1015200003C060E00C9435020895CF93CFB7F894D0
:1015300080915102811127C0EEEAF0E08491E0E948
:10154000F0E09491E82FF0E0EE0FFF1FE859FF4F15
:10155000A591B491EC91E92321F461E08AE00E9425
:10156000E90161E08AE00E9435028CB580618CBDA2
:101570008CB580648CBD61E08DE00E94350261E035
:101580008BE00E943502809151028F5F809351025F
:10159000CFBFCF910895CF92DF92EF92FF920F933A
:1015A0001F93CF93DF93EC016B01F42EE52E19828C
:1015B00018861F86188A198A1A8A81E08E878B8777
:1015C0001C8692E09D8788838B01000F111F060FF8
:1015D000171F1D830C83C8010E9456129A878987A2
:1015E000009789F1A80170E060E00E947B13DB8224
:1015F000CA82FE82EF828981882341F061E08F2DCB
:101600000E94350260E08F2D0E94E9018F2D9E2DF2
:10161000FC01EC55FF4FE491F0E0EE0FFF1FE656A2
:10162000FF4F259134913C8B2B8BFC01EA57FF4FE8
:10163000E491ED8BDF91CF911F910F91FF90EF908F
:10164000DF90CF9008951D821C821B821A82D1CF19
:10165000CF92DF92EF92FF920F931F93CF93DF937E
:101660001092F9021092F80288EE93E0A0E0B0E048
:101670008093FA029093FB02A093FC02B093FD02C8
:101680002AE232E03093F7022093F60225EC30E0B4
:10169000309303032093020324EC30E030930503DE
:1016A0002093040320EC30E03093070320930603DB
:1016B00021EC30E0309309032093080322EC30E062
:1016C00030930B0320930A0326EC30E030930D0394
:1016D00020930C0310920F03109210031092110329
:1016E0001092120310929603109295038093970321
:1016F00090939803A0939903B0939A038CE392E09C
:10170000909394038093930309ED13E08AE294E0AD
:1017100025E4E22EF12C30E5C32ED12CE8011992FC
:10172000F982E8821A82DC82CB822596C817D90713
:10173000B9F718821A821982CE010E94C004065697
:101740001F4FCE0186569F4F26E00134120731F716
:1017500088E790E0909342068093410610925106EC
:101760001092520610925306109254061092470699
:10177000109248061092490610924A0610924C06A2
:1017800010924B0610924E0610924D061092500683
:1017900010924F0680E990EDA3E0B0E080934306FD
:1017A00090934406A0934506B093460643E050E06C
:1017B00060E170E083EC93E00E94CB0A42E050E0ED
:1017C00064E070E08DEA93E00E94CB0A88E08093A9
:1017D000A6031092A8031092A7031092AB031092D5
:1017E000AC03C0E0D0E8D093AA03C093A9030E9441
:1017F000950A89E080939F031092A1031092A003A1
:101800001092A4031092A503D093A303C093A20344
:10181000DF91CF911F910F91FF90EF90DF90CF90CC
:101820000C94950ACF93DF93CDB7DEB768970FB6C8
:10183000F894DEBF0FBECDBF789484B5826084BDBE
:1018400084B5816084BD85B5826085BD85B58160C4
:1018500085BD80916E00816080936E001092810042
:1018600080918100826080938100809181008160FD
:1018700080938100809180008160809380008091BE
:10188000B10084608093B1008091B000816080934A
:10189000B00080917A00846080937A0080917A0011
:1018A000826080937A0080917A00816080937A00D0
:1018B00080917A00806880937A001092C10061E084
:1018C0008EE00E94E90161E08EE00E943502E09125
:1018D0000603F091070382E08083E0910203F09118
:1018E00003031082E0910403F09105038FEC8083E1
:1018F00010920E03E0910A03F0910B0386E08083BF
:10190000E0910803F0910903808180618083E09178
:101910000803F0910903808188608083E0910803C7
:10192000F0910903808180688083E0910803F09141
:10193000090380818F7D80831092F2021092F10260
:101940001092F0021092EF020E942F0481EB90E0BF
:101950009093EE028093ED0282EB90E09093EC0284
:101960008093EB0280E18093BA0080E796E0909349
:10197000F4028093F3028DEA93E00E94F50383EC76
:1019800093E00E94F5038DEA93E00E94880083ECC7
:1019900093E00E94880061E084E00E94350261E0EB
:1019A00085E00E94350261E086E00E94350261E038
:1019B00087E00E94350261E08091A6030E94350213
:1019C00061E08091A6030E94E90161E080919F039C
:1019D0000E94350261E080919F030E94E90180919D
:1019E000A7039091A80390619093A8038093A70305
:1019F00081E08093AB032091A9033091AA03306169
:101A00003093AA032093A9038093AC032091A003F1
:101A10003091A10330613093A1032093A003809300
:101A2000A4032091A2033091A30330613093A30358
:101A30002093A2038093A50362E370E080E090E02E
:101A40000E948B0260E08EE00E94E90165E070E098
:101A500080E090E00E948B0261E08EE00E94E9014C
:101A6000412C512C60E8662E6FE3762E73E3872EAF
:101A7000982C73EBA72E7EE3B72E0E946602AB0173
:101A8000BC018091470690914806A0914906B0910B
:101A90004A0600915106109152062091530630914A
:101AA0005406801B910BA20BB30B840F951FA61F2E
:101AB000B71F8093470690934806A0934906B093BA
:101AC0004A06009143061091440620914506309144
:101AD000460680179107A207B307C0F01092470689
:101AE000109248061092490610924A068091F5021B
:101AF000882361F080914D0690914E068F309105BC
:101B000074F5019690934E0680934D0640935106CE
:101B10005093520660935306709354064091C70346
:101B20005091C80370E060E08091CC039091CD03A8
:101B30000E947B1310E000E05CE0F52E80914D06E2
:101B400090914E060817190769F48CE0E2EEF1E077
:101B5000DE011D9601900D928A95E1F756C090E046
:101B600080E0D0CF80914B0690914C064AE9489F87
:101B70009001499F300D112485E0809FF001819FE5
:101B8000F00D1124E20FF31FE652FC4FE28080813A
:101B9000F901E55DFB4F40815181452B31F0682F04
:101BA000C901865D9B4F0E9496046F2D0E94D11142
:101BB000F99EC00111248A5B9E4FFC01DE01119643
:101BC0002F2D01900D922A95E1F7FC014081518162
:101BD0006281738184819581A681B78120914F06AE
:101BE000309150060217130709F0C3C1EE2009F423
:101BF0004EC14D875E876F87788B898B9A8BAB8BB5
:101C0000BC8B4D8A5E8A6F8A788ECE010D960E94BB
:101C1000ED049B01AC018091C5039091C6030817A8
:101C2000190728F4B80183EC93E00E94BD020F5F0E
:101C30001F4F0031110509F081CF8091CC039091A5
:101C4000CD03892B21F083EC93E00E942403409183
:101C5000B1035091B20370E060E08091B6039091BF
:101C6000B7030E947B133EEEC32E31E0D32E49ED25
:101C7000E42E43E0F42E170110E000E08CE0F601C2
:101C8000DE01119601900D928A95E1F7F6018481AB
:101C90009581A681B78120914B0630914C060217A1
:101CA000130709F0F8C08D839E83AF83B8878CE05B
:101CB000FE013196DE011D9601900D928A95E1F7A5
:101CC000CE010D960E94ED049B01AC018091AF0303
:101CD0009091B0030817190728F4B8018DEA93E032
:101CE0000E94BD020F5F1F4FFCE0CF0ED11C2AE9FE
:101CF000220E311C0430110509F68091B603909133
:101D0000B703892B21F08DEA93E00E94240329ED8B
:101D1000222E23E0322E610110E000E0F6018081E6
:101D2000882309F4DBC0F1018481958164E670E0C9
:101D30000E94F111209143063091440640914506DE
:101D400050914606DB010E943D12209147063091DA
:101D500048064091490650914A0662177307840766
:101D6000950758F4F6011082F801EE0FFF1FE25EAE
:101D7000FD4F60E080810E94E9010F5F1F4F4AE93B
:101D8000C40ED11C8FE9280E311C0430110531F628
:101D900010E000E060914D0670914E0625E0269F10
:101DA000F001279FF00D11244AE9409FC001419F97
:101DB000900D1124E80FF91FE752FC4F838188230F
:101DC00009F443C0862FF701EE5AFF4F208131817D
:101DD000232B29F0C7018F5A9F4F0E949604682F2A
:101DE00070E090E080E00E94D81026E031E84AE2FE
:101DF00052E40E94641120E030E040E05FE30E9482
:101E0000C90F0E94A710611580E1780710F06FEFED
:101E10007FE00230110509F490C00330110509F488
:101E20009BC00130110509F47BC08091A7039091FC
:101E3000A8038827907F682B792B7093A803609361
:101E4000A70386EA93E00E94D7050F5F1F4FEAE9D8
:101E5000EE0EF11C0430110509F09CCF80E090E0FB
:101E6000892B09F40ACE0E944601882309F405CE85
:101E70000E94000002CE49835A836B837C838D834A
:101E80009E83AF83B8878CE0FE01319661CE8CE0F3
:101E9000E6EDF1E05DCEF1012081222391F0F60123
:101EA00040815181628173814D875E876F87788B16
:101EB000898B9A8BAB8BBC8B8D8A9E8AAF8AB88EAE
:101EC000FFCE1D861E861F86188A198A1A8A1B8ACB
:101ED0001C8A1D8A1E8A1F8A188EF2CE80914D069A
:101EE00090914E0625E0289FF001299FF00D1124C6
:101EF0004AE9409FC001419F900D1124E80FF91F4E
:101F0000E752FC4F8381882309F437CF21E0F601A3
:101F10002083F801EE0FFF1FE25EFD4F61E02ACF44
:101F20008091A9039091AA038827907F682B792B31
:101F30007093AA036093A90384CF8091A00390912A
:101F4000A1038827907F682B792B7093A10360935E
:101F5000A0038FE993E077CF8091A2039091A30330
:101F60008827907F682B792B7093A3036093A2033B
:101F7000F0CFE11080CF1D861E861F86188A198A31
:101F80001A8A1B8A1C8A1D8A1E8A1F8A188E3DCEB9
:101F90005058BB27AA270E94E00F0C942A110E94D8
:101FA0001C1138F00E94231120F039F49F3F19F4DE
:101FB00026F40C9419110EF4E095E7FB0C94131120
:101FC000E92F0E943B1158F3BA1762077307840781
:101FD000950720F079F4A6F50C945D110EF4E095C8
:101FE0000B2EBA2FA02D0B01B90190010C01CA01D3
:101FF000A0011124FF27591B99F0593F50F4503E7E
:1020000068F11A16F040A22F232F342F4427585F6F
:10201000F3CF469537952795A795F0405395C9F787
:102020007EF41F16BA0B620B730B840BBAF091503F
:10203000A1F0FF0FBB1F661F771F881FC2F70EC0DE
:10204000BA0F621F731F841F48F4879577956795B1
:10205000B795F7959E3F08F0B0CF9395880F08F09D
:102060009927EE0F9795879508950E9449100C9433
:102070002A110E94231158F00E941C1140F029F4EB
:102080005F3F29F00C94131151110C945E110C94C4
:1020900019110E943B1168F39923B1F3552391F371
:1020A000951B550BBB27AA2762177307840738F0C7
:1020B0009F5F5F4F220F331F441FAA1FA9F335D024
:1020C0000E2E3AF0E0E832D091505040E695001CD8
:1020D000CAF72BD0FE2F29D0660F771F881FBB1F92
:1020E000261737074807AB07B0E809F0BB0B802D70
:1020F000BF01FF2793585F4F3AF09E3F510578F09C
:102100000C9413110C945E115F3FE4F3983ED4F3EA
:10211000869577956795B795F7959F5FC9F7880F6F
:10212000911D9695879597F90895E1E0660F771FC1
:10213000881FBB1F621773078407BA0720F0621B52
:10214000730B840BBA0BEE1F88F7E09508950E947D
:10215000431188F09F5798F0B92F9927B751B0F0E5
:10216000E1F0660F771F881F991F1AF0BA95C9F71B
:1021700014C0B13091F00E945D11B1E008950C944B
:102180005D11672F782F8827B85F39F0B93FCCF3FE
:10219000869577956795B395D9F73EF49095809598
:1021A000709561957F4F8F4F9F4F0895E89409C0B8
:1021B00097FB3EF490958095709561957F4F8F4F7A
:1021C0009F4F9923A9F0F92F96E9BB279395F69590
:1021D000879577956795B795F111F8CFFAF4BB0F0E
:1021E00011F460FF1BC06F5F7F4F8F4F9F4F16C072
:1021F000882311F096E911C0772321F09EE8872FFC
:10220000762F05C0662371F096E8862F70E060E0B7
:102210002AF09A95660F771F881FDAF7880F969530
:10222000879597F9089597F99F6780E870E060E0D7
:1022300008959FEF80EC089500240A94161617065F
:1022400018060906089500240A94121613061406A7
:1022500005060895092E0394000C11F4882352F00A
:10226000BB0F40F4BF2B11F460FF04C06F5F7F4FC2
:102270008F4F9F4F089557FD9058440F551F59F0A9
:102280005F3F71F04795880F97FB991F61F09F3F63
:1022900079F087950895121613061406551FF2CF8C
:1022A0004695F1DF08C0161617061806991FF1CFDC
:1022B00086957105610508940895E894BB27662703
:1022C0007727CB0197F908950E9477110C942A1172
:1022D0000E941C1138F00E94231120F0952311F068
:1022E0000C9413110C94191111240C945E110E947A
:1022F0003B1170F3959FC1F3950F50E0551F629FFE
:10230000F001729FBB27F00DB11D639FAA27F00D4E
:10231000B11DAA1F649F6627B00DA11D661F829F75
:102320002227B00DA11D621F739FB00DA11D621F5A
:10233000839FA00D611D221F749F3327A00D611D77
:10234000231F849F600D211D822F762F6A2F112459
:102350009F5750409AF0F1F088234AF0EE0FFF1F8C
:10236000BB1F661F771F881F91505040A9F79E3FE3
:10237000510580F00C9413110C945E115F3FE4F34F
:10238000983ED4F3869577956795B795F795E79539
:102390009F5FC1F7FE2B880F911D9695879597F942
:1023A0000895991B79E004C0991F961708F0961BB1
:1023B000881F7A95C9F780950895AA1BBB1B51E128
:1023C00007C0AA1FBB1FA617B70710F0A61BB70BA5
:1023D000881F991F5A95A9F780959095BC01CD014A
:1023E000089597FB072E16F4009407D077FD09D0C7
:1023F0000E94DD1107FC05D03EF4909581959F4F1A
:102400000895709561957F4F0895A1E21A2EAA1B39
:10241000BB1BFD010DC0AA1FBB1FEE1FFF1FA21794
:10242000B307E407F50720F0A21BB30BE40BF50B91
:10243000661F771F881F991F1A9469F7609570951A
:10244000809590959B01AC01BD01CF010895A29F9D
:10245000B001B39FC001A39F700D811D1124911D78
:10246000B29F700D811D1124911D08950E942712A5
:10247000B7FF0895821B930B0895B7FF0C944B127E
:102480000E944B12821B930B0895EE0FFF1F0590C5
:10249000F491E02D09940E942712A59F900DB49FFE
:1024A000900DA49F800D911D112408950F931F93EB
:1024B000CF93DF938230910510F482E090E0E091B9
:1024C0005706F091580630E020E0B0E0A0E03097E9
:1024D00099F42115310509F44AC0281B390B243021
:1024E0003105D8F58A819B816115710589F1FB0160
:1024F00093838283FE0111C0408151810281138147
:1025000048175907E0F04817590799F4109761F0F8
:1025100012960C93129713961C933296CF01DF916B
:10252000CF911F910F91089500935706109358066D
:10253000F4CF2115310551F04217530738F0A901A6
:10254000DB019A01BD01DF01F801C1CFEF01F9CF35
:102550009093580680935706CDCFFE01E20FF31FEC
:10256000819391932250310939832883D7CF2091C9
:10257000550630915606232B41F4209103013091EA
:1025800004013093560620935506209101013091A5
:1025900002012115310541F42DB73EB740910501E7
:1025A00050910601241B350BE0915506F09156061B
:1025B000E217F307A0F42E1B3F0B2817390778F01A
:1025C000AC014E5F5F4F2417350748F04E0F5F1F79
:1025D0005093560640935506819391939FCFF0E018
:1025E000E0E09CCFCF93DF930097E9F0FC013297B6
:1025F00013821282A0915706B0915806ED0130E087
:1026000020E01097A1F420813181820F931F209147
:102610005506309156062817390709F061C0F09326
:102620005606E0935506DF91CF910895EA01CE1743
:10263000DF07E8F54A815B819E0141155105B1F73D
:10264000E901FB83EA8349915991C40FD51FEC1727
:10265000FD0761F4808191810296840F951FE90145
:1026600099838883828193819B838A83F0E0E0E071
:1026700012968D919C9113970097B9F52D913C91ED
:102680001197CD010296820F931F2091550630912C
:1026900056062817390739F6309751F51092580623
:1026A00010925706B0935606A0935506BCCFD3831D
:1026B000C28340815181840F951FC817D90761F4E7
:1026C0004E5F5F4F88819981480F591F5183408326
:1026D0008A819B81938382832115310509F0B0CFD4
:1026E000F0935806E09357069ECFFD01DC01C0CF62
:1026F00013821282D7CFDC0101C06D93415050404C
:10270000E0F7089510E0CDE5D0E004C0FE010E949E
:1027100045122196CE35D107C9F7F894FFCF0100B5
:1027200000590680000002030505080A000203059F
:1027300007080A0002040507090A0002040607093F
:102740000B0001030507080A0002030507090A0038
:1027500002040507090B31012A0123011C0115019F
:102760000E010701000000000000803F9A99193F08
:102770000000F0410000803F9A99193F000070422C
:102780000000803F9A99193F0000B4420000803F4A
:102790009A99193F0000F0420000803F9A99193F32
:1027A000000016430000803F9A99193F000034430F
:1027B0000000803F9A99193F000052430000803F7B
:1027C0009A99193F000070430000803F9A99193F81
:1027D000000087430000803F9A99193F000096430C
:1027E0000000803F9A99193F0000A5430000803FF8
:1027F0009A99193F000066430000803F9A99193F5B
:102800000000A5430000803F9A99193F00007042E4
:102810000000803F9A99193F000016430000803F56
:102820009A99193F000070430000803F9A99193F20
:102830000000A5430000803F9A99193F040005005D
:1028400006000700000000007C01DC000901C9014E
:102850003A0118012C01000000008204770493045F
:0C2860004D0470045D044E040D0A0000DD
:107E0000112484B714BE81FFF0D085E080938100F7
:107E100082E08093C00088E18093C10086E0809377
:107E2000C20080E18093C4008EE0C9D0259A86E02C
:107E300020E33CEF91E0309385002093840096BBD3
:107E4000B09BFECF1D9AA8958150A9F7CC24DD24C4
:107E500088248394B5E0AB2EA1E19A2EF3E0BF2EE7
:107E6000A2D0813461F49FD0082FAFD0023811F036
:107E7000013811F484E001C083E08DD089C08234E0
:107E800011F484E103C0853419F485E0A6D080C0E4
:107E9000853579F488D0E82EFF2485D0082F10E0AE
:107EA000102F00270E291F29000F111F8ED06801E7
:107EB0006FC0863521F484E090D080E0DECF843638
:107EC00009F040C070D06FD0082F6DD080E0C81688
:107ED00080E7D80618F4F601B7BEE895C0E0D1E017
:107EE00062D089930C17E1F7F0E0CF16F0E7DF06D8
:107EF00018F0F601B7BEE89568D007B600FCFDCFD4
:107F0000A601A0E0B1E02C9130E011968C91119780
:107F100090E0982F8827822B932B1296FA010C0160
:107F200087BEE89511244E5F5F4FF1E0A038BF0790
:107F300051F7F601A7BEE89507B600FCFDCF97BE46
:107F4000E89526C08437B1F42ED02DD0F82E2BD052
:107F50003CD0F601EF2C8F010F5F1F4F84911BD097
:107F6000EA94F801C1F70894C11CD11CFA94CF0C13
:107F7000D11C0EC0853739F428D08EE10CD085E9AC
:107F80000AD08FE07ACF813511F488E018D01DD067
:107F900080E101D065CF982F8091C00085FFFCCF94
:107FA0009093C60008958091C00087FFFCCF809118
:107FB000C00084FD01C0A8958091C6000895E0E648
:107FC000F0E098E1908380830895EDDF803219F02E
:107FD00088E0F5DFFFCF84E1DECF1F93182FE3DFCA
:107FE0001150E9F7F2DF1F91089580E0E8DFEE27F6
:047FF000FF270994CA
:027FFE00040479
:00000001FF
