:100000000C945E000C9486000C9486000C94860080
:100010000C9486000C9486000C9486000C94860048
:100020000C9486000C9486000C9486000C94860038
:100030000C9486000C9486000C9486000C94860028
:100040000C94FF070C9486000C94CD070C94A70722
:100050000C9486000C9486000C9486000C94860008
:100060000C9449080C94860000000000240027002E
:100070002A0000000008000201000003040700003D
:10008000000000000000010204081020408001026E
:1000900004081020010204081020000000002500C0
:1000A00028002B00040404040404040402020202D5
:1000B0000202030303030303320A7C0911241FBE57
:1000C000CFEFD8E0DEBFCDBF12E0A0E0B1E0E8E8BE
:1000D000F4E202C005900D92AE30B107D9F724E0EA
:1000E000AEE0B2E001C01D92A43FB207E1F710E01C
:1000F000CDE5D0E004C02197FE010E94FA10CC3576
:10010000D107C9F70E94050B0C9437120C9400001C
:10011000CF93DF93EC016885693201F129853A8537
:100120006150B9F070E08FEF98E20E949210F901EF
:100130004C815D81CF01821B930B8417950760F47E
:100140004081469FC001479F900D112490833196B6
:10015000EFCF70E060E0EBCF89E28887DF91CF914D
:1001600008950895CF93DF93AC01E091B202F0912E
:10017000B3023097F1F09091B1028091B0029817DC
:10018000C0F090E0292F30E02617370754F4D9014A
:10019000AF5EBD4F240F351FE90128812C939F5F6F
:1001A000F1CF1092B1026093B002CB01DF91CF91F9
:1001B0000994DF91CF910895AF92BF92CF92DF92D1
:1001C000EF92FF920F931F93CF93DF936C017B010C
:1001D0008B01040F151FEB015E01AE18BF08C0179D
:1001E000D10759F06991D601ED91FC910190F08110
:1001F000E02DC6010995892B79F7C501DF91CF91D3
:100200001F910F91FF90EF90DF90CF90BF90AF9034
:100210000895FC01538D448D252F30E0842F90E00C
:10022000821B930B541710F0CF96089501970895F1
:10023000FC01918D828D981761F0A28DAE0FBF2FBA
:10024000B11D5D968C91928D9F5F9F73928F90E010
:1002500008958FEF9FEF0895FC01918D828D98177F
:1002600031F0828DE80FF11D858D90E008958FEFBC
:100270009FEF0895FC01918D228D892F90E0805C85
:100280009F4F821B91098F739927089585EB92E008
:100290000E943A0121E0892B09F420E0822F089581
:1002A00080E090E0892B29F00E94460181110C9496
:1002B00000000895FC01A48DA80FB92FB11DA35A09
:1002C000BF4F2C91848D90E001968F739927848F76
:1002D000A689B7892C93A089B1898C918370806499
:1002E0008C93938D848D981306C00288F389E02D3A
:1002F00080818F7D80830895EF92FF920F931F93EB
:10030000CF93DF93EC0181E0888F9B8D8C8D9813C8
:100310001AC0E889F989808185FF15C09FB7F894D4
:10032000EE89FF896083E889F98980818370806420
:1003300080839FBF81E090E0DF91CF911F910F916B
:10034000FF90EF900895F62E0B8D10E00F5F1F4F7A
:100350000F731127E02E8C8D8E110CC00FB607FC89
:10036000FACFE889F989808185FFF5CFCE010E9417
:100370005A01F1CFEB8DEC0FFD2FF11DE35AFF4F2A
:10038000F0829FB7F8940B8FEA89FB8980818062A5
:10039000CFCFCF93DF93EC01888D8823B9F0AA8962
:1003A000BB89E889F9898C9185FD03C0808186FD30
:1003B0000DC00FB607FCF7CF8C9185FFF2CF80817F
:1003C00085FFEDCFCE010E945A01E9CFDF91CF9199
:1003D000089590E0FC01EE58FF4F2491FC01EA578C
:1003E000FF4F3491FC01EC55FF4FE491EE23C9F02F
:1003F000222339F0233001F1A8F4213019F1223001
:1004000029F1F0E0EE0FFF1FE656FF4FA591B491E2
:100410008FB7F894EC91611126C030953E233C9340
:100420008FBF08952730A9F02830C9F0243049F74C
:10043000809180008F7D03C0809180008F778093B2
:100440008000DFCF84B58F7784BDDBCF84B58F7D0F
:10045000FBCF8091B0008F778093B000D2CF809196
:10046000B0008F7DF9CF3E2BDACFCF93DF9390E0B2
:10047000FC01EA57FF4F24918C559F4FFC0184915A
:100480008823D1F090E0880F991FFC01E859FF4FB5
:10049000A591B491FC01E656FF4FC591D49161112D
:1004A0000EC09FB7F8948C91E22FE0958E238C9329
:1004B0002881E223E8839FBFDF91CF9108958FB712
:1004C000F894EC91E22BEC938FBFF6CF3FB7F89402
:1004D0008091A6029091A702A091A802B091A902D2
:1004E00026B5A89B05C02F3F19F00196A11DB11D8F
:1004F0003FBFBA2FA92F982F8827BC01CD01620FCB
:10050000711D811D911D42E0660F771F881F991F85
:100510004A95D1F708958F929F92AF92BF92CF9252
:10052000DF92EF92FF921F93CF93DF93FC014A017A
:10053000AA24BB24C82DC32ED42EE52EFF241C2DA7
:10054000D22F8085882361F0889E40011124C92D17
:100550008C9D600111241D2D829FD0011124DB2F61
:10056000A685E184F2849385A91322C0CB01880F6C
:10057000991F680F791F6E0D7F1DA385A60FB72FDA
:10058000B11DCC93A485A60FB72FB11D1C938585F3
:10059000680F711DFB01D083DF91CF911F91FF90F8
:1005A000EF90DF90CF90BF90AF909F908F90089585
:1005B000660F771F660F771F6E0D7F1D252F332760
:1005C00044275527882349F090E0829F7001839F3C
:1005D000F00C929FF00C11242F2DA60FB72FB11DF8
:1005E0002C93CBCFCF92DF92EF92FF920F931F937A
:1005F000CF93DF93CDB7DEB729970FB6F894DEBF60
:100600000FBECDBF8C010E946602D8011F96CD900F
:10061000DD90ED90FC9052976C157D058E059F0541
:1006200028F4F8016787708B818B928BD8011F9615
:10063000CD90DD90ED90FC9052976C197D098E095C
:100640009F096C32714081059105E8F2F894F80138
:10065000848195819A8389830184F285E02D7F01CD
:100660002FEFE21AF20A80818F83D8019C91539672
:10067000ED91FC91549755968C91992309F448C0BB
:100680009081982B98879081809589238987898587
:100690008B8388E08C83588569854F813C812B81D1
:1006A00089819A81D701508347FD252F3A95208370
:1006B000262F39F0441F00C000006083000000C0F6
:1006C000F2CF38E04D9160830000019761F7D801C7
:1006D0005496FC93EE9353974F833C832B839A83DA
:1006E000898378940E946602F8016787708B818BFA
:1006F000928B29960FB6F894DEBF0FBECDBFDF9167
:10070000CF911F910F91FF90EF90DF90CF900895C0
:100710009081982B988790818095892389878985F6
:100720008D8388E08E83588569854F813E812D8138
:1007300089819A81D701508347FD252F00C000C0D1
:10074000208300C000C000C000C000C06083000063
:10075000262F3A9541F0441F000000C000C000C0A1
:1007600000C000C0E8CF38E04D9100C0608300C0F9
:10077000019709F7D8015496FC93EE9353974F8352
:100780003E832D83ACCFCF93DF93EC018E819F818D
:1007900097FD07C061E00E94350260E08E810E94F3
:1007A000E90181E08983DF91CF910895209157027B
:1007B000260F3327331F21323105ECF420917B02C1
:1007C000FC0190E080E0243069F082E00895A0917F
:1007D00057022191AC01495C5D4FA40FB52FB11DAB
:1007E0002C930196861798F380915702680F6093B7
:1007F000570280E0089581E0089510927B0281E025
:1008000080937D0210927C0261E082E10E94E90106
:1008100061E083E10E94E901E9EBF0E080818E7FF5
:10082000808380818D7F808388E48093B80085E415
:100830008093BC0008950895E091B1028091B002C8
:10084000E81730F4F0E0EF5EFD4F808190E008950E
:100850008FEF9FEF08959091B1028091B0022FEF3A
:100860003FEF981748F4E92FF0E0EF5EFD4F20814D
:1008700030E09F5F9093B102C90108958091B0026A
:100880009091B102891B990B0895CF93DF93CB010F
:10089000EA01642F0E94D603CE01DF91CF91089523
:1008A000CF93DF931F92CDB7DEB7698361E0CE01AE
:1008B00001960E94D60381E090E00F90DF91CF91E6
:1008C000089590E080E008958F929F92AF92BF923A
:1008D000EF92FF920F931F93CF93DF937C0120E061
:1008E00030E04FE753E4FC01608571858285938594
:1008F0000E9425100E94680F062F20E030E04FE78D
:1009000053E4F70164817581868197810E942510E7
:100910000E94680FC62F20E030E044EB53E4F7015B
:1009200060817181828193810E94F60E20E03FEF09
:100930004FE757E40E9425100E94680F9B01AAEF21
:10094000B5E00E94DC10DC01CB019058AF4FBF4FE7
:10095000CD01BB2797FDB095AB2F8E3FF1E09F07F0
:1009600008F058C0382F8F3F910508F475C04EEF3E
:10097000481B50E03FEF10E00F5F1F4FEC2EF12CB3
:100980008FEFE81AF80AC095D0E03E9DC0013F9D68
:10099000900D1124292F33272C0F3D1FD8010E94C1
:1009A000EB104B015C018824AA24BB245E9D9001BE
:1009B0005F9D300D1124232F33272C0F3D1F0E94E4
:1009C000EB10672F782F892F9927862A972AA82A34
:1009D000B92A4E9D90014F9D300D1124232F3327AE
:1009E0002C0F3D1F0E94EB10982F872F762F662724
:1009F000662777279927682979298A299B29DF91F2
:100A0000CF911F910F91FF90EF90BF90AF909F906B
:100A10008F9008958C3F23E0920768F48D3FE2E0C9
:100A20009E0728F452E0580F3FEF40E0A4CF3CEF80
:100A3000381B5FEFFACF8A3FF5E09F0781F08B3FCD
:100A400024E0920728F444E0480F5FEF30E093CFB2
:100A50005AEF581B30E001C050E04FEF8CCF50E010
:100A6000F9CF0CB405FC0DC09EBD00000DB407FE0F
:100A7000FDCF9EB58EBD00000DB407FEFDCF8EB537
:100A800008958EBD00000DB407FEFDCF8EB59EBD4E
:100A900000000DB407FEFDCF9EB50895CF93DF9300
:100AA000EC0180910F02882361F08FB7F894909148
:100AB0000F029130C9F59DB390930E029DB39DBB7B
:100AC0008FBF80E58CBD81E08DBD8D81882361F075
:100AD00060E088810E94E90189819A810E94310544
:100AE00061E088810E94E9018E81882361F060E0E5
:100AF00088810E94E9018B819C810E94310561E01F
:100B000088810E94E90180910F02882351F09FB7EC
:100B1000F89420910F0280910E02213041F48DBB98
:100B20009FBFDF91CF91089580930E02CACF8FBFF0
:100B3000F8CF8F929F92AF92BF920F931F93CF9354
:100B4000DF93CDB7DEB7A1970FB6F894DEBF0FBE27
:100B5000CDBF19A2423008F44AE08E010F5D1F4F4D
:100B6000842E912CB12CA12CA50194010E94BA10C5
:100B7000E62FB901CA01EA3044F5E05DD801EE93F1
:100B80008D01232B242B252B79F790E080E0109703
:100B900069F0FD0101900020E9F73197AF014A1B90
:100BA0005B0BBD0185EB92E00E94DC00A1960FB6C5
:100BB000F894DEBF0FBECDBFDF91CF911F910F9193
:100BC000BF90AF909F908F900895E95CD7CFCF9260
:100BD000DF92EF92FF92CF93DF9382E593E00E9442
:100BE0002B047C0182E593E00E942B04EC0182E55A
:100BF00093E00E942B04AC01EA94EF2809F01CC199
:100C0000C130D105C9F14CF4CD2B09F1DF91CF9161
:100C1000FF90EF90DF90CF900895C230D10509F496
:100C2000A9C0239799F78091E6049091E704413099
:100C3000510509F0FFC0019797FD049664E070E04C
:100C40000E94A6109093E7048093E604DFCF809182
:100C5000EA049091EB044130510561F4019697FD4F
:100C6000409660E170E00E94A6109093EB048093A0
:100C7000EA04CCCF0197F3CF809100018823E9F1FA
:100C80008091DC049091DD044130510569F50596B1
:100C9000843191055CF584E190E09093DD048093CC
:100CA000DC046091DC047091DD04072E000C880BDD
:100CB000990B0E94990F9B01AC0160E070E080E706
:100CC00092E40E94F60E20E034E244EF58E40E94E1
:100CD00025100E94680F6093DE047093DF048093F8
:100CE000E0049093E10492CF0597D2CF8D3221E0BA
:100CF00092079CF28CE291E0D0CF2091E6043091F3
:100D0000E7046091EA047091EB0485E0869FF001AE
:100D1000879FF00D1124A1E5A29FC001A39F900D14
:100D20001124E80FF91FE856FC4F8481958141306A
:100D30005105F1F4059645E0469FF001479FF00DFF
:100D4000112461E5629FA001639F500D1124E40FFF
:100D5000F51FE856FC4F8530910514F485E090E0CE
:100D60008436910514F083E690E0958384834ECF1A
:100D70000597E1CF8091E6049091E7046091EA0441
:100D80007091EB0425E0269FF001279FF00D1124C0
:100D9000A1E5A89F9001A99F300D1124E20FF31F38
:100DA000E856FC4F2181328141305105F1F52F3752
:100DB0003105ECF52F5F3F4F45E0469FF001479F1F
:100DC000F00D112461E5689FA001699F500D112469
:100DD000E40FF51FE856FC4F328321836901032E8F
:100DE000000CEE08FF084AE0C701B60137FF0DC04E
:100DF0006DE285EB92E00E947C0166277727CB01AC
:100E00006C197D098E099F094AE00E94990542E00C
:100E100050E06BE072E085EB92E0DF91CF91FF90C4
:100E2000EF90DF90CF900C94DC0037FDC5CF2150C0
:100E30003109C2CF019600CFC130D10569F0C2306F
:100E4000D10539F1CD2B09F0E1CE8091B40291E0CA
:100E500089278093B402DACE2091E6043091E7042A
:100E60008091EA049091EB0445E0489FF001499F8E
:100E7000F00D112441E5429FC001439F900D1124C4
:100E8000E80FF91FE856FC4F838191E0892783839F
:100E9000BDCE8091000191E0892780930001B6CEFC
:100EA000CF93DF9385ED8093BC00809133029091C6
:100EB0003402A0913502B09136020796A11DB11DF2
:100EC00023E0B695A795979587952A95D1F7209118
:100ED000BC0024FD03C010927B0236C04091330257
:100EE000509134026091350270913602452B462BA9
:100EF000472B69F30097A105B10541F025E32A9539
:100F0000F1F700000197A109B109E1CF8091320208
:100F100091E0909331028823B9F0C091B800D0914C
:100F2000BA008091BC008A7B8093BC0060E082E1C3
:100F30000E94E90160E083E10E94E9010E94FD0353
:100F4000D093BA00C093B800DF91CF9108951F925B
:100F50000F920FB60F9211242F933F934F935F93ED
:100F60006F937F938F939F93AF93BF93EF93FF9371
:100F700085EB92E00E945A01FF91EF91BF91AF91F2
:100F80009F918F917F916F915F914F913F912F91A1
:100F90000F900FBE0F901F9018951F920F920FB6D3
:100FA0000F9211242F938F939F93EF93FF93E091D0
:100FB000C502F091C6028081E091CB02F091CC0293
:100FC00082FD1BC090818091CE028F5F8F73209134
:100FD000CF02821741F0E091CE02F0E0EB54FD4FDA
:100FE000958F8093CE02FF91EF919F918F912F91DA
:100FF0000F900FBE0F901F9018958081F4CF1F9215
:101000000F920FB60F9211242F933F938F939F93BC
:10101000AF93BF938091A2029091A302A091A402EA
:10102000B091A5023091A10223E0230F2D3758F58E
:101030000196A11DB11D2093A1028093A20290935D
:10104000A302A093A402B093A5028091A60290915E
:10105000A702A091A802B091A9020196A11DB11DFD
:101060008093A6029093A702A093A802B093A9022E
:10107000BF91AF919F918F913F912F910F900FBE94
:101080000F901F90189526E8230F0296A11DB11D01
:10109000D2CF1F920F920FB60F9211242F933F932E
:1010A0004F935F936F937F938F939F93AF93BF9370
:1010B000EF93FF938091B900887F803609F44AC08E
:1010C000F0F5883209F4A7C018F5803109F49BC007
:1010D000B8F4882309F4F9C0883009F494C0FF916A
:1010E000EF91BF91AF919F918F917F916F915F91A0
:1010F0004F913F912F910F900FBE0F901F90189519
:10110000883109F488C0803251F780937A0214C084
:10111000803409F49DC040F48033B9F38833F9F684
:1011200080937A0285ECB0C0803509F485C088359B
:1011300009F496C0883499F60E945007D0CF8839B8
:1011400009F48CC038F5883729F050F4883611F04E
:10115000803729F683E080937B021092790257C092
:10116000883809F47BC0803919F0803809F0B7CF8E
:1011700080917902803208F071C0E091790281E0BB
:101180008E0F809379028091BB00F0E0E75AFD4F0B
:1011900080833DC0803B39F0E0F4803A09F479C0A7
:1011A000883A09F09CCF84E080937B021092580229
:1011B00010925702E091AC02F091AD020995809136
:1011C000570281110FC081E08093570210923702BD
:1011D00009C0803C09F4A6CF883C09F4A3CF883B22
:1011E00009F07DCFE091580281E08E0F8093580284
:1011F000F0E0E95CFD4F80818093BB009091580244
:101200008091570229C08091A0028093BB0085EC99
:101210008093BC0064CF90919F0280919E029817AA
:1012200058F5E0919F0281E08E0F80939F02F0E0DD
:10123000E258FD4F8081E9CFE0919F0281E08E0F5F
:1012400080939F028091BB00F0E0E258FD4F8083C5
:1012500090919F0280919E029817C8F285E8D8CF9E
:10126000E0919F0281E08E0F80939F028091BB00EE
:10127000F0E0E258FD4F808380917D0281115CCFC8
:1012800081E080937C0284EA8093BC0010927B0210
:1012900026CF85EC8093BC0010927B02809179026E
:1012A000803230F4E0917902F0E0E75AFD4F10828D
:1012B0006091790270E0E091AA02F091AB0289E5B9
:1012C00092E00995109279020ACF10927A0234CFF7
:1012D0009FB7F89480911002882319F08150809371
:1012E000100280911002811105C08CB58F7B8CBDDE
:1012F00010920F029FBF08950E9468090E9468091A
:1013000080917503909176030E94A71180917203DA
:101310009091730397FD03C060E00E9435028091B5
:101320008B0390918C030E94A71180918803909168
:10133000890397FD03C060E00C9435020895CF93B4
:10134000CFB7F89480911002811127C0EEEAF0E047
:101350008491E0E9F0E09491E82FF0E0EE0FFF1FB8
:10136000E859FF4FA591B491EC91E92321F461E094
:101370008AE00E94E90161E08AE00E9435028CB5B2
:1013800080618CBD8CB580648CBD61E08DE00E9475
:10139000350261E08BE00E943502809110028F5F80
:1013A00080931002CFBFCF910895CF92DF92EF923A
:1013B000FF920F931F93CF93DF93EC016B01F42EF9
:1013C000E52E198218861F86188A198A1A8A81E0E2
:1013D0008E878B871C8692E09D8788838B01000F08
:1013E000111F060F171F1D830C83C8010E940B11CC
:1013F0009A878987009789F1A80170E060E00E94D0
:101400003012DB82CA82FE82EF828981882341F01A
:1014100061E08F2D0E94350260E08F2D0E94E9016E
:101420008F2D9E2DFC01EC55FF4FE491F0E0EE0F67
:10143000FF1FE656FF4F259134913C8B2B8BFC010F
:10144000EA57FF4FE491ED8BDF91CF911F910F9100
:10145000FF90EF90DF90CF9008951D821C821B8239
:101460001A82D1CFCF93DF931092B8021092B702B5
:1014700088EE93E0A0E0B0E08093B9029093BA02C6
:10148000A093BB02B093BC022BEE31E03093B602C6
:101490002093B50225EC30E03093C2022093C102C4
:1014A00024EC30E03093C4022093C30220EC30E0FF
:1014B0003093C6022093C50221EC30E03093C8027D
:1014C0002093C70222EC30E03093CA022093C90275
:1014D00026EC30E03093CC022093CB021092CE0267
:1014E0001092CF021092D0021092D10210925503A6
:1014F000109254038093560390935703A09358037C
:10150000B09359038DEF91E090935303809352036E
:10151000E8E9F3E085E490E020E530E0DF011D92AA
:10152000AF014F5A5F4FFD01918380831282348354
:1015300023833596E417F507B9F744E0EC3DF4074B
:1015400069F788E790E09093DD048093DC041092C3
:10155000EC041092ED041092EE041092EF0410923D
:10156000E2041092E3041092E4041092E504109255
:10157000E7041092E6041092E9041092E804109235
:10158000EB041092EA0480E990EDA3E0B0E08093D0
:10159000DE049093DF04A093E004B093E10442E002
:1015A00050E060E170E082E893E00E94D50943E0FA
:1015B00050E064E070E08CE693E00E94D50988E09A
:1015C00080936503109267031092660310926A037A
:1015D00010926B03C0E0D0E8D0936903C093680316
:1015E0000E949F0989E080935E031092600310922D
:1015F0005F031092630310926403D0936203C0935D
:101600006103DF91CF910C949F09CF93DF93CDB706
:10161000DEB768970FB6F894DEBF0FBECDBF7894E3
:1016200084B5826084BD84B5816084BD85B58260E7
:1016300085BD85B5816085BD80916E008160809398
:101640006E00109281008091810082608093810001
:101650008091810081608093810080918000816011
:10166000809380008091B10084608093B10080916C
:10167000B00081608093B00080917A008460809394
:101680007A0080917A00826080937A0080917A005B
:10169000816080937A0080917A00806880937A00DC
:1016A0001092C100E091C502F091C60282E08083F1
:1016B000E091C102F091C2021082E091C302F09168
:1016C000C4028FEC80831092CD02E091C902F091A8
:1016D000CA0286E08083E091C702F091C80280814F
:1016E00080618083E091C702F091C80280818860A8
:1016F0008083E091C702F091C80280818068808376
:10170000E091C702F091C80280818F7D80831092A2
:10171000B1021092B0021092AF021092AE020E947B
:10172000FD0381EB90E09093AD028093AC0282EBDD
:1017300090E09093AB028093AA0280E18093BA007C
:1017400087EE95E09093B3028093B2028CE693E02B
:101750000E94C30382E893E00E94C3038CE693E0F7
:101760000E94880082E893E00E94880061E084E0A3
:101770000E94350261E085E00E94350261E086E06A
:101780000E94350261E087E00E94350261E08091AD
:1017900065030E94350261E0809165030E94E901C2
:1017A00061E080915E030E94350261E080915E03FA
:1017B0000E94E90180916603909167039061909384
:1017C00067038093660381E080936A032091680336
:1017D00030916903306130936903209368038093EB
:1017E0006B0320915F03309160033061309360039D
:1017F00020935F0380936303209161033091620320
:101800003061309362032093610380936403412C21
:10181000512CE0E86E2EEFE37E2EF3E38F2E982C12
:10182000F3EBAF2EFEE3BF2E0E946602AB01BC01BC
:101830008091E2049091E304A091E404B091E50466
:101840000091EC041091ED042091EE043091EF042E
:10185000801B910BA20BB30B840F951FA61FB71F04
:101860008093E2049093E304A093E404B093E5042E
:101870000091DE041091DF042091E0043091E10436
:1018800080179107A207B307C0F01092E2041092EC
:10189000E3041092E4041092E5048091B4028823DA
:1018A00061F08091E8049091E9048F30910584F50E
:1018B00001969093E9048093E8044093EC045093DC
:1018C000ED046093EE047093EF0440918603509111
:1018D000870370E060E080918B0390918C030E94FD
:1018E0003012F12CE12C10E000E07CE0D72E80914A
:1018F000E8049091E9040817190769F48CE0E3EA19
:10190000F1E0DE011D9601900D928A95E1F748C045
:1019100090E080E0CECF8091E6049091E70421E54D
:10192000289FF001299FF00D1124EE0DFF1DE756B1
:10193000FC4F2281808191816CE070E00E94A610B2
:10194000D89EA001D99E500D1124CA01895F9E4FD7
:10195000FC01DE0111963D2D01900D923A95E1F7C3
:10196000FC01408151816281738184819581A681CE
:10197000B781E091EA04F091EB040E171F0709F01C
:10198000B9C1222309F444C14D875E876F87788BE4
:10199000898B9A8BAB8BBC8B4D8A5E8A6F8A788ED3
:1019A000CE010D960E9464049B01AC0180918403DA
:1019B000909185030817190728F4B80182E893E08D
:1019C0000E948B020F5F1F4FF5E0EF0EF11C0031FC
:1019D000110509F08CCF80918B0390918C03892B9A
:1019E00021F082E893E00E94F2024091700350914E
:1019F000710370E060E080917503909176030E941E
:101A000030125FEAC52E51E0D52E68E9E62E63E07C
:101A1000F62E170110E000E08CE0F601DE011196D1
:101A200001900D928A95E1F7F60184819581A68156
:101A3000B7812091E6043091E7040217130709F0FB
:101A4000EBC08D839E83AF83B8878CE0FE01319617
:101A5000DE011D9601900D928A95E1F7CE010D965B
:101A60000E9464049B01AC0180916E0390916F030E
:101A70000817190728F4B8018CE693E00E948B023E
:101A80000F5F1F4FFCE0CF0ED11C21E5220E311C51
:101A90000430110509F68091750390917603892B26
:101AA00021F08CE693E00E94F20238E9C32E33E085
:101AB000D32E10E000E044E6242E312CF701808183
:101AC000882309F4CCC0F60184819581B1010E947C
:101AD000A6102091DE043091DF044091E004509183
:101AE000E104DB010E94F2102091E2043091E30452
:101AF0004091E4045091E504621773078407950749
:101B000058F4F7011082F801EE0FFF1FE152FE4F6B
:101B100060E080810E94E9010F5F1F4F81E5E80EC0
:101B2000F11CE6E5CE0ED11C0430110539F610E0AB
:101B300000E085E0F82E8091E8049091E904F89E99
:101B4000F001F99EF00D112421E5209FC001219F95
:101B5000900D1124E80FF91FE856FC4F838188236C
:101B6000C1F161817281072E000C880B990B0E94D4
:101B7000990F26E031E84AE252E40E94251020E065
:101B800030E040E05FE30E948A0E0E94680F61151A
:101B900080E1780710F06FEF7FE00230110509F463
:101BA0008DC00330110509F498C00130110509F406
:101BB00078C080916603909167038827907F682B97
:101BC000792B709367036093660385E693E00E9428
:101BD0004E050F5F1F4F0430110509F0ACCF80E0B8
:101BE00090E0892B09F420CE0E944601882309F455
:101BF0001BCE0E94000018CE49835A836B837C83DE
:101C00008D839E83AF83B8878CE0FE01319679CEB9
:101C10008CE0E7E9F1E075CEF1012081222391F01B
:101C2000F60140815181628173814D875E876F87A4
:101C3000788B898B9A8BAB8BBC8B8D8A9E8AAF8A73
:101C4000B88E0CCF1D861E861F86188A198A1A8A9E
:101C50001B8A1C8A1D8A1E8A1F8A188EFFCE8091BD
:101C6000E8049091E90425E0289FF001299FF00DF8
:101C7000112421E5209FC001219F900D1124E80F20
:101C8000F91FE856FC4F8381882309F445CF21E0F2
:101C9000F7012083F801EE0FFF1FE152FE4F61E0D4
:101CA00038CF80916803909169038827907F682BD3
:101CB000792B709369036093680387CF80915F03EA
:101CC000909160038827907F682B792B7093600335
:101CD00060935F038EE593E07ACF809161039091EA
:101CE00062038827907F682B792B7093620360933F
:101CF0006103F0CF211180CF1D861E861F86188AB2
:101D0000198A1A8A1B8A1C8A1D8A1E8A1F8A188EA3
:101D100047CE5058BB27AA270E94A10E0C94EB0F68
:101D20000E94DD0F38F00E94E40F20F039F49F3F4D
:101D300019F426F40C94DA0F0EF4E095E7FB0C94FA
:101D4000D40FE92F0E94FC0F58F3BA1762077307EC
:101D50008407950720F079F4A6F50C941E100EF474
:101D6000E0950B2EBA2FA02D0B01B90190010C01AB
:101D7000CA01A0011124FF27591B99F0593F50F4C3
:101D8000503E68F11A16F040A22F232F342F44271B
:101D9000585FF3CF469537952795A795F040539513
:101DA000C9F77EF41F16BA0B620B730B840BBAF0E3
:101DB0009150A1F0FF0FBB1F661F771F881FC2F74E
:101DC0000EC0BA0F621F731F841F48F48795779562
:101DD0006795B795F7959E3F08F0B0CF9395880F1C
:101DE00008F09927EE0F9795879508950E940A0F9E
:101DF0000C94EB0F0E94E40F58F00E94DD0F40F0AE
:101E000029F45F3F29F00C94D40F51110C941F104A
:101E10000C94DA0F0E94FC0F68F39923B1F3552359
:101E200091F3951B550BBB27AA27621773078407ED
:101E300038F09F5F5F4F220F331F441FAA1FA9F383
:101E400035D00E2E3AF0E0E832D091505040E69571
:101E5000001CCAF72BD0FE2F29D0660F771F881FD2
:101E6000BB1F261737074807AB07B0E809F0BB0BC5
:101E7000802DBF01FF2793585F4F3AF09E3F5105D9
:101E800078F00C94D40F0C941F105F3FE4F3983E4D
:101E9000D4F3869577956795B795F7959F5FC9F7C2
:101EA000880F911D9695879597F90895E1E0660F43
:101EB000771F881FBB1F621773078407BA0720F0BC
:101EC000621B730B840BBA0BEE1F88F7E095089525
:101ED0000E94041088F09F5798F0B92F9927B751A6
:101EE000B0F0E1F0660F771F881F991F1AF0BA95BE
:101EF000C9F714C0B13091F00E941E10B1E00895EE
:101F00000C941E10672F782F8827B85F39F0B93FDF
:101F1000CCF3869577956795B395D9F73EF4909570
:101F20008095709561957F4F8F4F9F4F0895E894EE
:101F300009C097FB3EF490958095709561957F4F11
:101F40008F4F9F4F9923A9F0F92F96E9BB279395BF
:101F5000F695879577956795B795F111F8CFFAF4CF
:101F6000BB0F11F460FF1BC06F5F7F4F8F4F9F4F00
:101F700016C0882311F096E911C0772321F09EE85E
:101F8000872F762F05C0662371F096E8862F70E0C4
:101F900060E02AF09A95660F771F881FDAF7880F9E
:101FA0009695879597F9089597F99F6780E870E06F
:101FB00060E008959FEF80EC089500240A941616BF
:101FC000170618060906089500240A941216130627
:101FD000140605060895092E0394000C11F48823B5
:101FE00052F0BB0F40F4BF2B11F460FF04C06F5FD1
:101FF0007F4F8F4F9F4F089557FD9058440F551FA7
:1020000059F05F3F71F04795880F97FB991F61F07A
:102010009F3F79F087950895121613061406551FF1
:10202000F2CF4695F1DF08C0161617061806991F5D
:10203000F1CF86957105610508940895E894BB2752
:1020400066277727CB0197F908950E9438100C94E2
:10205000EB0F0E94DD0F38F00E94E40F20F0952373
:1020600011F00C94D40F0C94DA0F11240C941F105F
:102070000E94FC0F70F3959FC1F3950F50E0551F20
:10208000629FF001729FBB27F00DB11D639FAA27CD
:10209000F00DB11DAA1F649F6627B00DA11D661F1C
:1020A000829F2227B00DA11D621F739FB00DA11D3D
:1020B000621F839FA00D611D221F749F3327A00DF7
:1020C000611D231F849F600D211D822F762F6A2F93
:1020D00011249F5750409AF0F1F088234AF0EE0FF8
:1020E000FF1FBB1F661F771F881F91505040A9F725
:1020F0009E3F510580F00C94D40F0C941F105F3F4D
:10210000E4F3983ED4F3869577956795B795F79560
:10211000E7959F5FC1F7FE2B880F911D96958795D8
:1021200097F90895AA1BBB1B51E107C0AA1FBB1F4B
:10213000A617B70710F0A61BB70B881F991F5A9553
:10214000A9F780959095BC01CD01089597FB072EC6
:1021500016F4009407D077FD09D00E94921007FC76
:1021600005D03EF4909581959F4F089570956195A7
:102170007F4F0895A1E21A2EAA1BBB1BFD010DC0C3
:10218000AA1FBB1FEE1FFF1FA217B307E407F50727
:1021900020F0A21BB30BE40BF50B661F771F881F03
:1021A000991F1A9469F760957095809590959B0199
:1021B000AC01BD01CF010895A29FB001B39FC00142
:1021C000A39F700D811D1124911DB29F700D811D63
:1021D0001124911D08950E94DC10B7FF0895821B01
:1021E000930B0895B7FF0C9400110E940011821BFD
:1021F000930B0895EE0FFF1F0590F491E02D0994C5
:102200000E94DC10A59F900DB49F900DA49F800D9F
:10221000911D112408950F931F93CF93DF93823064
:10222000910510F482E090E0E091F204F091F30463
:1022300030E020E0B0E0A0E0309799F421153105BE
:1022400009F44AC0281B390B24303105D8F58A819E
:102250009B816115710589F1FB0193838283FE01E6
:1022600011C0408151810281138148175907E0F064
:102270004817590799F4109761F012960C9312972A
:1022800013961C933296CF01DF91CF911F910F913E
:1022900008950093F2041093F304F4CF211531054F
:1022A00051F04217530738F0A901DB019A01BD0133
:1022B000DF01F801C1CFEF01F9CF9093F3048093D0
:1022C000F204CDCFFE01E20FF31F819391932250D0
:1022D000310939832883D7CF2091F0043091F1045C
:1022E000232B41F420910301309104013093F10438
:1022F0002093F00420910101309102012115310554
:1023000041F42DB73EB74091050150910601241BC1
:10231000350BE091F004F091F104E217F307A0F41B
:102320002E1B3F0B2817390778F0AC014E5F5F4F2B
:102330002417350748F04E0F5F1F5093F104409368
:10234000F004819391939FCFF0E0E0E09CCFCF9396
:10235000DF930097E9F0FC01329713821282A0917B
:10236000F204B091F304ED0130E020E01097A1F405
:1023700020813181820F931F2091F0043091F1046C
:102380002817390709F061C0F093F104E093F004D5
:10239000DF91CF910895EA01CE17DF07E8F54A8172
:1023A0005B819E0141155105B1F7E901FB83EA8389
:1023B00049915991C40FD51FEC17FD0761F4808135
:1023C00091810296840F951FE90199838883828108
:1023D00093819B838A83F0E0E0E012968D919C913B
:1023E00013970097B9F52D913C911197CD01029665
:1023F000820F931F2091F0043091F10428173907C0
:1024000039F6309751F51092F3041092F204B0931C
:10241000F104A093F004BCCFD383C28340815181E7
:10242000840F951FC817D90761F44E5F5F4F8881ED
:102430009981480F591F518340838A819B819383DF
:1024400082832115310509F0B0CFF093F304E093B6
:10245000F2049ECFFD01DC01C0CF13821282D7CFE0
:10246000DC0101C06D9341505040E0F7089510E049
:10247000CDE5D0E004C0FE010E94FA102196CE35D1
:08248000D107C9F7F894FFCF62
:10248800010000F4048000000000000000803F9A72
:1024980099193F0000F0410000803F9A99193F00C8
:1024A8000070420000803F9A99193F0000B4420032
:1024B80000803F9A99193F0000F0420000803F9A3F
:1024C80099193F000016430000803F9A99193F0070
:1024D8000034430000803F9A99193F00005243009E
:1024E80000803F9A99193F000070430000803F9A8E
:1024F80099193F000087430000803F9A99193F00CF
:102508000096430000803F9A99193F0000A54300B8
:1025180000803F9A99193F000066430000803F9A67
:1025280099193F0000A5430000803F9A99193F0080
:102538000070420000803F9A99193F00001643003E
:1025480000803F9A99193F000070430000803F9A2D
:1025580099193F0000A5430000803F9A99193F044C
:1025680000050006000700000000007C01DC0009EF
:1025780001C9013A0118012C01000000005004456E
:0E2588000461041B043E042B041C040D0A0015
:00000001FF
